:100000000C942C010C9441010C9441010C9441017D
:100010000C9441010C9441010C9441010C94410158
:100020000C9441010C9441010C9441010C94410148
:100030000C9441010C9441010C9441010C94410138
:100040000C9441010C9441010C9441010C94410128
:100050000C9441010C9441010C9441010C94410118
:100060000C9441010C9441010C9441010C94410108
:100070000C9441010C9441010C94410100000000DA
:100080000000005F00000003000300143E143E1453
:10009000242A7F2A124333086661364955225000CC
:1000A00005030000001C2241000041221C0014082E
:1000B0003E081408083E08080050300000080808F0
:1000C0000808006060000020100804023E51494505
:1000D0003E0004027F0042615149462241494936AF
:1000E0001814127F1027454545393E4949493201C8
:1000F000017109073649494936264949493E0036C2
:100100003600000056360000081422410014141472
:100110001414004122140802015109063E415955A8
:100120005E7E0909097E7F494949363E41414122A7
:100130007F4141413E7F494949417F090909013ECB
:100140004141493A7F0808087F00417F4100304023
:1001500040403F7F081422417F404040407F020CD6
:10016000027F7F0204087F3E4141413E7F09090929
:10017000061E2121215E7F09090976264949493257
:1001800001017F01013F4040403F1F2040201F7F71
:100190002010207F41221C2241070870080761516E
:1001A000494543007F41000002040810200000413F
:1001B0007F0004020102044040404040000102046C
:1001C0000020545454787F444444383844444444D0
:1001D000384444447F385454541804047E050508B8
:1001E0005454543C7F0804047800447D400020406F
:1001F000443D007F1028440000417F40007C04788B
:1002000004787C0804047838444444387C1414147A
:1002100008081414147C007C080404485454542026
:1002200004043F44443C4040207C1C2040201C3CB3
:100230004030403C44281028440C5050503C44640A
:10024000544C44000836414100007F0000414136D3
:10025000080002010204020011241FBECFEFD0E10A
:10026000DEBFCDBF12E0A0E0B1E0EEE0F3E102C0FE
:1002700005900D92AA35B107D9F70E944B060C9450
:1002800085090C940000129888EE93E02CE231E08E
:10029000F9013197F1F70197D9F7129A88EE93E0B7
:1002A0002CE231E0F9013197F1F70197D9F7149A6F
:1002B000139A159A10981198169A149888E288B98A
:1002C0001398139A149A149881E188B91398139A81
:1002D000149A88E592E02CE231E0F9013197F1F7C8
:1002E0000197D9F714988BEC88B91398139A149A3C
:1002F00091E098B91398139A149880EC88B91398E0
:10030000139A149A8091330188B91398139A8091A3
:10031000340188B91398139A149881EC88B913980A
:10032000139A149A80E188B91398139A149885EC5B
:1003300088B91398139A149A8091360188B9139842
:10034000139A8091370188B91398139A149886E309
:1003500088B91398139A149A88E488B91398139A51
:10036000149880EB88B91398139A149A8AE488B980
:100370001398139A149881EB88B91398139A149AC6
:100380008091390188B91398139A80913A0188B9FC
:100390001398139AEEE2F1E0149886EB88B913985B
:1003A000139A149A819188B91398139A41E0E23311
:1003B000F407C1F7149887EC88B91398139A149A24
:1003C00085EB88B91398139AEAE2F1E0149886EF66
:1003D00088B91398139A149A819188B91398139A2B
:1003E00081E0ED32F807C1F7149882EF88B91398CD
:1003F000139A149A18B81398139A149886E288B925
:100400001398139A149A98B91398139A14988AE324
:1004100088B91398139A149A85E588B91398139A92
:10042000EAE1F1E0149880EE88B91398139A149ACF
:10043000819188B91398139A41E0E932F407C1F722
:10044000EAE0F1E0149881EE88B91398139A149AAF
:10045000819188B91398139A81E0E931F807C1F7BF
:10046000E5E0F1E014988AE288B91398139A149A97
:10047000819188B91398139A41E0E930F407C1F7E4
:10048000E0E0F1E014988BE288B91398139A149A7B
:10049000819188B91398139A81E0E430F807C1F785
:1004A000149884E388B91398139A149A149884EBD7
:1004B00088B91398139A149A18B81398139A149821
:1004C00087EB88B91398139A149A87E088B9139820
:1004D000139A14988CE288B91398139A149A20E00E
:1004E00030E010C018B81398139A18B81398139ADC
:1004F000019641E080349407A9F72F5F3F4F203FDA
:10050000310519F080E090E0EDCF149889E288B9C8
:100510001398139A149A84EF91E02CE231E0F901D8
:100520003197F1F70197D9F7119A089585B7806847
:1005300085BF85B7806885BF8FE781B98FEF87B9A1
:100540000E94430108959C019093500280934F02B2
:10055000149886E388B91398139A149A21153105D3
:1005600071F480EF90E090934C0280934B0280E412
:1005700091E090934E0280934D0288E432C0213086
:10058000310571F480E491E090934C0280934B022A
:1005900080EF90E090934E0280934D0288EE21C050
:1005A0002230310571F480EF90E090934C028093FB
:1005B0004B0280E491E090934E0280934D0288E8D4
:1005C00010C02330310581F480E491E090934C0217
:1005D00080934B0280EF90E090934E0280934D0207
:1005E00088E288B91398139A14988AE288B9139804
:1005F000139A149A18B81398139A18B81398139A50
:1006000080914B0290914C02019798B901961398F2
:10061000139A815088B91398139A14988BE288B969
:100620001398139A149A18B81398139A18B8139821
:10063000139A80914D0290914E02019798B90196BC
:100640001398139A815088B91398139A0895EF92CA
:10065000FF920F931F93DF93CF93CDB7DEB7289709
:100660000FB6F894DEBF0FBECDBFF22F2983E32F64
:100670003A834B835C83362F6D83272F7E838F8352
:1006800098877801AB81BC81062F172F6F81788501
:1006900014988AE288B91398139A149AE8B91398AF
:1006A000139AF8B91398139AB8B91398139AA8B96A
:1006B0001398139A14988BE288B91398139A149A82
:1006C00028B91398139A38B91398139A78B91398CC
:1006D000139A68B91398139A14988CE288B91398EE
:1006E000139A149A2F2F3E2FC901AC010DC0F8B8F0
:1006F0001398139AE8B81398139A2F5F3F4F621715
:100700007307A8F74F5F5F4FA417B50710F0980164
:10071000F6CF28960FB6F894DEBF0FBECDBFCF91AF
:10072000DF911F910F91FF90EF900895EF92FF924C
:100730000F931F93DF93CF93CDB7DEB728970FB6F4
:10074000F894DEBF0FBECDBFF22F2983E32F3A838B
:100750004B835C83362F6D83272F7E838F8398870F
:10076000D8010B811C81E62EF72E6F8178851498B5
:100770008AE288B91398139A149AE8B91398139ACD
:10078000F8B91398139A18B91398139A08B91398CB
:10079000139A14988BE288B91398139A149A28B96B
:1007A0001398139A38B91398139A78B91398139A1F
:1007B00068B91398139A14988CE288B91398139A0D
:1007C000149A2F2F3E2FC901AC0114C011968C91A1
:1007D000119788B91398139A12968C91129788B929
:1007E00014961398139A2F5F3F4F6217730770F791
:1007F0004F5F5F4F0417150710F09701F6CF28964B
:100800000FB6F894DEBF0FBECDBFCF91DF911F9121
:100810000F91FF90EF9008950F931F93DF93CF9365
:10082000CDB7DEB728970FB6F894DEBF0FBECDBFA9
:1008300010925202109251021092540210925302DE
:10084000FE01319688E0DF011D928A95E9F78091DB
:100850004D0290914E02019700915702109158025B
:1008600020914B0230914C0221503040422F3C836A
:100870002B8398878F8329813A815C816D817E816A
:1008800098850E94270328960FB6F894DEBF0FBE06
:10089000CDBFCF91DF911F910F9108954F925F923D
:1008A0007F928F929F92AF92BF92CF92DF92EF9200
:1008B000FF920F931F93CF93DF93982F20915102B4
:1008C0003091520244E0C42ED12CC20ED31E40906F
:1008D0005302509054028A3081F4109252021092C6
:1008E000510248E050E0440E551E5092540240928E
:1008F0005302E8EFFFEF4E0E5F1E892F80528F35B7
:1009000008F0ABC08201095F1F4F85E09802E0014B
:100910001124C452D04014988BE288B91398139ACA
:10092000149A58B81398139A48B81398139A18B988
:100930001398139A08B91398139AB0905502B0916E
:10094000560290905702A0905802A9019AE2792E7F
:100950008CE2882E3BC0149878B81398139A149A96
:1009600058B91398139A48B91398139A58B9139809
:10097000139A48B91398139A149888B81398139A2D
:10098000149AFE018491B201A1E0E82EFF2418C060
:100990002A2F30E02E213F212115310511F49A2D07
:1009A00001C09B2F98B91398139A232B11F4992DFA
:1009B00001C09B2D98B91398139A6F5F7F4FAA0FB0
:1009C0000617170728F721964F5F5F4FC416D50605
:1009D00008F0C1CF14988AE288B91398139A149A30
:1009E00058B91398139A48B91398139A58B9139889
:1009F000139A48B91398139A14988CE288B91398EB
:100A0000139A149AC20107C0A8B81398139A98B8F9
:100A10001398139A019608171907B0F720915102FD
:100A2000309152022A5F3F4F30935202209351027D
:100A300080914B0290914C0206978217930768F4BD
:100A400010925202109251028091530290915402DE
:100A500008969093540280935302DF91CF911F9197
:100A60000F91FF90EF90DF90CF90BF90AF909F904D
:100A70008F907F905F904F9008951F93CF93DF9357
:100A8000EC0110E003C00E944E041F5FFE01E10F65
:100A9000F11D80818823B9F7DF91CF911F910895CF
:100AA000FF920F931F93F82E8B018CE391E00E942D
:100AB0003D058F2D0E944E0480E591E00E943D058A
:100AC000C8010E943D058AE00E944E0480E090E04B
:100AD0001F910F91FF900895FC0120E030E0A1E20A
:100AE000B0E116C08081992787FD9095982F8827BF
:100AF0002827392748E0C901880F991F37FF04C00C
:100B00009C012A273B2701C09C014150A1F7319647
:100B10006150704077FFE6CFC90108950F931F938E
:100B2000DF93CF9300D000D0CDB7DEB72DB73EB75F
:100B3000285030400FB6F8943EBF0FBE2DBFEDB722
:100B4000FEB731968E010F5F1F4FADB7BEB712963D
:100B50001C930E93119724E030E03383228320E628
:100B600031E035832483978386830E94A0062DB7C6
:100B70003EB7285F3F4F0FB6F8943EBF0FBE2DBF64
:100B800085E691E00E943D05C8010E943D050F9059
:100B90000F900F900F90CF91DF911F910F910895BB
:100BA000DF92EF92FF920F931F93DF93CF93CDB716
:100BB000DEB7C857D0400FB6F894DEBF0FBECDBF2A
:100BC000D82E8E010F5F1F4FC80148E750E00E94EA
:100BD0009106C80168E770E00E946C057C018D2DCC
:100BE000B8010E94500588E691E00E943D05C701CA
:100BF0000E948E0581E090E0C858DF4F0FB6F89450
:100C0000DEBF0FBECDBFCF91DF911F910F91FF903F
:100C1000EF90DF9008950F931F93DF93CF9300D051
:100C200000D00F92CDB7DEB72DB73EB72850304079
:100C30000FB6F8943EBF0FBE2DBFEDB7FEB731968D
:100C40008E010F5F1F4FADB7BEB712961C930E9368
:100C5000119725E030E03383228325E731E03583A7
:100C60002483978386830E94A0062DB73EB7285F12
:100C70003F4F0FB6F8943EBF0FBE2DBFC8010E9474
:100C80003D050F900F900F900F900F90CF91DF9137
:100C90001F910F9108950F931F93DF93CF93CDB7BB
:100CA000DEB7CE5BD0400FB6F894DEBF0FBECDBF2F
:100CB0000E94960283E090E00E94A30288E791E000
:100CC0000E943D058FEF90E00E948E058FEF90E02F
:100CD0000E940B0689E891E00E943D05DE01119615
:100CE000EDE8F1E08EEB01900D928150E1F784E4A4
:100CF000BE016F5F7F4F0E94D00520E137E20CE21A
:100D000011E005C0C8010197F1F7215030402115CD
:100D10003105C1F78BE891E00E943D0520E137E203
:100D2000F1CFFB01DC014150504048F001900D92A1
:100D30000020C9F701C01D9241505040E0F70895CE
:100D4000AEE0B0E0E6EAF6E00C945C090D891E899D
:100D50008F89988D97FF02C080E090E801979E836D
:100D60008D831A83098386E08C839E01255E3F4F25
:100D7000CE010196698D7A8DA9010E94D1064D811F
:100D80005E8157FD0AC02F813885421753070CF446
:100D90009A01020F131FF80110822E96E4E00C94C2
:100DA0007809ABE0B0E0E7EDF6E00C944E093C01C9
:100DB0002B015A01FC0117821682838181FD03C039
:100DC0006FEF7FEFC6C19AE0892E1E010894211CA7
:100DD000311CF3012381F20123FD859123FF8191D1
:100DE0002F01882309F4B2C1853239F423FD85919E
:100DF00023FF81912F01853229F490E0B3010E94F5
:100E0000C408E7CF982FFF24EE249924FFE1FF15B3
:100E1000D0F09B3269F09C3228F4903259F0933232
:100E200091F40EC09D3249F0903369F441E024C042
:100E300052E0F52A84E0F82A28C098E0F92A25C073
:100E4000E0E1FE2A22C0F7FC29C0892F80538A30B6
:100E500070F4F6FE05C0989C902C1124980E15C0D5
:100E6000E89CE02C1124E80EF0E2FF2A0EC09E322E
:100E700029F4F6FC6BC140E4F42A07C09C3619F44F
:100E800050E8F52A02C0983649F4F20123FD959105
:100E900023FF91912F01992309F0B8CF892F855411
:100EA000833018F08052833038F444E050E0A40ED0
:100EB000B51E5FE359830FC0933631F0933779F055
:100EC000933509F056C020C0F5018081898342E046
:100ED00050E0A40EB51E610101E010E012C0F50162
:100EE000C080D180F6FC03C06FEF7FEF02C0692D98
:100EF00070E042E050E0A40EB51EC6010E94B908A1
:100F00008C015FE7F52214C0F501C080D180F6FCAA
:100F100003C06FEF7FEF02C0692D70E042E050E048
:100F2000A40EB51EC6010E94AE088C0150E8F52A39
:100F3000F3FE07C01AC080E290E0B3010E94C4082B
:100F4000EA948E2D90E008171907A8F30EC0F60159
:100F5000F7FC8591F7FE81916F0190E0B3010E944B
:100F6000C408E110EA94015010400115110579F709
:100F7000EAC0943611F0993669F5F7FE08C0F5011C
:100F8000208131814281538184E090E00AC0F501E3
:100F9000808191819C01442737FD4095542F82E048
:100FA00090E0A80EB91E9FE6F92257FF09C05095A0
:100FB0004095309521953F4F4F4F5F4FE0E8FE2A17
:100FC000CA01B901A1012AE030E00E94F008D82E40
:100FD000D21840C0953729F41F2D1F7E2AE030E03B
:100FE0001DC01F2D197F9F3661F0903720F4983572
:100FF00009F0ACC00FC0903739F0983709F0A6C09F
:1010000004C028E030E00AC0106114FD146020E143
:1010100030E004C014FD166020E132E017FF08C084
:10102000F501608171818281938144E050E008C0C4
:10103000F50180819181BC0180E090E042E050E0C8
:10104000A40EB51EA1010E94F008D82ED2188FE779
:10105000F82EF122F6FE0BC05EEFF522D91438F41B
:10106000F4FE07C0F2FC05C08FEEF82202C01D2D71
:1010700001C0192DF4FE0DC0FE01ED0DF11D8081A2
:10108000803319F499EEF92208C01F5FF2FE05C003
:1010900003C08F2D867809F01F5F0F2DF3FC14C05D
:1010A000F0FE0FC01E1510F09D2C0BC09D2C9E0C49
:1010B000911A1E2D06C080E290E0B3010E94C40880
:1010C0001F5F1E15C0F304C01E1510F4E11A01C005
:1010D000EE2404FF0FC080E390E0B3010E94C40837
:1010E00002FF1DC001FD03C088E790E00EC088E547
:1010F00090E00BC0802F867891F001FF02C08BE258
:1011000001C080E2F7FC8DE290E0B3010E94C408C8
:1011100006C080E390E0B3010E94C4089A94D914F9
:10112000C0F3DA94F101ED0DF11D808190E0B3017F
:101130000E94C408DD20A9F706C080E290E0B30158
:101140000E94C408EA94EE20C1F743CEF301668101
:101150007781CB012B96E2E10C946A09FC010590A2
:10116000615070400110D8F7809590958E0F9F1FA9
:101170000895FC016150704001900110D8F78095EE
:1011800090958E0F9F1F08950F931F93CF93DF931A
:101190008C01EB018B8181FF1BC082FF0DC02E8172
:1011A0003F818C819D812817390764F4E881F9819A
:1011B0000193F983E88306C0E885F985802F0995B6
:1011C000892B31F48E819F8101969F838E8302C08B
:1011D0000FEF1FEFC801DF91CF911F910F9108957D
:1011E000FA01AA27283051F1203181F1E8946F9358
:1011F0006E7F6E5F7F4F8F4F9F4FAF4FB1E03ED0FE
:10120000B4E03CD0670F781F891F9A1FA11D680F9B
:10121000791F8A1F911DA11D6A0F711D811D911DCE
:10122000A11D20D009F468943F912AE0269F112443
:101230003019305D3193DEF6CF010895462F4770A7
:10124000405D4193B3E00FD0C9F7F6CF462F4F7002
:10125000405D4A3318F0495D31FD4052419302D060
:10126000A9F7EACFB4E0A695979587957795679506
:10127000BA95C9F700976105710508959B01AC0106
:101280000A2E06945795479537952795BA95C9F72D
:10129000620F731F841F951FA01D08952F923F9208
:1012A0004F925F926F927F928F929F92AF92BF9276
:1012B000CF92DF92EF92FF920F931F93CF93DF9322
:1012C000CDB7DEB7CA1BDB0B0FB6F894DEBF0FBE7F
:1012D000CDBF09942A88398848885F846E847D84CC
:1012E0008C849B84AA84B984C884DF80EE80FD80CE
:1012F0000C811B81AA81B981CE0FD11D0FB6F89444
:0E130000DEBF0FBECDBFED010895F894FFCF04
:10130E000000013F00000000EF0000252705100936
:10131E003A784D05180D383A1F001F1A180A0F0695
:10132E004587320A070207050000010000000A8205
:10133E00270000260800353E00001B0053656E6432
:10134E00696E67207365676D656E7420746F20001B
:10135E002077697468206D6573736167653A200044
:10136E00253034780030780043524320696E20686F
:10137E0065783A2000256400496E697469616C696C
:10138E0073696E672E2E2E0A000A002E00426163CC
:10139E006F6E2073686F7274206C6F696E2C206B89
:1013AE0069656C6261736120706F726368657474D5
:1013BE00612070616E636574746120746F6E677501
:1013CE0065207461696C2076656E69736F6E2E2070
:1013DE00546F6E67756520616C6361747261207203
:1013EE00756D7020636869636B656E20706F726BCC
:1013FE002062656C6C792E205475726475636B6512
:10140E006E2062726573616F6C61206A65726B79B2
:10141E00206472756D737469636B2073686F727478
:10142E00206C6F696E20706F726B2063686F702016
:10143E006265656620726962732062616C6C2074ED
:10144E006970207475726B65792E00F00040010092
:0A145E000000000000FFFF00000086
:00000001FF
