:100000000C942C010C9449010C9449010C94490165
:100010000C9449010C9449010C9449010C94490138
:100020000C9449010C9449010C9449010C94490128
:100030000C9449010C94CB050C9449010C94490192
:100040000C9449010C9449010C9449010C94490108
:100050000C9449010C9449010C9449010C944901F8
:100060000C9449010C9449010C9449010C944901E8
:100070000C9449010C9449010C94490100000000C2
:100080000000005F00000003000300143E143E1453
:10009000242A7F2A124333086661364955225000CC
:1000A00005030000001C2241000041221C0014082E
:1000B0003E081408083E08080050300000080808F0
:1000C0000808006060000020100804023E51494505
:1000D0003E0004027F0042615149462241494936AF
:1000E0001814127F1027454545393E4949493201C8
:1000F000017109073649494936264949493E0036C2
:100100003600000056360000081422410014141472
:100110001414004122140802015109063E415955A8
:100120005E7E0909097E7F494949363E41414122A7
:100130007F4141413E7F494949417F090909013ECB
:100140004141493A7F0808087F00417F4100304023
:1001500040403F7F081422417F404040407F020CD6
:10016000027F7F0204087F3E4141413E7F09090929
:10017000061E2121215E7F09090976264949493257
:1001800001017F01013F4040403F1F2040201F7F71
:100190002010207F41221C2241070870080761516E
:1001A000494543007F41000002040810200000413F
:1001B0007F0004020102044040404040000102046C
:1001C0000020545454787F444444383844444444D0
:1001D000384444447F385454541804047E050508B8
:1001E0005454543C7F0804047800447D400020406F
:1001F000443D007F1028440000417F40007C04788B
:1002000004787C0804047838444444387C1414147A
:1002100008081414147C007C080404485454542026
:1002200004043F44443C4040207C1C2040201C3CB3
:100230004030403C44281028440C5050503C44640A
:10024000544C44000836414100007F0000414136D3
:10025000080002010204020011241FBECFEFD0E10A
:10026000DEBFCDBF16E0A0E0B1E0EEE7F8E102C0EE
:1002700005900D92AA33B107D9F716E0AAE3B6E0CC
:1002800001C01D92AE33B107E1F70E94DA080C9469
:100290003D0C0C940000129888EE93E02CE231E0C3
:1002A000F9013197F1F70197D9F7129A88EE93E0A7
:1002B0002CE231E0F9013197F1F70197D9F7149A5F
:1002C000139A159A10981198169A149888E288B97A
:1002D0001398139A149A149881E188B91398139A71
:1002E000149A88E592E02CE231E0F9013197F1F7B8
:1002F0000197D9F714988BEC88B91398139A149A2C
:1003000091E098B91398139A149880EC88B91398CF
:10031000139A149A8091330188B91398139A809193
:10032000340188B91398139A149881EC88B91398FA
:10033000139A149A80E188B91398139A149885EC4B
:1003400088B91398139A149A8091360188B9139832
:10035000139A8091370188B91398139A149886E3F9
:1003600088B91398139A149A88E488B91398139A41
:10037000149880EB88B91398139A149A8AE488B970
:100380001398139A149881EB88B91398139A149AB6
:100390008091390188B91398139A80913A0188B9EC
:1003A0001398139AEEE2F1E0149886EB88B913984B
:1003B000139A149A819188B91398139A41E0E23301
:1003C000F407C1F7149887EC88B91398139A149A14
:1003D00085EB88B91398139AEAE2F1E0149886EF56
:1003E00088B91398139A149A819188B91398139A1B
:1003F00081E0ED32F807C1F7149882EF88B91398BD
:10040000139A149A18B81398139A149886E288B914
:100410001398139A149A98B91398139A14988AE314
:1004200088B91398139A149A85E588B91398139A82
:10043000EAE1F1E0149880EE88B91398139A149ABF
:10044000819188B91398139A41E0E932F407C1F712
:10045000EAE0F1E0149881EE88B91398139A149A9F
:10046000819188B91398139A81E0E931F807C1F7AF
:10047000E5E0F1E014988AE288B91398139A149A87
:10048000819188B91398139A41E0E930F407C1F7D4
:10049000E0E0F1E014988BE288B91398139A149A6B
:1004A000819188B91398139A81E0E430F807C1F775
:1004B000149884E388B91398139A149A149884EBC7
:1004C00088B91398139A149A18B81398139A149811
:1004D00087EB88B91398139A149A87E088B9139810
:1004E000139A14988CE288B91398139A149A20E0FE
:1004F00030E010C018B81398139A18B81398139ACC
:10050000019641E080349407A9F72F5F3F4F203FC9
:10051000310519F080E090E0EDCF149889E288B9B8
:100520001398139A149A84EF91E02CE231E0F901C8
:100530003197F1F70197D9F7119A089585B7806837
:1005400085BF85B7806885BF8FE781B98FEF87B991
:100550000E944B0108959C019093310680933006D0
:10056000149886E388B91398139A149A21153105C3
:1005700071F480EF90E090932D0680932C0680E438
:1005800091E090932F0680932E0688E432C02130AC
:10059000310571F480E491E090932D0680932C0650
:1005A00080EF90E090932F0680932E0688EE21C076
:1005B0002230310571F480EF90E090932D06809306
:1005C0002C0680E491E090932F0680932E0688E815
:1005D00010C02330310581F480E491E090932D0622
:1005E00080932C0680EF90E090932F0680932E0648
:1005F00088E288B91398139A14988AE288B91398F4
:10060000139A149A18B81398139A18B81398139A3F
:1006100080912C0690912D06019798B90196139818
:10062000139A815088B91398139A14988BE288B959
:100630001398139A149A18B81398139A18B8139811
:10064000139A80912E0690912F06019798B90196E2
:100650001398139A815088B91398139A0895EF92BA
:10066000FF920F931F93DF93CF93CDB7DEB72897F9
:100670000FB6F894DEBF0FBECDBFF22F2983E32F54
:100680003A834B835C83362F6D83272F7E838F8342
:1006900098877801AB81BC81062F172F6F817885F1
:1006A00014988AE288B91398139A149AE8B913989F
:1006B000139AF8B91398139AB8B91398139AA8B95A
:1006C0001398139A14988BE288B91398139A149A72
:1006D00028B91398139A38B91398139A78B91398BC
:1006E000139A68B91398139A14988CE288B91398DE
:1006F000139A149A2F2F3E2FC901AC010DC0F8B8E0
:100700001398139AE8B81398139A2F5F3F4F621704
:100710007307A8F74F5F5F4FA417B50710F0980154
:10072000F6CF28960FB6F894DEBF0FBECDBFCF919F
:10073000DF911F910F91FF90EF900895EF92FF923C
:100740000F931F93DF93CF93CDB7DEB728970FB6E4
:10075000F894DEBF0FBECDBFF22F2983E32F3A837B
:100760004B835C83362F6D83272F7E838F839887FF
:10077000D8010B811C81E62EF72E6F8178851498A5
:100780008AE288B91398139A149AE8B91398139ABD
:10079000F8B91398139A18B91398139A08B91398BB
:1007A000139A14988BE288B91398139A149A28B95B
:1007B0001398139A38B91398139A78B91398139A0F
:1007C00068B91398139A14988CE288B91398139AFD
:1007D000149A2F2F3E2FC901AC0114C011968C9191
:1007E000119788B91398139A12968C91129788B919
:1007F00014961398139A2F5F3F4F6217730770F781
:100800004F5F5F4F0417150710F09701F6CF28963A
:100810000FB6F894DEBF0FBECDBFCF91DF911F9111
:100820000F91FF90EF9008950F931F93DF93CF9355
:10083000CDB7DEB728970FB6F894DEBF0FBECDBF99
:10084000109233061092320610923506109234063A
:10085000FE01319688E0DF011D928A95E9F78091CB
:100860002E0690912F0601970091380610913906B7
:1008700020912C0630912D0621503040422F3C8390
:100880002B8398878F8329813A815C816D817E815A
:1008900098850E942F0328960FB6F894DEBF0FBEEE
:1008A000CDBFCF91DF911F910F9108954F925F922D
:1008B0007F928F929F92AF92BF92CF92DF92EF92F0
:1008C000FF920F931F93CF93DF93982F20913206BF
:1008D0003091330644E0C42ED12CC20ED31E40907A
:1008E0003406509035068A3081F410923306109207
:1008F000320648E050E0440E551E509235064092B4
:100900003406E8EFFFEF4E0E5F1E892F80528F35C1
:1009100008F0ABC08201095F1F4F85E09802E0013B
:100920001124C452D04014988BE288B91398139ABA
:10093000149A58B81398139A48B81398139A18B978
:100940001398139A08B91398139AB0903606B09179
:10095000370690903806A0903906A9019AE2792EC0
:100960008CE2882E3BC0149878B81398139A149A86
:1009700058B91398139A48B91398139A58B91398F9
:10098000139A48B91398139A149888B81398139A1D
:10099000149AFE018491B201A1E0E82EFF2418C050
:1009A0002A2F30E02E213F212115310511F49A2DF7
:1009B00001C09B2F98B91398139A232B11F4992DEA
:1009C00001C09B2D98B91398139A6F5F7F4FAA0FA0
:1009D0000617170728F721964F5F5F4FC416D506F5
:1009E00008F0C1CF14988AE288B91398139A149A20
:1009F00058B91398139A48B91398139A58B9139879
:100A0000139A48B91398139A14988CE288B91398DA
:100A1000139A149AC20107C0A8B81398139A98B8E9
:100A20001398139A019608171907B0F72091320608
:100A3000309133062A5F3F4F3093330620933206BE
:100A400080912C0690912D0606978217930768F4E3
:100A5000109233061092320680913406909135063A
:100A600008969093350680933406DF91CF911F91BD
:100A70000F91FF90EF90DF90CF90BF90AF909F903D
:100A80008F907F905F904F9008951F93CF93DF9347
:100A9000EC0110E003C00E9456041F5FFE01E10F4D
:100AA000F11D80818823B9F7DF91CF911F910895BF
:100AB000EF92FF921F93CF93DF937C01162FC62FE7
:100AC000D0E0C40FD11D06C0EE0DFF1D80810E9435
:100AD00056041F5FE12FF0E0EC17FD07ACF3DF9148
:100AE000CF911F91FF90EF900895DF93CF93CDB7F3
:100AF000DEB728970FB6F894DEBF0FBECDBFFE015C
:100B0000319627E030E0482F50E070E361E3CA01FE
:100B1000022E02C0959587950A94E2F780FF02C0E5
:100B2000608301C070832150304031968FEF2F3F9A
:100B3000380769F78CE391E00E944505CE010196E4
:100B400060E048E00E94580528960FB6F894DEBF92
:100B50000FBECDBFCF91DF9108958FB7F89420914C
:100B60003A0630913B0640913C0650913D068FBFBE
:100B7000B901CA0108958AE0809381008BED95E068
:100B80009093890080938800EFE6F0E08081826096
:100B90008083789408951F920F920FB60F921124BC
:100BA0008F939F93AF93BF93F89480913A0690915F
:100BB0003B06A0913C06B0913D060196A11DB11DDA
:100BC00080933A0690933B06A0933C06B0933D0673
:100BD0007894BF91AF919F918F910F900FBE0F901E
:100BE0001F9018951092C5008DE48093C40088E191
:100BF0008093C10086E08093C20008958091C00078
:100C000087FFFCCF8091C6000895982F8091C00087
:100C100085FFFCCF9093C6000895FC0107C080912A
:100C2000C00085FFFCCF9093C60031969081992338
:100C3000B1F7089580E090E00895FC0120E030E0F5
:100C4000A1E2B0E116C08081992787FD9095982F89
:100C500088272827392748E0C901880F991F37FFBF
:100C600004C09C012A273B2701C09C014150A1F7E9
:100C700031966150704077FFE6CFC9010895EF9239
:100C8000FF920F931F93CF93DF93DC01E901F701EC
:100C9000808186FF03C081E08C9301C01C9280811B
:100CA00085FF04C081E0DB018C9302C0DB011C9254
:100CB000808184FF04C081E0DA018C9302C0DA01F4
:100CC0001C92188243E050E061E070E09B01042E2A
:100CD00002C0220F331F0A94E2F78081992787FD13
:100CE000909528233923220F331F220F331F388179
:100CF000322B388341505040BFEF4F3F5B0731F7F5
:100D00008181992787FD90958078907066E0959510
:100D100087956A95E1F7232F282B288381819927CE
:100D200087FD90958074907056E0959587955A95BB
:100D3000E1F7282B288381818F73F8018083DF916D
:100D4000CF911F910F91FF90EF900895EF92FF9236
:100D50000F93F70130E08295880F880F807C8068C0
:100D60006295660F607E682B4295407F462B80E03F
:100D7000482BC9019595879595958795482B408374
:100D80000F73B6E0220F331FBA95E1F7022B80E014
:100D9000802B81830F91FF90EF900895DC01A40FC9
:100DA000B11D40E050E030E007C0FB01E40FF51F4B
:100DB00080818D934F5F5F4F42175307B4F30895BF
:100DC0008F929F92AF92BF92CF92DF92EF92FF925B
:100DD0000F931F93DF93CF93CDB7DEB76B017C01E9
:100DE0008DB69EB6042F10E0000F111F8DB79EB771
:100DF000801B910B0FB6F8949EBF0FBE8DBFADB692
:100E0000BEB60894A11CB11CEDB7FEB7E00FF11FF0
:100E100040E050E020E030E016C0D701C601022ECD
:100E200004C0B695A795979587950A94D2F78F70C9
:100E30008A3010F0895A01C0805D80834F5F5F4F18
:100E400031972C5F3F4F401751073CF38FE391E000
:100E50000E944505C50160E0402F0E9458050FB66D
:100E6000F8949EBE0FBE8DBECF91DF911F910F9162
:100E7000FF90EF90DF90CF90BF90AF909F908F90BA
:100E800008950F931F93DF93CF93CDB7DEB72897C5
:100E90000FB6F894DEBF0FBECDBF2DB73EB72850BA
:100EA00030400FB6F8943EBF0FBE2DBFEDB7FEB772
:100EB00031968E010F5F1F4FADB7BEB712961C93D0
:100EC0000E93119728E030E03383228322E431E04F
:100ED00035832483978386830E9458092DB73EB7B4
:100EE000285F3F4F0FB6F8943EBF0FBE2DBFC8011D
:100EF0000E94450528960FB6F894DEBF0FBECDBF01
:100F0000CF91DF911F910F910895CF92DF92EF92D1
:100F1000FF920F931F93DF93CF9300D000D00F92D7
:100F2000CDB7DEB76C01CE010196BE016E5F7F4F7B
:100F3000AE014D5F5F4F9E012C5F3F4F8E010B5FF7
:100F40001F4F76010E943F0685E491E00E9445050F
:100F5000F60101900020E9F73197CF018C199D0926
:100F60000E9441078FE591E00E9445058EE691E0E1
:100F70000E944505F60180810E9475058FE791E08A
:100F80000E944505F60181810E94750581E991E085
:100F90000E9445058C8190E00E9441078CE991E018
:100FA0000E9445058D8190E00E94410781EA91E011
:100FB0000E944505F6016281772767FD7095872FAE
:100FC000972F41E00E94E00680EB91E00E944505EA
:100FD000F6016381772767FD7095872F972F41E092
:100FE0000E94E0068DEB91E00E944505F6018481A8
:100FF000992787FD90950E9441078FEC91E00E9410
:10100000450515E007C08C0D9D1DFC0180810E94E7
:1010100056041F5F812F90E0F60101900020E9F750
:10102000EC19FD0933978E179F0768F38AED91E05D
:101030000E944505F60101900020E9F73197EC196F
:10104000FD09EC0DFD1D32970191112707FD10954B
:10105000102F0027808190E0082B192BB80180E029
:1010600090E042E00E94E00681EE91E00E9445059A
:10107000D6010D900020E9F7AC19BD091397C60100
:10108000BD010E941D060817190719F482EF91E0AF
:1010900002C086EF91E00E9445050F900F900F90DF
:1010A0000F900F90CF91DF911F910F91FF90EF90D4
:1010B000DF90CF9008959F92AF92BF92CF92DF9230
:1010C000EF92FF920F931F93DF93CF93CDB7DEB7CD
:1010D000C456D0400FB6F894DEBF0FBECDBF162F5A
:1010E000972E5E010894A11CB11C84E6D5011D92C7
:1010F0008A95E9F7E62FF72FDF010D900020E9F739
:101100006D010894C108D108CE1ADF0A80E060E0C2
:1011100040E021E001E075010E94A606BCE0CB168C
:10112000D10410F00CE001C00C2D8FEF8B838C8369
:101130000D83212F392DC901DC01FE013196E02EEE
:10114000FF240894E11CF11C6F019F012E0D3F1D2F
:101150000894E108F10802C08D9184833196E2176A
:10116000F307D1F787010B5F1F4FC501B8010E943C
:101170001D060C0D1D1DF8019083EC0EFD1ED70100
:1011800017968C93C5010E94850780E090E0CC59AA
:10119000DF4F0FB6F894DEBF0FBECDBFCF91DF910A
:1011A0001F910F91FF90EF90DF90CF90BF90AF9085
:1011B0009F9008950F931F93DF93CF93CDB7DEB722
:1011C000C85ED3400FB6F894DEBF0FBECDBF0E94FD
:1011D0009E0283E090E00E94AB021092C5008DE475
:1011E0008093C40088E18093C10086E08093C200B0
:1011F0008AE0809381008BED95E090938900809345
:10120000880080916F00826080936F00789484EFF3
:1012100091E02CE231E0F9013197F1F70197D9F72C
:101220002FB7F89480913A0690913B06A0913C0626
:10123000B0913D062FBF0E94410789EF91E00E94C7
:101240004505DE011196E4E4F2E08CE601900D9292
:101250008150E1F78CE793E0FE01E359FF4FDF0196
:101260009C011D9221503040E1F78E010F5F1F4F0E
:10127000F80101900020E9F73197CF01801B910B15
:101280000E9441078BE092E00E944505C8010E9440
:1012900045058BE292E00E94450584E4B8010E9476
:1012A0005B08892B21F08EE292E00E944505FFCF7A
:1012B000AEE0B0E0EEE5F9E00C94140C0D891E8967
:1012C0008F89988D97FF02C080E090E801979E83F8
:1012D0008D831A83098386E08C839E01255E3F4FB0
:1012E000CE010196698D7A8DA9010E9489094D81EF
:1012F0005E8157FD0AC02F813885421753070CF4D1
:101300009A01020F131FF80110822E96E4E00C944C
:10131000300CABE0B0E0EFE8F9E00C94060C3C01D7
:101320002B015A01FC0117821682838181FD03C0C3
:101330006FEF7FEFC6C19AE0892E1E010894211C31
:10134000311CF3012381F20123FD859123FF81915B
:101350002F01882309F4B2C1853239F423FD859128
:1013600023FF81912F01853229F490E0B3010E947F
:101370007C0BE7CF982FFF24EE249924FFE1FF1583
:10138000D0F09B3269F09C3228F4903259F09332BD
:1013900091F40EC09D3249F0903369F441E024C0CD
:1013A00052E0F52A84E0F82A28C098E0F92A25C0FE
:1013B000E0E1FE2A22C0F7FC29C0892F80538A3041
:1013C00070F4F6FE05C0989C902C1124980E15C060
:1013D000E89CE02C1124E80EF0E2FF2A0EC09E32B9
:1013E00029F4F6FC6BC140E4F42A07C09C3619F4DA
:1013F00050E8F52A02C0983649F4F20123FD959190
:1014000023FF91912F01992309F0B8CF892F85549B
:10141000833018F08052833038F444E050E0A40E5A
:10142000B51E5FE359830FC0933631F0933779F0DF
:10143000933509F056C020C0F5018081898342E0D0
:1014400050E0A40EB51E610101E010E012C0F501EC
:10145000C080D180F6FC03C06FEF7FEF02C0692D22
:1014600070E042E050E0A40EB51EC6010E94710B70
:101470008C015FE7F52214C0F501C080D180F6FC35
:1014800003C06FEF7FEF02C0692D70E042E050E0D3
:10149000A40EB51EC6010E94660B8C0150E8F52A09
:1014A000F3FE07C01AC080E290E0B3010E947C0BFB
:1014B000EA948E2D90E008171907A8F30EC0F601E4
:1014C000F7FC8591F7FE81916F0190E0B3010E94D6
:1014D0007C0BE110EA94015010400115110579F7D9
:1014E000EAC0943611F0993669F5F7FE08C0F501A7
:1014F000208131814281538184E090E00AC0F5016E
:10150000808191819C01442737FD4095542F82E0D2
:1015100090E0A80EB91E9FE6F92257FF09C050952A
:101520004095309521953F4F4F4F5F4FE0E8FE2AA1
:10153000CA01B901A1012AE030E00E94A80BD82E0F
:10154000D21840C0953729F41F2D1F7E2AE030E0C5
:101550001DC01F2D197F9F3661F0903720F49835FC
:1015600009F0ACC00FC0903739F0983709F0A6C029
:1015700004C028E030E00AC0106114FD146020E1CE
:1015800030E004C014FD166020E132E017FF08C00F
:10159000F501608171818281938144E050E008C04F
:1015A000F50180819181BC0180E090E042E050E053
:1015B000A40EB51EA1010E94A80BD82ED2188FE749
:1015C000F82EF122F6FE0BC05EEFF522D91438F4A6
:1015D000F4FE07C0F2FC05C08FEEF82202C01D2DFC
:1015E00001C0192DF4FE0DC0FE01ED0DF11D80812D
:1015F000803319F499EEF92208C01F5FF2FE05C08E
:1016000003C08F2D867809F01F5F0F2DF3FC14C0E7
:10161000F0FE0FC01E1510F09D2C0BC09D2C9E0CD3
:10162000911A1E2D06C080E290E0B3010E947C0B4F
:101630001F5F1E15C0F304C01E1510F4E11A01C08F
:10164000EE2404FF0FC080E390E0B3010E947C0B06
:1016500002FF1DC001FD03C088E790E00EC088E5D1
:1016600090E00BC0802F867891F001FF02C08BE2E2
:1016700001C080E2F7FC8DE290E0B3010E947C0B98
:1016800006C080E390E0B3010E947C0B9A94D914C9
:10169000C0F3DA94F101ED0DF11D808190E0B3010A
:1016A0000E947C0BDD20A9F706C080E290E0B30128
:1016B0000E947C0BEA94EE20C1F743CEF3016681D1
:1016C0007781CB012B96E2E10C94220CFC01059072
:1016D000615070400110D8F7809590958E0F9F1F34
:1016E0000895FC016150704001900110D8F7809579
:1016F00090958E0F9F1F08950F931F93CF93DF93A5
:101700008C01EB018B8181FF1BC082FF0DC02E81FC
:101710003F818C819D812817390764F4E881F98124
:101720000193F983E88306C0E885F985802F099540
:10173000892B31F48E819F8101969F838E8302C015
:101740000FEF1FEFC801DF91CF911F910F91089507
:10175000FA01AA27283051F1203181F1E8946F93E2
:101760006E7F6E5F7F4F8F4F9F4FAF4FB1E03ED088
:10177000B4E03CD0670F781F891F9A1FA11D680F26
:10178000791F8A1F911DA11D6A0F711D811D911D59
:10179000A11D20D009F468943F912AE0269F1124CE
:1017A0003019305D3193DEF6CF010895462F477032
:1017B000405D4193B3E00FD0C9F7F6CF462F4F708D
:1017C000405D4A3318F0495D31FD4052419302D0EB
:1017D000A9F7EACFB4E0A695979587957795679591
:1017E000BA95C9F700976105710508959B01AC0191
:1017F0000A2E06945795479537952795BA95C9F7B8
:10180000620F731F841F951FA01D08952F923F9292
:101810004F925F926F927F928F929F92AF92BF9200
:10182000CF92DF92EF92FF920F931F93CF93DF93AC
:10183000CDB7DEB7CA1BDB0B0FB6F894DEBF0FBE09
:10184000CDBF09942A88398848885F846E847D8456
:101850008C849B84AA84B984C884DF80EE80FD8058
:101860000C811B81AA81B981CE0FD11D0FB6F894CE
:0E187000DEBF0FBECDBFED010895F894FFCF8F
:10187E000000013F00000000EF00002527051009C1
:10188E003A784D05180D383A1F001F1A180A0F0620
:10189E004587320A070207050000010000000A8290
:1018AE00270000260800353E00001B003062003085
:1018BE0078002564004465636F64696E6720736504
:1018CE00676D656E742074686174206973200020E2
:1018DE006279746573206C6F6E672E0A0A00436F0F
:1018EE006E74726F6C204279746520313A20000A52
:1018FE00436F6E74726F6C204279746520323A2099
:10190E00000A5365676D656E743A2000206F66207D
:10191E00000A536F7572636520506F72743A20001F
:10192E000A4465737420506F72743A20000A4D6534
:10193E007373616765204C656E6774683A20000AA0
:10194E004D6573736167653A20000A4352433A202E
:10195E00000A5365676D656E742056616C69643A52
:10196E002000596573004E6F00496E697469616C91
:10197E006973696E672E2E2E0A0A002063686172E3
:10198E006163746572206C6F6E67206D6573736131
:10199E0067652072656164733A0A000A0A0045722F
:1019AE00726F722073656E64696E67206D657373F6
:1019BE006167650048656C6C6F20576F726C6421AF
:1019CE0020546869732069732061207465737420D4
:1019DE006D657373616765207772697474656E20C7
:1019EE00627920446F6D696E6963204D61736B651A
:1019FE006C6C2061732070617274206F6620746845
:101A0E006520436F6D7075746572204E6574776FC7
:101A1E00726B7320636F75727365776F726B2E00C6
:101A2E0000000000000000000000000000000000A8
:101A3E000000000000000000000000000000000098
:101A4E000000000000000000000000000000000088
:101A5E000000000000000000000000000000000078
:101D9E00000000000000000000000000F000400104
:0A1DAE00000000000000FFFF00002D
:00000001FF
