:100000000C942C010C9441010C9441010C9441017D
:100010000C9441010C9441010C9441010C94410158
:100020000C9441010C9441010C9441010C94410148
:100030000C9441010C9441010C9441010C94410138
:100040000C9441010C9441010C9441010C94410128
:100050000C9441010C9441010C9441010C94410118
:100060000C9441010C9441010C9441010C94410108
:100070000C9441010C9441010C94410100000000DA
:100080000000005F00000003000300143E143E1453
:10009000242A7F2A124333086661364955225000CC
:1000A00005030000001C2241000041221C0014082E
:1000B0003E081408083E08080050300000080808F0
:1000C0000808006060000020100804023E51494505
:1000D0003E0004027F0042615149462241494936AF
:1000E0001814127F1027454545393E4949493201C8
:1000F000017109073649494936264949493E0036C2
:100100003600000056360000081422410014141472
:100110001414004122140802015109063E415955A8
:100120005E7E0909097E7F494949363E41414122A7
:100130007F4141413E7F494949417F090909013ECB
:100140004141493A7F0808087F00417F4100304023
:1001500040403F7F081422417F404040407F020CD6
:10016000027F7F0204087F3E4141413E7F09090929
:10017000061E2121215E7F09090976264949493257
:1001800001017F01013F4040403F1F2040201F7F71
:100190002010207F41221C2241070870080761516E
:1001A000494543007F41000002040810200000413F
:1001B0007F0004020102044040404040000102046C
:1001C0000020545454787F444444383844444444D0
:1001D000384444447F385454541804047E050508B8
:1001E0005454543C7F0804047800447D400020406F
:1001F000443D007F1028440000417F40007C04788B
:1002000004787C0804047838444444387C1414147A
:1002100008081414147C007C080404485454542026
:1002200004043F44443C4040207C1C2040201C3CB3
:100230004030403C44281028440C5050503C44640A
:10024000544C44000836414100007F0000414136D3
:10025000080002010204020011241FBECFEFD0E10A
:10026000DEBFCDBF17E0A0E0B1E0E8E5FBE002C0F3
:1002700005900D92AC3CB107D9F70E9477050C941C
:10028000AA050C940000129888EE93E02CE231E06D
:10029000F9013197F1F70197D9F7129A88EE93E0B7
:1002A0002CE231E0F9013197F1F70197D9F7149A6F
:1002B000139A159A10981198169A149888E288B98A
:1002C0001398139A149A149881E188B91398139A81
:1002D000149A88E592E02CE231E0F9013197F1F7C8
:1002E0000197D9F714988BEC88B91398139A149A3C
:1002F00091E098B91398139A149880EC88B91398E0
:10030000139A149A8091330188B91398139A8091A3
:10031000340188B91398139A149881EC88B913980A
:10032000139A149A80E188B91398139A149885EC5B
:1003300088B91398139A149A8091360188B9139842
:10034000139A8091370188B91398139A149886E309
:1003500088B91398139A149A88E488B91398139A51
:10036000149880EB88B91398139A149A8AE488B980
:100370001398139A149881EB88B91398139A149AC6
:100380008091390188B91398139A80913A0188B9FC
:100390001398139AEEE2F1E0149886EB88B913985B
:1003A000139A149A819188B91398139A41E0E23311
:1003B000F407C1F7149887EC88B91398139A149A24
:1003C00085EB88B91398139AEAE2F1E0149886EF66
:1003D00088B91398139A149A819188B91398139A2B
:1003E00081E0ED32F807C1F7149882EF88B91398CD
:1003F000139A149A18B81398139A149886E288B925
:100400001398139A149A98B91398139A14988AE324
:1004100088B91398139A149A85E588B91398139A92
:10042000EAE1F1E0149880EE88B91398139A149ACF
:10043000819188B91398139A41E0E932F407C1F722
:10044000EAE0F1E0149881EE88B91398139A149AAF
:10045000819188B91398139A81E0E931F807C1F7BF
:10046000E5E0F1E014988AE288B91398139A149A97
:10047000819188B91398139A41E0E930F407C1F7E4
:10048000E0E0F1E014988BE288B91398139A149A7B
:10049000819188B91398139A81E0E430F807C1F785
:1004A000149884E388B91398139A149A149884EBD7
:1004B00088B91398139A149A18B81398139A149821
:1004C00087EB88B91398139A149A87E088B9139820
:1004D000139A14988CE288B91398139A149A20E00E
:1004E00030E010C018B81398139A18B81398139ADC
:1004F000019641E080349407A9F72F5F3F4F203FDA
:10050000310519F080E090E0EDCF149889E288B9C8
:100510001398139A149A84EF91E02CE231E0F901D8
:100520003197F1F70197D9F7119A089585B7806847
:1005300085BF85B7806885BF8FE781B98FEF87B9A1
:100540000E94430108959C019093C3078093C207C2
:10055000149886E388B91398139A149A21153105D3
:1005600071F480EF90E09093BF078093BE0780E422
:1005700091E09093C1078093C00788E432C0213096
:10058000310571F480E491E09093BF078093BE073A
:1005900080EF90E09093C1078093C00788EE21C060
:1005A0002230310571F480EF90E09093BF07809383
:1005B000BE0780E491E09093C1078093C00788E86C
:1005C00010C02330310581F480E491E09093BF079F
:1005D0008093BE0780EF90E09093C1078093C0079F
:1005E00088E288B91398139A14988AE288B9139804
:1005F000139A149A18B81398139A18B81398139A50
:100600008091BE079091BF07019798B90196139802
:10061000139A815088B91398139A14988BE288B969
:100620001398139A149A18B81398139A18B8139821
:10063000139A8091C0079091C107019798B90196CC
:100640001398139A815088B91398139A0895EF92CA
:10065000FF920F931F93DF93CF93CDB7DEB7289709
:100660000FB6F894DEBF0FBECDBFF22F2983E32F64
:100670003A834B835C83362F6D83272F7E838F8352
:1006800098877801AB81BC81062F172F6F81788501
:1006900014988AE288B91398139A149AE8B91398AF
:1006A000139AF8B91398139AB8B91398139AA8B96A
:1006B0001398139A14988BE288B91398139A149A82
:1006C00028B91398139A38B91398139A78B91398CC
:1006D000139A68B91398139A14988CE288B91398EE
:1006E000139A149A2F2F3E2FC901AC010DC0F8B8F0
:1006F0001398139AE8B81398139A2F5F3F4F621715
:100700007307A8F74F5F5F4FA417B50710F0980164
:10071000F6CF28960FB6F894DEBF0FBECDBFCF91AF
:10072000DF911F910F91FF90EF900895EF92FF924C
:100730000F931F93DF93CF93CDB7DEB728970FB6F4
:10074000F894DEBF0FBECDBFF22F2983E32F3A838B
:100750004B835C83362F6D83272F7E838F8398870F
:10076000D8010B811C81E62EF72E6F8178851498B5
:100770008AE288B91398139A149AE8B91398139ACD
:10078000F8B91398139A18B91398139A08B91398CB
:10079000139A14988BE288B91398139A149A28B96B
:1007A0001398139A38B91398139A78B91398139A1F
:1007B00068B91398139A14988CE288B91398139A0D
:1007C000149A2F2F3E2FC901AC0114C011968C91A1
:1007D000119788B91398139A12968C91129788B929
:1007E00014961398139A2F5F3F4F6217730770F791
:1007F0004F5F5F4F0417150710F09701F6CF28964B
:100800000FB6F894DEBF0FBECDBFCF91DF911F9121
:100810000F91FF90EF9008950F931F93DF93CF9365
:10082000CDB7DEB728970FB6F894DEBF0FBECDBFA9
:100830001092C5071092C4071092C7071092C607FE
:10084000FE01319688E0DF011D928A95E9F78091DB
:10085000C0079091C10701970091CA071091CB077B
:100860002091BE073091BF0721503040422F3C837A
:100870002B8398878F8329813A815C816D817E816A
:1008800098850E94270328960FB6F894DEBF0FBE06
:10089000CDBFCF91DF911F910F9108954F925F923D
:1008A0007F928F929F92AF92BF92CF92DF92EF9200
:1008B000FF920F931F93CF93DF93982F2091C4073C
:1008C0003091C50744E0C42ED12CC20ED31E4090F7
:1008D000C6075090C7078A3081F41092C50710925E
:1008E000C40748E050E0440E551E5092C70740929E
:1008F000C607E8EFFFEF4E0E5F1E892F80528F353F
:1009000008F0A9C08201095F1F4F85E09802E0014D
:100910001124C452D04014988BE288B91398139ACA
:10092000149A58B81398139A48B81398139A18B988
:100930001398139A08B91398139AB090C807B091F6
:10094000C9079090CA07A090CB07A9019AE2792E17
:100950008CE2882E3BC0149878B81398139A149A96
:1009600058B91398139A48B91398139A58B9139809
:10097000139A48B91398139A149888B81398139A2D
:10098000149AFE018491B201A1E0E82EFF2418C060
:100990002A2F30E02E213F212115310511F49A2D07
:1009A00001C09B2F98B91398139A232B11F4992DFA
:1009B00001C09B2D98B91398139A6F5F7F4FAA0FB0
:1009C0000617170728F721964F5F5F4FC416D50605
:1009D00008F0C1CF14988AE288B91398139A149A30
:1009E00058B91398139A48B91398139A58B9139889
:1009F000139A48B91398139A14988CE288B91398EB
:100A0000139A149AC20107C0A8B81398139A98B8F9
:100A10001398139A019608171907B0F78091C40725
:100A20009091C50706969093C5078093C4072091BF
:100A3000BE073091BF078217930768F01092C50771
:100A40001092C4078091C6079091C70708969093AB
:100A5000C7078093C607DF91CF911F910F91FF9039
:100A6000EF90DF90CF90BF90AF909F908F907F904E
:100A70005F904F9008951F93CF93DF93EC0110E0A8
:100A800003C00E944E041F5FFE01E10FF11D808133
:100A90008823B9F7DF91CF911F9108950F931F938A
:100AA000DF93CF93CDB7DEB7C857D0400FB6F894D9
:100AB000DEBF0FBECDBFBC018E010F5F1F4FC8014F
:100AC00044E650E00E949B05FE01EB59FF4F108267
:100AD000C8010E943B05C858DF4F0FB6F894DEBF2F
:100AE0000FBECDBFCF91DF911F910F910895DF937E
:100AF000CF93CDB7DEB7C157D6400FB6F894DEBF5F
:100B00000FBECDBF0E94960283E090E00E94A30238
:100B10008CE391E00E943B05DE011196EDE4F1E0EB
:100B200081E796E001900D920197E1F7CE010196E1
:100B30000E944E05FFCFFB01DC014150504048F0C0
:100B400001900D920020C9F701C01D924150504004
:080B5000E0F70895F894FFCFCF
:100B58000000013F00000000EF00002527051009F4
:100B68003A784D05180D383A1F001F1A180A0F0653
:100B78004587320A070207050000010000000A82C3
:100B8800270000260800353E00001B00496E6974E6
:100B980069616C6973696E672E2E2E0A0042616363
:100BA8006F6E2073686F7274206C6F696E2C206B87
:100BB80069656C6261736120706F726368657474D3
:100BC800612070616E636574746120746F6E6775FF
:100BD80065207461696C2076656E69736F6E2E206E
:100BE800546F6E67756520616C6361747261207201
:100BF800756D7020636869636B656E20706F726BCA
:100C08002062656C6C792E205475726475636B650F
:100C18006E2062726573616F6C61206A65726B79B0
:100C2800206472756D737469636B2073686F727476
:100C3800206C6F696E20706F726B2063686F702014
:100C48006265656620726962732062616C6C2074EB
:100C58006970207475726B65792E2042656566200F
:100C680073706172652072696273206B6576696E54
:100C7800206C616E646A616567657220616C63618E
:100C88007472612E2050616E63657474612074659E
:100C98006E6465726C6F696E2068616D62757267EB
:100CA80065722C2073686F72742072696273206A8F
:100CB8006F776C206661746261636B20626565663C
:100CC800207269627320706F726B206C6F696E207E
:100CD80076656E69736F6E2E20436F772070696733
:100CE800207368616E6B2C2063617069636F6C613F
:100CF80020742D626F6E6520626565662072696278
:100D0800732073686F727420726962732072756DD4
:100D1800702E205461696C206A6F776C20636F773E
:100D2800207368616E6B6C65206261636F6E2C2046
:100D38007369726C6F696E20706963616E68612097
:100D48006672616E6B66757274657220706F72631D
:100D580068657474612066696C6574206D69676E76
:100D68006F6E2062726573616F6C6120706F726B59
:100D780020637570696D2073686F756C6465722E79
:100D8800205475726B6579206D6561746C6F61664E
:100D98002067726F756E6420726F756E642C2062A6
:100DA800726573616F6C612063617069636F6C61F8
:100DB800206B69656C626173612074656E6465722D
:100DC8006C6F696E206472756D737469636B2073E0
:100DD8007061726520726962732072756D70206D22
:100DE80065617462616C6C2E204D6561746C6F6115
:100DF8006620627269736B65742062726573616FD5
:100E08006C612C207368616E6B6C6520636170691E
:100E1800636F6C61207461696C2070616E636574C6
:100E280074612066696C6574206D69676E6F6E2EDB
:100E38002053616C616D692068616D207368616E13
:100E48006B6C65206B6576696E2062696C746F6E79
:100E5800672C2062726573616F6C6120636F772005
:100E68007475726B6579206B69656C62617361205A
:100E78007472692D746970207061737472616D6920
:100E88002E20506F726B2062656C6C7920627265DF
:100E980073616F6C6120666C616E6B2C2073617579
:100EA8007361676520706F726B206C6F696E207458
:100EB800656E6465726C6F696E2073686F756C64BB
:100EC8006572206261636F6E20706F726B20636859
:100ED80069636B656E20626565662072696273205E
:100EE80066696C6574206D69676E6F6E2E20506937
:100EF80063616E6861207368616E6B6C65207269EE
:100F0800626579652068616D6275726765722073C4
:100F180069726C6F696E2062696C746F6E672062AB
:100F2800656566207269627320706F726B206368F2
:100F38006F702073686F7274206C6F696E20706FA9
:100F48007263686574746120737472697020737455
:100F580065616B207368616E6B20737061726520C8
:100F6800726962732C2068616D20686F636B2074EE
:100F78002D626F6E652E204B69656C62617361200E
:100F880072756D7020627269736B65742073617518
:100F9800736167652C2070616E6365747461207479
:100FA80075726475636B656E20636869636B656EE3
:100FB8002066696C6574206D69676E6F6E206C6160
:100FC8006E646A61656765722074656E6465726CCB
:100FD8006F696E20706F726B2062656C6C7920731C
:100FE800686F756C64657220706F7263686574747D
:100FF800612062616C6C20746970206672616E6B2E
:101008006675727465722E204672616E6B667572B3
:101018007465722074656E6465726C6F696E2061A8
:101028006C636174726120737061726520726962A9
:10103800732076656E69736F6E2066696C657420BF
:101048006D69676E6F6E206A6F776C20666C616E73
:101058006B2070726F7363697574746F2073747228
:10106800697020737465616B2072696265796520A7
:101078007368616E6B207475726B657920706F721E
:101088006B20746F6E6775652E20436F726E656492
:101098002062656566206661746261636B206D65B8
:1010A80061746C6F616620636F772073686F727408
:1010B80020726962732062696C746F6E6720747540
:1010C800726B657920626565662070616E63657410
:1010D8007461206472756D737469636B20737472C4
:1010E800697020737465616B206B6576696E206327
:1010F8006875636B20646F6E65722E2048616D2081
:10110800686F636B20746F6E6775652073617573A4
:101118006167652C206C656265726B617320636F13
:1011280077207475726475636B656E206A6F776C6F
:101138002070616E6365747461207461696C2062EB
:101148006565662072696273207368616E6B6C6591
:101158002063617069636F6C612E20426F756469EA
:101168006E2070696720627269736B65742074728F
:10117800692D74697020706F726B206C6F696E20B6
:10118800626565662C2062616C6C207469702063EE
:101198006875636B2070616E636574746120737722
:1011A800696E65206B6576696E20636F726E656423
:1011B8002062656566207368616E6B6C6520736874
:1011C8006F756C6465722E20537472697020737425
:1011D80065616B2068616D62757267657220636F07
:1011E80077206261636F6E20636F726E6564206240
:1011F8006565662073616C616D692062656566204E
:1012080072696273207472692D7469702E00F0001F
:0C1218004001000000000000FFFF00008B
:00000001FF
