:100000000C943E000C945B000C945B000C945B0021
:100010000C945B000C945B000C945B000C945B00F4
:100020000C945B000C945B000C945B000C945B00E4
:100030000C945B000C947B000C945B000C945B00B4
:100040000C945B000C945B000C945B000C945B00C4
:100050000C945B000C945B000C945B000C945B00B4
:100060000C945B000C945B000C945B000C945B00A4
:100070000C945B000C945B000C945B0011241FBE7D
:10008000CFEFD0E1DEBFCDBF12E0A0E0B1E0E4EA07
:10009000F1E102C005900D92AA3DB107D9F712E037
:1000A000AAEDB2E001C01D92AE3DB107E1F70E949A
:1000B0005A050C94D0080C9400008FB7F894209146
:1000C000DA023091DB024091DC025091DD028FBFF9
:1000D000B901CA0108958AE0809381008BED95E013
:1000E0009093890080938800EFE6F0E08081826041
:1000F0008083789408951F920F920FB60F92112467
:100100008F939F93AF93BF93F8948091DA0290916D
:10011000DB02A091DC02B091DD020196A11DB11DB0
:100120008093DA029093DB02A093DC02B093DD02AD
:100130007894BF91AF919F918F910F900FBE0F90C8
:100140001F9018951092C5008DE48093C40088E13B
:100150008093C10086E08093C20008958091C00022
:1001600087FFFCCF8091C6000895982F8091C00032
:1001700085FFFCCF9093C6000895FC0107C08091D5
:10018000C00085FFFCCF9093C600319690819923E3
:10019000B1F70895DC01262F30E0240F311D0AC08D
:1001A000EA0FFB1F40818091C00085FFFCCF409388
:1001B000C6006F5FE62FF0E0E217F3078CF30895B7
:1001C000DF93CF93CDB7DEB728970FB6F894DEBF95
:1001D0000FBECDBFFE01319627E030E0482F50E042
:1001E00070E361E3CA01022E02C0959587950A94D7
:1001F000E2F780FF02C0608301C07083215030406D
:1002000031968FEF2F3F380769F780E091E00E9429
:10021000BD00CE01019660E048E00E94CA00289629
:100220000FB6F894DEBF0FBECDBFCF91DF9108951A
:1002300080E090E00895FB012FB7F8948091DA02F6
:100240009091DB02A091DC02B091DD022FBF8151C1
:100250009742A040B04010F180E8808381E4818320
:100260008FEF828383838CE0848388E4858385E6B3
:1002700086839CE6978390872FE6218780E282879A
:1002800087E58387248782E78587968784E6878743
:1002900081E2808B88E9818B83EE828B80E090E025
:1002A0000895FC0120E030E0A1E2B0E116C08081B9
:1002B000992787FD9095982F88272827392748E088
:1002C000C901880F991F37FF04C09C012A273B27CB
:1002D00001C09C014150A1F731966150704077FFF9
:1002E000E6CFC9010895EF92FF920F931F93CF932A
:1002F000DF93DC01E901F701808186FF03C081E023
:100300008C9301C01C92808185FF04C081E0DB01D9
:100310008C9302C0DB011C92808184FF04C081E0C9
:10032000DA018C9302C0DA011C92188243E050E09B
:1003300061E070E09B01042E02C0220F331F0A947B
:10034000E2F78081992787FD909528233923220F92
:10035000331F220F331F3881322B388341505040D6
:10036000BFEF4F3F5B0731F78181992787FD90955C
:100370008078907066E0959587956A95E1F7232FD0
:10038000282B28838181992787FD90958074907010
:1003900056E0959587955A95E1F7282B288381811A
:1003A0008F73F8018083DF91CF911F910F91FF90A0
:1003B000EF900895EF92FF920F93F70130E082954E
:1003C000880F880F807C80686295660F607E682B3E
:1003D0004295407F462B80E0482BC9019595879533
:1003E00095958795482B40830F73B6E0220F331FF6
:1003F000BA95E1F7022B80E0802B81830F91FF906B
:10040000EF9008950F931F93FB01E00FF11FDC01A4
:10041000A40FB11D40E050E030E004C081918D9305
:100420004F5F5F4F42175307CCF31F910F91089511
:100430008F929F92AF92BF92CF92DF92EF92FF92F4
:100440000F931F93DF93CF93CDB7DEB76B017C0182
:100450008DB69EB6042F10E0000F111F8DB79EB70A
:10046000801B910B0FB6F8949EBF0FBE8DBFADB62B
:10047000BEB60894A11CB11CEDB7FEB7E00FF11F8A
:1004800040E050E020E030E016C0D701C601022E67
:1004900004C0B695A795979587950A94D2F78F7063
:1004A0008A3010F0895A01C0805D80834F5F5F4FB2
:1004B00031972C5F3F4F401751073CF383E091E0A9
:1004C0000E94BD00C50160E0402F0E94CA000FB627
:1004D000F8949EBE0FBE8DBECF91DF911F910F91FC
:1004E000FF90EF90DF90CF90BF90AF909F908F9054
:1004F00008950F931F93DF93CF93CDB7DEB728975F
:100500000FB6F894DEBF0FBECDBF2DB73EB7285053
:1005100030400FB6F8943EBF0FBE2DBFEDB7FEB70B
:1005200031968E010F5F1F4FADB7BEB712961C9369
:100530000E93119728E030E03383228326E031E0E8
:1005400035832483978386830E94EB052DB73EB7BE
:10055000285F3F4F0FB6F8943EBF0FBE2DBFC801B6
:100560000E94BD0028960FB6F894DEBF0FBECDBF27
:10057000CF91DF911F910F910895CF92DF92EF926B
:10058000FF920F931F93DF93CF9300D000D00F9271
:10059000CDB7DEB76C01CE010196BE016E5F7F4F15
:1005A000AE014D5F5F4F9E012C5F3F4F8E010B5F91
:1005B0001F4F76010E94730189E091E00E94BD0007
:1005C000F60101900020E9F73197CF018C199D09C0
:1005D0000E94790287E291E00E94BD0084E391E0ED
:1005E0000E94BD00F60180810E94E00089E491E054
:1005F0000E94BD00F60181810E94E0008CE591E03F
:100600000E94BD008C8190E00E94790288E691E012
:100610000E94BD008D8190E00E9479028DE691E0FC
:100620000E94BD00F6016281772767FD7095872FD4
:10063000972F41E00E9418028DE791E00E94BD00D3
:10064000F6016381772767FD7095872F972F41E02B
:100650000E9418028BE891E00E94BD00F60184819F
:10066000992787FD90950E9479028EE991E00E947A
:10067000BD00D6010D900020E9F7AC19BD0918970F
:1006800090E00AC0EC0DFD1D25818091C00085FF22
:10069000FCCF2093C6009F5FE92FF0E0EA17FB072D
:1006A00088F38AEA91E00E94BD00F60101900020E3
:1006B000E9F73197EC19FD09EC0DFD1D3297019119
:1006C000112707FD1095102F0027808190E0082B3F
:1006D000192BB80180E090E042E00E94180282EB02
:1006E00091E00E94BD00D6010D900020E9F7AC1901
:1006F000BD091397C601BD010E94510108171907D2
:1007000019F484EC91E002C088EC91E00E94BD00F5
:100710000F900F900F900F900F90CF91DF911F913E
:100720000F91FF90EF90DF90CF9008952F923F921E
:100730004F925F926F927F928F929F92AF92BF92F1
:10074000CF92DF92EF92FF920F931F93DF93CF939D
:10075000CDB7DEB7E3970FB6F894DEBF0FBECDBFBF
:100760006B018FB7F8946090DA027090DB02809092
:10077000DC029090DD028FBF8BEC91E00E94BD0007
:1007800080E090E00E9479028FED91E00E94BD0030
:10079000F2E0AF2EB12CAC0EBD1EE4E32E2E312CB8
:1007A0002C0E3D1E2E010894411C511C8FB7F8944D
:1007B000E090DA02F090DB020091DC021091DD02A1
:1007C0008FBFE618F70808091909F5011192E2151B
:1007D000F305E1F7C201B5010E941B018A8188235C
:1007E00031F181EE91E00E94BD00C5010E94BD0281
:1007F000D6010D900020E9F79D01215030402C19C1
:100800003D0950E040E00AC0F601EA0FFB1FAA0DC7
:10081000BB1D90818C91981351E04F5FA42FB0E0E5
:10082000A217B30788F3552349F480E016C0C70127
:100830000E9479028FED91E00E94BD00B9EEEB16A7
:10084000B3E0FB06B0E00B07B0E01B0708F4AECF47
:100850008AEF91E00E94BD0081E0E3960FB6F89424
:10086000DEBF0FBECDBFCF91DF911F910F91FF90E3
:10087000EF90DF90CF90BF90AF909F908F907F9040
:100880006F905F904F903F902F9008952F923F92DE
:100890004F925F926F927F928F929F92AF92BF9290
:1008A000CF92DF92EF92FF920F931F93DF93CF933C
:1008B000CDB7DEB7C452D1400FB6F894DEBF0FBE3D
:1008C000CDBFCD5DDE4F8883C352D140462F272F49
:1008D000FE01319682E291E0DF01BC011D92615080
:1008E0007040E1F7E42FF22FDF010D900020E9F7CF
:1008F0007D010894E108F108EE1AFF0AC70162E3DE
:1009000070E00E94D705362E82E3689FC001112453
:100910008E159F0508F43394842F922F9C01390182
:10092000A3E08A2E912C8C0E9D1E22242394CC248D
:10093000DD24432C55240894410851084E0DCC5D0C
:10094000DE4F4883C452D14095C0EAE3F0E0CE9E2A
:100950005001CF9EB00CDE9EB00C112461E070E01F
:100960006C0F7D1FA60EB71E2F5F80E060E040E099
:10097000032D75010E94DA01C414D50411F002E3BD
:1009800006C0CC5DDE4F0881C452D1400619EFEF9E
:10099000D401EC93FFEF1196FC93119712960C93F0
:1009A0002AE330E0C29EF001C39EF00DD29EF00D0E
:1009B0001124359661E070E06C0F7D1FE60FF71F84
:1009C000D30120E030E0E02EFF2404C08D9181931C
:1009D0002F5F3F4F2E153F05CCF387010B5F1F4F55
:1009E000C501B8010E945101AAE3B0E0CA9EF0011E
:1009F000CB9EF00DDA9EF00D11240E0F1F1F21E08B
:100A000030E02C0F3D1F020F131FD8019C93E20F03
:100A1000F31FEE0DFF1D8683C5010E94BD028AEF04
:100A200091E015C08DEF91E00E94BD0081E192E060
:100A30000E94BD00CD5DDE4F8881C352D140B5011B
:100A40000E949603282E882321F08DE392E00E94D5
:100A5000BD00222039F784E692E00E94BD00089490
:100A6000C11CD11CE2E3F0E06E0E7F1E2AE330E0F1
:100A7000820E931E2C2DC31408F467CF80E090E003
:100A8000CC5DDE4F0FB6F894DEBF0FBECDBFCF9169
:100A9000DF911F910F91FF90EF90DF90CF90BF906B
:100AA000AF909F908F907F906F905F904F903F900E
:100AB0002F9008950F931F93DF93CF93CDB7DEB799
:100AC000C85ED3400FB6F894DEBF0FBECDBF109204
:100AD000C5008DE48093C40088E18093C10086E066
:100AE0008093C2008AE0809381008BED95E0909323
:100AF00089008093880080916F00826080936F00EE
:100B0000789486E792E00E94BD008E010F5F1F4F30
:100B100088EE93E0F8019C01119221503040E1F7FA
:100B200082E992E00E94BD0040E050E0D80168EB0D
:100B30007BE08091C00087FFFCCF2091C600822F10
:100B400080528F3560F48091C00085FFFCCF2093E8
:100B5000C600FD01E40FF51F20834F5F5F4FCB01FF
:100B60000197F1F72D3029F78AEF91E00E94BD003F
:100B70008E010F5F1F4FF80101900020E9F73197B8
:100B8000CF01801B910B0E94790282EA92E00E94C1
:100B9000BD00C8010E94BD0084E4B8010E94460463
:100BA000892B21F083EC92E00E94BD00FFCFAA1BAD
:100BB000BB1B51E107C0AA1FBB1FA617B70710F048
:100BC000A61BB70B881F991F5A95A9F7809590957A
:100BD000BC01CD010895AEE0B0E0E1EFF5E00C948A
:100BE000A7080D891E898F89988D97FF02C080E024
:100BF00090E801979E838D831A83098386E08C8316
:100C00009E01255E3F4FCE010196698D7A8DA90127
:100C10000E941C064D815E8157FD0AC02F813885D8
:100C2000421753070CF49A01020F131FF8011082A8
:100C30002E96E4E00C94C308ABE0B0E0E2E2F6E00C
:100C40000C9499083C012B015A01FC011782168271
:100C5000838181FD03C06FEF7FEFC6C19AE0892ECB
:100C60001E010894211C311CF3012381F20123FD94
:100C7000859123FF81912F01882309F4B2C1853228
:100C800039F423FD859123FF81912F01853229F4C9
:100C900090E0B3010E940F08E7CF982FFF24EE24C5
:100CA0009924FFE1FF15D0F09B3269F09C3228F4C3
:100CB000903259F0933291F40EC09D3249F0903346
:100CC00069F441E024C052E0F52A84E0F82A28C003
:100CD00098E0F92A25C0E0E1FE2A22C0F7FC29C0ED
:100CE000892F80538A3070F4F6FE05C0989C902CB2
:100CF0001124980E15C0E89CE02C1124E80EF0E2B7
:100D0000FF2A0EC09E3229F4F6FC6BC140E4F42A9F
:100D100007C09C3619F450E8F52A02C0983649F409
:100D2000F20123FD959123FF91912F01992309F061
:100D3000B8CF892F8554833018F08052833038F42F
:100D400044E050E0A40EB51E5FE359830FC0933614
:100D500031F0933779F0933509F056C020C0F50192
:100D60008081898342E050E0A40EB51E610101E05C
:100D700010E012C0F501C080D180F6FC03C06FEF17
:100D80007FEF02C0692D70E042E050E0A40EB51E76
:100D9000C6010E9404088C015FE7F52214C0F5012A
:100DA000C080D180F6FC03C06FEF7FEF02C0692DD9
:100DB00070E042E050E0A40EB51EC6010E94F907A3
:100DC0008C0150E8F52AF3FE07C01AC080E290E0DB
:100DD000B3010E940F08EA948E2D90E008171907BE
:100DE000A8F30EC0F601F7FC8591F7FE81916F0123
:100DF00090E0B3010E940F08E110EA940150104006
:100E00000115110579F7EAC0943611F0993669F5A4
:100E1000F7FE08C0F501208131814281538184E0D1
:100E200090E00AC0F501808191819C01442737FD43
:100E30004095542F82E090E0A80EB91E9FE6F9225B
:100E400057FF09C050954095309521953F4F4F4F22
:100E50005F4FE0E8FE2ACA01B901A1012AE030E0B3
:100E60000E943B08D82ED21840C0953729F41F2D78
:100E70001F7E2AE030E01DC01F2D197F9F3661F0D4
:100E8000903720F4983509F0ACC00FC0903739F096
:100E9000983709F0A6C004C028E030E00AC010610D
:100EA00014FD146020E130E004C014FD166020E160
:100EB00032E017FF08C0F501608171818281938162
:100EC00044E050E008C0F50180819181BC0180E0E0
:100ED00090E042E050E0A40EB51EA1010E943B0844
:100EE000D82ED2188FE7F82EF122F6FE0BC05EEF57
:100EF000F522D91438F4F4FE07C0F2FC05C08FEED9
:100F0000F82202C01D2D01C0192DF4FE0DC0FE01F6
:100F1000ED0DF11D8081803319F499EEF92208C09E
:100F20001F5FF2FE05C003C08F2D867809F01F5F9A
:100F30000F2DF3FC14C0F0FE0FC01E1510F09D2CF9
:100F40000BC09D2C9E0C911A1E2D06C080E290E0D5
:100F5000B3010E940F081F5F1E15C0F304C01E15C9
:100F600010F4E11A01C0EE2404FF0FC080E390E00A
:100F7000B3010E940F0802FF1DC001FD03C088E7F6
:100F800090E00EC088E590E00BC0802F867891F04D
:100F900001FF02C08BE201C080E2F7FC8DE290E02D
:100FA000B3010E940F0806C080E390E0B3010E94E5
:100FB0000F089A94D914C0F3DA94F101ED0DF11DE4
:100FC000808190E0B3010E940F08DD20A9F706C0E0
:100FD00080E290E0B3010E940F08EA94EE20C1F78E
:100FE00043CEF30166817781CB012B96E2E10C942D
:100FF000B508FC010590615070400110D8F780954C
:1010000090958E0F9F1F0895FC01615070400190D4
:101010000110D8F7809590958E0F9F1F08950F931C
:101020001F93CF93DF938C01EB018B8181FF1BC05A
:1010300082FF0DC02E813F818C819D812817390749
:1010400064F4E881F9810193F983E88306C0E885B7
:10105000F985802F0995892B31F48E819F81019626
:101060009F838E8302C00FEF1FEFC801DF91CF91E6
:101070001F910F910895FA01AA27283051F12031CC
:1010800081F1E8946F936E7F6E5F7F4F8F4F9F4F1C
:10109000AF4FB1E03ED0B4E03CD0670F781F891F5E
:1010A0009A1FA11D680F791F8A1F911DA11D6A0F2C
:1010B000711D811D911DA11D20D009F468943F91DF
:1010C0002AE0269F11243019305D3193DEF6CF01DE
:1010D0000895462F4770405D4193B3E00FD0C9F7A4
:1010E000F6CF462F4F70405D4A3318F0495D31FD11
:1010F0004052419302D0A9F7EACFB4E0A695979564
:10110000879577956795BA95C9F700976105710539
:1011100008959B01AC010A2E069457954795379583
:101120002795BA95C9F7620F731F841F951FA01DDD
:1011300008952F923F924F925F926F927F928F927B
:101140009F92AF92BF92CF92DF92EF92FF920F9356
:101150001F93CF93DF93CDB7DEB7CA1BDB0B0FB660
:10116000F894DEBF0FBECDBF09942A88398848881D
:101170005F846E847D848C849B84AA84B984C884B3
:10118000DF80EE80FD800C811B81AA81B981CE0FAA
:10119000D11D0FB6F894DEBF0FBECDBFED0108958F
:0411A000F894FFCFF1
:1011A4003062003078002564000D0A0D0A4465633E
:1011B4006F64696E67207365676D656E742074680B
:1011C40061742069732000206279746573206C6FE8
:1011D4006E672E000D0A0D0A436F6E74726F6C20D9
:1011E4004279746520313A20000D0A436F6E74729F
:1011F4006F6C204279746520323A20000D0A5365E1
:10120400676D656E743A2000206F6620000D0A53E6
:101214006F7572636520506F72743A20000D0A4432
:1012240065737420506F72743A20000D0A4D657313
:1012340073616765204C656E6774683A20000D0A17
:101244004D6573736167653A20000D0A4352433A52
:1012540020000D0A5365676D656E742056616C69D4
:10126400643A2000596573004E6F0054696D65201F
:1012740077616974656420286D73293A0D0A000D3D
:10128400000D0A0D0A526563656976696E672073FD
:1012940065676D656E742E2E2E000D0A000D0A0D05
:1012A4000A53656E64696E67207365676D656E7455
:1012B400000D0A5365676D656E742073656E742C3A
:1012C4002077616974696E67206F6E2061636B6E4D
:1012D4006F776C6564676D656E740D0A000D0A4E58
:1012E4006F2061636B6E6F776C6564676D656E7498
:1012F4002C20726573656E64696E67207365676D13
:10130400656E74000D0A0D0A41636B6E6F776C6530
:10131400646765642E000D0A0D0A0D0A0D0A496EF4
:10132400697469616C6973696E672E2E2E0D0A0DDE
:101334000A00456E746572206D6573736167653A62
:10134400200020636861726163746572206C6F6E43
:1013540067206D6573736167652072656164733AB4
:101364000D0A004572726F722073656E64696E6750
:0A137400206D65737361676500006A
:00000001FF
