:100000000C943E000C945B000C945B000C945B0021
:100010000C945B000C945B000C945B000C945B00F4
:100020000C945B000C945B000C945B000C945B00E4
:100030000C945B000C947B000C945B000C945B00B4
:100040000C945B000C945B000C945B000C945B00C4
:100050000C945B000C945B000C945B000C945B00B4
:100060000C945B000C945B000C945B000C945B00A4
:100070000C945B000C945B000C945B0011241FBE7D
:10008000CFEFD0E1DEBFCDBF16E0A0E0B1E0E0ED04
:10009000FEE002C005900D92AA31B107D9F716E033
:1000A000AAE1B6E001C01D92AE31B107E1F70E94AE
:1000B000DB030C9466070C9400008FB7F894209132
:1000C0001A0630911B0640911C0650911D068FBFE9
:1000D000B901CA0108958AE0809381008BED95E013
:1000E0009093890080938800EFE6F0E08081826041
:1000F0008083789408951F920F920FB60F92112467
:100100008F939F93AF93BF93F89480911A06909129
:100110001B06A0911C06B0911D060196A11DB11DE4
:1001200080931A0690931B06A0931C06B0931D069D
:100130007894BF91AF919F918F910F900FBE0F90C8
:100140001F9018951092C5008DE48093C40088E13B
:100150008093C10086E08093C20008958091C00022
:1001600087FFFCCF8091C6000895982F8091C00032
:1001700085FFFCCF9093C6000895FC0107C08091D5
:10018000C00085FFFCCF9093C600319690819923E3
:10019000B1F70895DC01262F30E0240F311D0AC08D
:1001A000EA0FFB1F40818091C00085FFFCCF409388
:1001B000C6006F5FE62FF0E0E217F3078CF30895B7
:1001C000DF93CF93CDB7DEB728970FB6F894DEBF95
:1001D0000FBECDBFFE01319627E030E0482F50E042
:1001E00070E361E3CA01022E02C0959587950A94D7
:1001F000E2F780FF02C0608301C07083215030406D
:1002000031968FEF2F3F380769F780E091E00E9429
:10021000BD00CE01019660E048E00E94CA00289629
:100220000FB6F894DEBF0FBECDBFCF91DF9108951A
:1002300080E090E00895FC0120E030E0A1E2B0E130
:1002400016C08081992787FD9095982F88272827A9
:10025000392748E0C901880F991F37FF04C09C0166
:100260002A273B2701C09C014150A1F731966150DC
:10027000704077FFE6CFC9010895EF92FF920F9388
:100280001F93CF93DF93DC01E901F701808186FFA3
:1002900003C081E08C9301C01C92808185FF04C063
:1002A00081E0DB018C9302C0DB011C92808184FF22
:1002B00004C081E0DA018C9302C0DA011C9218823A
:1002C00043E050E061E070E09B01042E02C0220F89
:1002D000331F0A94E2F78081992787FD90952823A0
:1002E0003923220F331F220F331F3881322B3883DB
:1002F00041505040BFEF4F3F5B0731F78181992755
:1003000087FD90958078907066E0959587956A95C1
:10031000E1F7232F282B28838181992787FD90954A
:100320008074907056E0959587955A95E1F7282B43
:10033000288381818F73F8018083DF91CF911F9192
:100340000F91FF90EF900895EF92FF920F93F701B6
:1003500030E08295880F880F807C80686295660FF8
:10036000607E682B4295407F462B80E0482BC90178
:100370009595879595958795482B40830F73B6E0A3
:10038000220F331FBA95E1F7022B80E0802B818387
:100390000F91FF90EF900895DC01A40FB11D40E094
:1003A00050E030E007C0FB01E40FF51F80818D9322
:1003B0004F5F5F4F42175307B4F308958F929F9298
:1003C000AF92BF92CF92DF92EF92FF920F931F9363
:1003D000DF93CF93CDB7DEB76B017C018DB69EB6B0
:1003E000042F10E0000F111F8DB79EB7801B910BDB
:1003F0000FB6F8949EBF0FBE8DBFADB6BEB60894C3
:10040000A11CB11CEDB7FEB7E00FF11F40E050E0BA
:1004100020E030E016C0D701C601022E04C0B69518
:10042000A795979587950A94D2F78F708A3010F028
:10043000895A01C0805D80834F5F5F4F31972C5F89
:100440003F4F401751073CF383E091E00E94BD000D
:10045000C50160E0402F0E94CA000FB6F8949EBE0E
:100460000FBE8DBECF91DF911F910F91FF90EF9046
:10047000DF90CF90BF90AF909F908F9008950F9393
:100480001F93DF93CF93CDB7DEB728970FB6F894BD
:10049000DEBF0FBECDBF2DB73EB7285030400FB6E0
:1004A000F8943EBF0FBE2DBFEDB7FEB731968E015B
:1004B0000F5F1F4FADB7BEB712961C930E931197E7
:1004C00028E030E03383228326E031E03583248343
:1004D000978386830E9481042DB73EB7285F3F4FE4
:1004E0000FB6F8943EBF0FBE2DBFC8010E94BD00DD
:1004F00028960FB6F894DEBF0FBECDBFCF91DF9127
:100500001F910F910895CF92DF92EF92FF920F9378
:100510001F93DF93CF9300D000D00F92CDB7DEB7FB
:100520006C01CE010196BE016E5F7F4FAE014D5F43
:100530005F4F9E012C5F3F4F8E010B5F1F4F760177
:100540000E943D0189E091E00E94BD00F60101900A
:100550000020E9F73197CF018C199D090E943F02D5
:1005600083E291E00E94BD0084E391E00E94BD001F
:10057000F60180810E94E00085E491E00E94BD00C8
:10058000F60181810E94E00088E591E00E94BD00B3
:100590008C8190E00E943F0284E691E00E94BD00C1
:1005A0008D8190E00E943F0289E691E00E94BD00AB
:1005B000F6016281772767FD7095872F972F41E0BD
:1005C0000E94DE0189E791E00E94BD00F60163818F
:1005D000772767FD7095872F972F41E00E94DE01F6
:1005E00087E891E00E94BD00F6018481992787FD8C
:1005F00090950E943F028AE991E00E94BD00D601D9
:100600000D900020E9F7AC19BD09139795E00AC0D9
:10061000EC0DFD1D20818091C00085FFFCCF209353
:10062000C6009F5FE92FF0E0EA17FB0788F386EA30
:1006300091E00E94BD00F60101900020E9F731979A
:10064000EC19FD09EC0DFD1D32970191112707FDF5
:100650001095102F0027808190E0082B192BB801EE
:1006600080E090E042E00E94DE018EEA91E00E948C
:10067000BD00D6010D900020E9F7AC19BD09139714
:10068000C601BD010E941B010817190719F480EC6F
:1006900091E002C084EC91E00E94BD000F900F90A9
:1006A0000F900F900F90CF91DF911F910F91FF90BE
:1006B000EF90DF90CF9008959F92AF92BF92CF922C
:1006C000DF92EF92FF920F931F93DF93CF93CDB7FB
:1006D000DEB7C456D0400FB6F894DEBF0FBECDBF14
:1006E000162F972E5E010894A11CB11C84E6D5013B
:1006F0001D928A95E9F7E62FF72FDF010D90002074
:10070000E9F76D010894C108D108CE1ADF0A80E02C
:1007100060E040E021E001E075010E94A401BCE03E
:10072000CB16D10410F00CE001C00C2D8FEF8B83A1
:100730008C830D83212F392DC901DC01FE013196F7
:10074000E02EFF240894E11CF11C6F019F012E0D87
:100750003F1D0894E108F10802C08D918483319611
:10076000E217F307D1F787010B5F1F4FC501B801EF
:100770000E941B010C0D1D1DF8019083EC0EFD1E47
:10078000D70117968C93C5010E94830280E090E008
:10079000CC59DF4F0FB6F894DEBF0FBECDBFCF915F
:1007A000DF911F910F91FF90EF90DF90CF90BF905E
:1007B000AF909F9008950F931F93DF93CF93CDB782
:1007C000DEB7C85ED3400FB6F894DEBF0FBECDBF14
:1007D0001092C5008DE48093C40088E18093C1002D
:1007E00086E08093C2008AE0809381008BED95E0E3
:1007F000909389008093880080916F00826080933D
:100800006F00789487EC91E00E94BD00DE011196A4
:10081000E2E3F2E08CE601900D928150E1F78CE783
:1008200093E0FE01E359FF4FDF019C011D9221502F
:100830003040E1F78E010F5F1F4FF801019000205B
:10084000E9F73197CF01801B910B0E943F028FED9A
:1008500091E00E94BD00C8010E94BD0080E092E0CE
:100860000E94BD0084E4B8010E945C03892B21F042
:1008700085E092E00E94BD008BE192E00E94BD0005
:1008800088EA91E62CE231E0F9013197F1F701971E
:10089000D9F72FB7F89460911A0670911B068091D2
:1008A0001C0690911D062FBF28EE33E040E050E07B
:1008B0000E945F04DA01C9010E943F02FFCFA1E25A
:1008C0001A2EAA1BBB1BFD010DC0AA1FBB1FEE1FCA
:1008D000FF1FA217B307E407F50720F0A21BB30B15
:1008E000E40BF50B661F771F881F991F1A9469F791
:1008F00060957095809590959B01AC01BD01CF01ED
:100900000895AEE0B0E0E7E8F4E00C943D070D890F
:100910001E898F89988D97FF02C080E090E801972B
:100920009E838D831A83098386E08C839E01255ED6
:100930003F4FCE010196698D7A8DA9010E94B204C4
:100940004D815E8157FD0AC02F81388542175307BC
:100950000CF49A01020F131FF80110822E96E4E0A6
:100960000C945907ABE0B0E0E8EBF4E00C942F07EF
:100970003C012B015A01FC0117821682838181FD03
:1009800003C06FEF7FEFC6C19AE0892E1E01089465
:10099000211C311CF3012381F20123FD859123FFEA
:1009A00081912F01882309F4B2C1853239F423FDE6
:1009B000859123FF81912F01853229F490E0B301C5
:1009C0000E94A506E7CF982FFF24EE249924FFE18B
:1009D000FF15D0F09B3269F09C3228F4903259F028
:1009E000933291F40EC09D3249F0903369F441E0A6
:1009F00024C052E0F52A84E0F82A28C098E0F92AB9
:100A000025C0E0E1FE2A22C0F7FC29C0892F8053CF
:100A10008A3070F4F6FE05C0989C902C1124980E34
:100A200015C0E89CE02C1124E80EF0E2FF2A0EC06D
:100A30009E3229F4F6FC6BC140E4F42A07C09C36D0
:100A400019F450E8F52A02C0983649F4F20123FD62
:100A5000959123FF91912F01992309F0B8CF892F08
:100A60008554833018F08052833038F444E050E0ED
:100A7000A40EB51E5FE359830FC0933631F0933750
:100A800079F0933509F056C020C0F5018081898343
:100A900042E050E0A40EB51E610101E010E012C07A
:100AA000F501C080D180F6FC03C06FEF7FEF02C07C
:100AB000692D70E042E050E0A40EB51EC6010E9410
:100AC0009A068C015FE7F52214C0F501C080D18041
:100AD000F6FC03C06FEF7FEF02C0692D70E042E0CB
:100AE00050E0A40EB51EC6010E948F068C0150E88E
:100AF000F52AF3FE07C01AC080E290E0B3010E941D
:100B0000A506EA948E2D90E008171907A8F30EC0E9
:100B1000F601F7FC8591F7FE81916F0190E0B3013A
:100B20000E94A506E110EA9401501040011511053C
:100B300079F7EAC0943611F0993669F5F7FE08C0E6
:100B4000F501208131814281538184E090E00AC027
:100B5000F501808191819C01442737FD4095542FF8
:100B600082E090E0A80EB91E9FE6F92257FF09C067
:100B700050954095309521953F4F4F4F5F4FE0E89E
:100B8000FE2ACA01B901A1012AE030E00E94D10683
:100B9000D82ED21840C0953729F41F2D1F7E2AE089
:100BA00030E01DC01F2D197F9F3661F0903720F473
:100BB000983509F0ACC00FC0903739F0983709F07C
:100BC000A6C004C028E030E00AC0106114FD146023
:100BD00020E130E004C014FD166020E132E017FF90
:100BE00008C0F501608171818281938144E050E009
:100BF00008C0F50180819181BC0180E090E042E075
:100C000050E0A40EB51EA1010E94D106D82ED21824
:100C10008FE7F82EF122F6FE0BC05EEFF522D91415
:100C200038F4F4FE07C0F2FC05C08FEEF82202C0D3
:100C30001D2D01C0192DF4FE0DC0FE01ED0DF11D9D
:100C40008081803319F499EEF92208C01F5FF2FE0B
:100C500005C003C08F2D867809F01F5F0F2DF3FCB0
:100C600014C0F0FE0FC01E1510F09D2C0BC09D2C63
:100C70009E0C911A1E2D06C080E290E0B3010E94E6
:100C8000A5061F5F1E15C0F304C01E1510F4E11A5F
:100C900001C0EE2404FF0FC080E390E0B3010E9486
:100CA000A50602FF1DC001FD03C088E790E00EC04D
:100CB00088E590E00BC0802F867891F001FF02C09C
:100CC0008BE201C080E2F7FC8DE290E0B3010E946C
:100CD000A50606C080E390E0B3010E94A5069A94A1
:100CE000D914C0F3DA94F101ED0DF11D808190E08B
:100CF000B3010E94A506DD20A9F706C080E290E0BE
:100D0000B3010E94A506EA94EE20C1F743CEF30199
:100D100066817781CB012B96E2E10C944B07FC01B5
:100D20000590615070400110D8F7809590958E0F16
:100D30009F1F0895FC016150704001900110D8F789
:100D4000809590958E0F9F1F08950F931F93CF93BB
:100D5000DF938C01EB018B8181FF1BC082FF0DC0F3
:100D60002E813F818C819D812817390764F4E881A9
:100D7000F9810193F983E88306C0E885F985802F1E
:100D80000995892B31F48E819F8101969F838E83F3
:100D900002C00FEF1FEFC801DF91CF911F910F919C
:100DA0000895FA01AA27283051F1203181F1E89401
:100DB0006F936E7F6E5F7F4F8F4F9F4FAF4FB1E04E
:100DC0003ED0B4E03CD0670F781F891F9A1FA11D49
:100DD000680F791F8A1F911DA11D6A0F711D811D4A
:100DE000911DA11D20D009F468943F912AE0269F0F
:100DF00011243019305D3193DEF6CF010895462F6E
:100E00004770405D4193B3E00FD0C9F7F6CF462F4E
:100E10004F70405D4A3318F0495D31FD40524193B7
:100E200002D0A9F7EACFB4E0A69597958795779574
:100E30006795BA95C9F700976105710508959B01FB
:100E4000AC010A2E06945795479537952795BA9584
:100E5000C9F7620F731F841F951FA01D08952F925D
:100E60003F924F925F926F927F928F929F92AF923A
:100E7000BF92CF92DF92EF92FF920F931F93CF9387
:100E8000DF93CDB7DEB7CA1BDB0B0FB6F894DEBF1E
:100E90000FBECDBF09942A88398848885F846E8444
:100EA0007D848C849B84AA84B984C884DF80EE808E
:100EB000FD800C811B81AA81B981CE0FD11D0FB697
:100EC000F894DEBF0FBECDBFED010895F894FFCFBB
:100ED0003062003078002564004465636F64696E99
:100EE00067207365676D656E74207468617420692E
:100EF000732000206279746573206C6F6E672E0D0D
:100F00000A0D0A00436F6E74726F6C20427974652B
:100F100020313A20000D0A436F6E74726F6C2042CC
:100F200079746520323A20000D0A5365676D656E4D
:100F3000743A2000206F6620000D0A536F757263AB
:100F40006520506F72743A20000D0A446573742056
:100F5000506F72743A20000D0A4D657373616765B6
:100F6000204C656E6774683A20000D0A4D657373F6
:100F70006167653A20000D0A4352433A20000D0A8A
:100F80005365676D656E742056616C69643A200024
:100F9000596573004E6F000D0A0D0A496E69746938
:100FA000616C6973696E672E2E2E0D0A0D0A002082
:100FB000636861726163746572206C6F6E67206D27
:100FC0006573736167652072656164733A0D0A0029
:100FD0000D0A0D0A004572726F722073656E6469A6
:100FE0006E67206D657373616765000D0A546F74D9
:100FF000616C2074696D6520656C61707365643A1D
:10100000200048656C6C6F20576F726C642120540F
:1010100068697320697320612074657374206D653D
:101020007373616765207772697474656E20627985
:1010300020446F6D696E6963204D61736B656C6CE4
:101040002061732070617274206F6620746865205F
:10105000436F6D7075746572204E6574776F726B37
:101060007320636F75727365776F726B2E0000006B
:101070000000000000000000000000000000000070
:101080000000000000000000000000000000000060
:101090000000000000000000000000000000000050
:1010A0000000000000000000000000000000000040
:00000001FF
