:100000000C942C010C9449010C9449010C94490165
:100010000C9449010C9449010C9449010C94490138
:100020000C9449010C9449010C9449010C94490128
:100030000C9449010C9449010C9449010C94490118
:100040000C9449010C9449010C9449010C94490108
:100050000C9449010C9449010C9449010C944901F8
:100060000C9449010C9449010C9449010C944901E8
:100070000C9449010C9449010C94490100000000C2
:100080000000005F00000003000300143E143E1453
:10009000242A7F2A124333086661364955225000CC
:1000A00005030000001C2241000041221C0014082E
:1000B0003E081408083E08080050300000080808F0
:1000C0000808006060000020100804023E51494505
:1000D0003E0004027F0042615149462241494936AF
:1000E0001814127F1027454545393E4949493201C8
:1000F000017109073649494936264949493E0036C2
:100100003600000056360000081422410014141472
:100110001414004122140802015109063E415955A8
:100120005E7E0909097E7F494949363E41414122A7
:100130007F4141413E7F494949417F090909013ECB
:100140004141493A7F0808087F00417F4100304023
:1001500040403F7F081422417F404040407F020CD6
:10016000027F7F0204087F3E4141413E7F09090929
:10017000061E2121215E7F09090976264949493257
:1001800001017F01013F4040403F1F2040201F7F71
:100190002010207F41221C2241070870080761516E
:1001A000494543007F41000002040810200000413F
:1001B0007F0004020102044040404040000102046C
:1001C0000020545454787F444444383844444444D0
:1001D000384444447F385454541804047E050508B8
:1001E0005454543C7F0804047800447D400020406F
:1001F000443D007F1028440000417F40007C04788B
:1002000004787C0804047838444444387C1414147A
:1002100008081414147C007C080404485454542026
:1002200004043F44443C4040207C1C2040201C3CB3
:100230004030403C44281028440C5050503C44640A
:10024000544C44000836414100007F0000414136D3
:10025000080002010204020011241FBECFEFD0E10A
:10026000DEBFCDBF12E0A0E0B1E0E2EFF3E102C0FB
:1002700005900D92A839B107D9F712E0A8E9B2E0CC
:1002800001C01D92A43AB107E1F70E9402070C9445
:10029000F7090C940000129888EE93E02CE231E00C
:1002A000F9013197F1F70197D9F7129A88EE93E0A7
:1002B0002CE231E0F9013197F1F70197D9F7149A5F
:1002C000139A159A10981198169A149888E288B97A
:1002D0001398139A149A149881E188B91398139A71
:1002E000149A88E592E02CE231E0F9013197F1F7B8
:1002F0000197D9F714988BEC88B91398139A149A2C
:1003000091E098B91398139A149880EC88B91398CF
:10031000139A149A8091330188B91398139A809193
:10032000340188B91398139A149881EC88B91398FA
:10033000139A149A80E188B91398139A149885EC4B
:1003400088B91398139A149A8091360188B9139832
:10035000139A8091370188B91398139A149886E3F9
:1003600088B91398139A149A88E488B91398139A41
:10037000149880EB88B91398139A149A8AE488B970
:100380001398139A149881EB88B91398139A149AB6
:100390008091390188B91398139A80913A0188B9EC
:1003A0001398139AEEE2F1E0149886EB88B913984B
:1003B000139A149A819188B91398139A41E0E23301
:1003C000F407C1F7149887EC88B91398139A149A14
:1003D00085EB88B91398139AEAE2F1E0149886EF56
:1003E00088B91398139A149A819188B91398139A1B
:1003F00081E0ED32F807C1F7149882EF88B91398BD
:10040000139A149A18B81398139A149886E288B914
:100410001398139A149A98B91398139A14988AE314
:1004200088B91398139A149A85E588B91398139A82
:10043000EAE1F1E0149880EE88B91398139A149ABF
:10044000819188B91398139A41E0E932F407C1F712
:10045000EAE0F1E0149881EE88B91398139A149A9F
:10046000819188B91398139A81E0E931F807C1F7AF
:10047000E5E0F1E014988AE288B91398139A149A87
:10048000819188B91398139A41E0E930F407C1F7D4
:10049000E0E0F1E014988BE288B91398139A149A6B
:1004A000819188B91398139A81E0E430F807C1F775
:1004B000149884E388B91398139A149A149884EBC7
:1004C00088B91398139A149A18B81398139A149811
:1004D00087EB88B91398139A149A87E088B9139810
:1004E000139A14988CE288B91398139A149A20E0FE
:1004F00030E010C018B81398139A18B81398139ACC
:10050000019641E080349407A9F72F5F3F4F203FC9
:10051000310519F080E090E0EDCF149889E288B9B8
:100520001398139A149A84EF91E02CE231E0F901C8
:100530003197F1F70197D9F7119A089585B7806837
:1005400085BF85B7806885BF8FE781B98FEF87B991
:100550000E944B0108959C0190938E0280938D021E
:10056000149886E388B91398139A149A21153105C3
:1005700071F480EF90E090938A028093890280E486
:1005800091E090938C0280938B0288E432C02130FA
:10059000310571F480E491E090938A02809389029E
:1005A00080EF90E090938C0280938B0288EE21C0C4
:1005B0002230310571F480EF90E090938A028093AD
:1005C000890280E491E090938C0280938B0288E80A
:1005D00010C02330310581F480E491E090938A02C9
:1005E0008093890280EF90E090938C0280938B023D
:1005F00088E288B91398139A14988AE288B91398F4
:10060000139A149A18B81398139A18B81398139A3F
:100610008091890290918A02019798B90196139866
:10062000139A815088B91398139A14988BE288B959
:100630001398139A149A18B81398139A18B8139811
:10064000139A80918B0290918C02019798B9019630
:100650001398139A815088B91398139A0895EF92BA
:10066000FF920F931F93DF93CF93CDB7DEB72897F9
:100670000FB6F894DEBF0FBECDBFF22F2983E32F54
:100680003A834B835C83362F6D83272F7E838F8342
:1006900098877801AB81BC81062F172F6F817885F1
:1006A00014988AE288B91398139A149AE8B913989F
:1006B000139AF8B91398139AB8B91398139AA8B95A
:1006C0001398139A14988BE288B91398139A149A72
:1006D00028B91398139A38B91398139A78B91398BC
:1006E000139A68B91398139A14988CE288B91398DE
:1006F000139A149A2F2F3E2FC901AC010DC0F8B8E0
:100700001398139AE8B81398139A2F5F3F4F621704
:100710007307A8F74F5F5F4FA417B50710F0980154
:10072000F6CF28960FB6F894DEBF0FBECDBFCF919F
:10073000DF911F910F91FF90EF900895EF92FF923C
:100740000F931F93DF93CF93CDB7DEB728970FB6E4
:10075000F894DEBF0FBECDBFF22F2983E32F3A837B
:100760004B835C83362F6D83272F7E838F839887FF
:10077000D8010B811C81E62EF72E6F8178851498A5
:100780008AE288B91398139A149AE8B91398139ABD
:10079000F8B91398139A18B91398139A08B91398BB
:1007A000139A14988BE288B91398139A149A28B95B
:1007B0001398139A38B91398139A78B91398139A0F
:1007C00068B91398139A14988CE288B91398139AFD
:1007D000149A2F2F3E2FC901AC0114C011968C9191
:1007E000119788B91398139A12968C91129788B919
:1007F00014961398139A2F5F3F4F6217730770F781
:100800004F5F5F4F0417150710F09701F6CF28963A
:100810000FB6F894DEBF0FBECDBFCF91DF911F9111
:100820000F91FF90EF9008950F931F93DF93CF9355
:10083000CDB7DEB728970FB6F894DEBF0FBECDBF99
:100840001092900210928F021092920210929102D6
:10085000FE01319688E0DF011D928A95E9F78091CB
:100860008B0290918C020197009195021091960253
:100870002091890230918A0221503040422F3C83DE
:100880002B8398878F8329813A815C816D817E815A
:1008900098850E942F0328960FB6F894DEBF0FBEEE
:1008A000CDBFCF91DF911F910F9108954F925F922D
:1008B0007F928F929F92AF92BF92CF92DF92EF92F0
:1008C000FF920F931F93CF93DF93982F20918F0266
:1008D0003091900244E0C42ED12CC20ED31E409021
:1008E0009102509092028A3081F4109290021092FC
:1008F0008F0248E050E0440E551E50929202409202
:100900009102E8EFFFEF4E0E5F1E892F80528F3568
:1009100008F0A9C08201095F1F4F85E09802E0013D
:100920001124C452D04014988BE288B91398139ABA
:10093000149A58B81398139A48B81398139A18B978
:100940001398139A08B91398139AB0909302B09120
:10095000940290909502A0909602A9019AE2792EB5
:100960008CE2882E3BC0149878B81398139A149A86
:1009700058B91398139A48B91398139A58B91398F9
:10098000139A48B91398139A149888B81398139A1D
:10099000149AFE018491B201A1E0E82EFF2418C050
:1009A0002A2F30E02E213F212115310511F49A2DF7
:1009B00001C09B2F98B91398139A232B11F4992DEA
:1009C00001C09B2D98B91398139A6F5F7F4FAA0FA0
:1009D0000617170728F721964F5F5F4FC416D506F5
:1009E00008F0C1CF14988AE288B91398139A149A20
:1009F00058B91398139A48B91398139A58B9139879
:100A0000139A48B91398139A14988CE288B91398DA
:100A1000139A149AC20107C0A8B81398139A98B8E9
:100A20001398139A019608171907B0F780918F024F
:100A30009091900206969093900280938F0220915D
:100A4000890230918A028217930768F0109290020F
:100A500010928F0280919102909192020896909349
:100A6000920280939102DF91CF911F910F91FF909D
:100A7000EF90DF90CF90BF90AF909F908F907F903E
:100A80005F904F9008951F93CF93DF93EC0110E098
:100A900003C00E9456041F5FFE01E10FF11D80811B
:100AA0008823B9F7DF91CF911F9108958CE391E0EE
:100AB0000E94430580E090E00895DC0188E48C9377
:100AC00088E511968C9311978091980290919902E4
:100AD000892B21F487E612968C93129780919802C5
:100AE00090919902019721F48CE612968C931297BB
:100AF00081E013968C93139789E714968C9314973F
:100B000085E090E029E6FD01E80FF91F20830196BA
:100B10008D379105C1F7A258BF4F8FEF8D93FD011F
:100B20008083809198029091990201969093990206
:100B30008093980280E090E0089589E591E00E941A
:100B400043058CE391E00E94430588E691E00E9412
:100B5000430508950895EF92FF920F931F937C0130
:100B60008B0184E791E00E944305F8018281F7013F
:100B700080831F910F91FF90EF900895CF93DF93A3
:100B8000EC018FE891E00E944305CE010E945D05D3
:100B90002FE730E0FE01E20FF31F8081882319F474
:100BA00021503040B9F78FE991E00E9443058881D8
:100BB0008D3469F08E3441F0883419F4C1E0D0E00E
:100BC0000EC0C0E0D0E00BC0C2E0D0E008C08B8116
:100BD0008E3419F0C4E0D0E002C0C3E0D0E080EB76
:100BE00091E00E944305CE01DF91CF91089580E00E
:100BF00090E00895CF92DF92EF92FF920F931F93B0
:100C0000DF93CF93CDB7DEB7C058D0400FB6F8947E
:100C1000DEBF0FBECDBF7C01D62EC72E8E010F5F6B
:100C20001F4F80E8F80111928A95E9F7C8010E94E8
:100C3000BE058130910519F0039719F405C00E9493
:100C40009D0520E030E029C08B81F70180832FE7EC
:100C500030E0A801FA01E20FF31F8081882311F030
:100C6000A90105C021503040A9F740E050E08D2D8A
:100C70009C2D9C01D90124E030E0BE016F5F7F4FC5
:100C800007C0FB01E20FF31F80818D932F5F3F4F61
:100C900024173507B4F321E030E0C901C058DF4F15
:100CA0000FB6F894DEBF0FBECDBFCF91DF911F917D
:100CB0000F91FF90EF90DF90CF900895EF92FF9209
:100CC0000F931F93DF93CF93CDB7DEB7CB58D040B0
:100CD0000FB6F894DEBF0FBECDBF8E01045F1F4F6D
:100CE000C8010E94BE057C01CE010196B8010E9498
:100CF000AB0581E0E816F10409F072C087EB91E0E2
:100D00000E9443058EEC91E00E94430589810E9478
:100D1000560480EE91E00E9443050AE912E021E0CA
:100D200030E0D8019C918981981731F482EE91E0EE
:100D30000E94430520E030E00F5F1F4FB2E0043A0D
:100D40001B0779F72130310509F047C087E092E0B1
:100D50000E944305EE24FF24870106561D4FF8012B
:100D60008081882391F585E292E00E944305898184
:100D7000D8018C938AE392E00E94430500D000D012
:100D800000D0EDB7FEB731968E010E5F1F4FADB7A5
:100D9000BEB712961C930E9311978FE492E0938343
:100DA0008283F582E4820E941F07EDB7FEB7369674
:100DB0000FB6F894FEBF0FBEEDBFC8010E944305F9
:100DC00080EE91E00E94430508C00894E11CF11CEC
:100DD000FAE0EF16F10409F0BFCF82E592E002C01D
:100DE00087E692E00E944305C557DF4F0FB6F8949F
:100DF000DEBF0FBECDBFCF91DF911F910F91FF904E
:100E0000EF9008950E949E0283E090E00E94AB0262
:100E100088E792E00E9443058AE992E00E94430538
:100E20000E949D050E945E060E949D050E945E062E
:100E30000E9414048AE992E00E944305FFCFAEE0CD
:100E4000B0E0E5E2F7E00C94CE090D891E8986E05A
:100E50008C831A8309838FEF9FE79E838D839E0186
:100E6000275E3F4FCE0101966F89788DA9010E94C0
:100E700043072F813885020F131FF80110822E9629
:100E8000E4E00C94EA09ABE0B0E0E9E4F7E00C94AC
:100E9000C0093C012B015A01FC0117821682838193
:100EA00081FD03C06FEF7FEFC6C19AE0892E1E015E
:100EB0000894211C311CF3012381F20123FD85914B
:100EC00023FF81912F01882309F4B2C1853239F4BF
:100ED00023FD859123FF81912F01853229F490E034
:100EE000B3010E943609E7CF982FFF24EE249924FE
:100EF000FFE1FF15D0F09B3269F09C3228F490326C
:100F000059F0933291F40EC09D3249F0903369F458
:100F100041E024C052E0F52A84E0F82A28C098E095
:100F2000F92A25C0E0E1FE2A22C0F7FC29C0892F5A
:100F300080538A3070F4F6FE05C0989C902C1124E2
:100F4000980E15C0E89CE02C1124E80EF0E2FF2A70
:100F50000EC09E3229F4F6FC6BC140E4F42A07C0AF
:100F60009C3619F450E8F52A02C0983649F4F2018B
:100F700023FD959123FF91912F01992309F0B8CF7B
:100F8000892F8554833018F08052833038F444E040
:100F900050E0A40EB51E5FE359830FC0933631F0C5
:100FA000933779F0933509F056C020C0F501808160
:100FB000898342E050E0A40EB51E610101E010E01B
:100FC00012C0F501C080D180F6FC03C06FEF7FEF47
:100FD00002C0692D70E042E050E0A40EB51EC601CB
:100FE0000E942B098C015FE7F52214C0F501C08037
:100FF000D180F6FC03C06FEF7FEF02C0692D70E077
:1010000042E050E0A40EB51EC6010E9420098C01EA
:1010100050E8F52AF3FE07C01AC080E290E0B30161
:101020000E943609EA948E2D90E008171907A8F35C
:101030000EC0F601F7FC8591F7FE81916F0190E0FB
:10104000B3010E943609E110EA94015010400115E5
:10105000110579F7EAC0943611F0993669F5F7FE73
:1010600008C0F501208131814281538184E090E004
:101070000AC0F501808191819C01442737FD40958C
:10108000542F82E090E0A80EB91E9FE6F92257FF88
:1010900009C050954095309521953F4F4F4F5F4F78
:1010A000E0E8FE2ACA01B901A1012AE030E00E946D
:1010B0006209D82ED21840C0953729F41F2D1F7E03
:1010C0002AE030E01DC01F2D197F9F3661F0903758
:1010D00020F4983509F0ACC00FC0903739F098373C
:1010E00009F0A6C004C028E030E00AC0106114FD79
:1010F000146020E130E004C014FD166020E132E00D
:1011000017FF08C0F501608171818281938144E0FD
:1011100050E008C0F50180819181BC0180E090E041
:1011200042E050E0A40EB51EA1010E946209D82E33
:10113000D2188FE7F82EF122F6FE0BC05EEFF522F3
:10114000D91438F4F4FE07C0F2FC05C08FEEF82283
:1011500002C01D2D01C0192DF4FE0DC0FE01ED0DC4
:10116000F11D8081803319F499EEF92208C01F5FC8
:10117000F2FE05C003C08F2D867809F01F5F0F2D8A
:10118000F3FC14C0F0FE0FC01E1510F09D2C0BC018
:101190009D2C9E0C911A1E2D06C080E290E0B3019A
:1011A0000E9436091F5F1E15C0F304C01E1510F4FF
:1011B000E11A01C0EE2404FF0FC080E390E0B30108
:1011C0000E94360902FF1DC001FD03C088E790E0C0
:1011D0000EC088E590E00BC0802F867891F001FF6B
:1011E00002C08BE201C080E2F7FC8DE290E0B30127
:1011F0000E94360906C080E390E0B3010E943609E0
:101200009A94D914C0F3DA94F101ED0DF11D8081A7
:1012100090E0B3010E943609DD20A9F706C080E204
:1012200090E0B3010E943609EA94EE20C1F743CE64
:10123000F30166817781CB012B96E2E10C94DC0906
:10124000FC010590615070400110D8F78095909591
:101250008E0F9F1F0895FC01615070400190011096
:10126000D8F7809590958E0F9F1F08950F931F9329
:10127000CF93DF938C01EB018B8181FF1BC082FF39
:101280000DC02E813F818C819D812817390764F420
:10129000E881F9810193F983E88306C0E885F9853F
:1012A000802F0995892B31F48E819F8101969F8330
:1012B0008E8302C00FEF1FEFC801DF91CF911F9106
:1012C0000F910895FA01AA27283051F1203181F1B8
:1012D000E8946F936E7F6E5F7F4F8F4F9F4FAF4F3E
:1012E000B1E03ED0B4E03CD0670F781F891F9A1F51
:1012F000A11D680F791F8A1F911DA11D6A0F711D05
:10130000811D911DA11D20D009F468943F912AE010
:10131000269F11243019305D3193DEF6CF010895F8
:10132000462F4770405D4193B3E00FD0C9F7F6CF29
:10133000462F4F70405D4A3318F0495D31FD4052F1
:10134000419302D0A9F7EACFB4E0A6959795879587
:1013500077956795BA95C9F7009761057105089566
:101360009B01AC010A2E0694579547953795279512
:10137000BA95C9F7620F731F841F951FA01D0895AA
:101380002F923F924F925F926F927F928F929F9295
:10139000AF92BF92CF92DF92EF92FF920F931F9383
:1013A000CF93DF93CDB7DEB7CA1BDB0B0FB6F89434
:1013B000DEBF0FBECDBF09942A88398848885F8474
:1013C0006E847D848C849B84AA84B984C884DF80E5
:1013D000EE80FD800C811B81AA81B981CE0FD11DC9
:1013E0000FB6F894DEBF0FBECDBFED010895F8949F
:0213F000FFCF2D
:1013F2000000013F00000000EF0000252705100952
:101402003A784D05180D383A1F001F1A180A0F06B0
:101412004587320A070207050000010000000A8220
:10142200270000260800353E00001B007061636B38
:1014320065742070617373656420746F206C696ECB
:101442006B206C617965720A0073656E64696E6700
:101452002068656C6C6F0A0068656C6C6F20736540
:101462006E740A0067657474696E67206E656967D9
:1014720068626F757220616464726573730A0067D3
:10148200657474696E67207061636B65740A0070BD
:1014920061636B65742072656369657665640A00D1
:1014A200646F6E652E0A0068656C6C6F20706163F4
:1014B2006B65742064657465637465640A006E65A7
:1014C200696768626F757220666F756E643A200094
:1014D2000A006475706C6963617465206E65696782
:1014E20068626F757220666F756E642C206D6F7600
:1014F20065206F6E2E0A006E6F206475706C6963D2
:10150200617465206E65696768626F757220666FC7
:10151200756E640A00737061636520666F72206E77
:1015220065696768626F75720A006E6569676862ED
:101532006F75722073746F72656420696E20002566
:1015420064006E65696768626F75722070726F639E
:1015520065737365640A006E6F2068656C6C6F203A
:101562007061636B65740A00496E697469616C69C4
:1015720073696E672E2E2E0A00F0004001000000F3
:08158200000000FFFF00000063
:00000001FF
