:100000000C942C010C9449010C9449010C94490165
:100010000C9449010C9449010C9449010C94490138
:100020000C9449010C9449010C9449010C94490128
:100030000C9449010C9449010C9449010C94490118
:100040000C9449010C9449010C9449010C94490108
:100050000C9449010C9449010C9449010C944901F8
:100060000C9449010C9449010C9449010C944901E8
:100070000C9449010C9449010C94490100000000C2
:100080000000005F00000003000300143E143E1453
:10009000242A7F2A124333086661364955225000CC
:1000A00005030000001C2241000041221C0014082E
:1000B0003E081408083E08080050300000080808F0
:1000C0000808006060000020100804023E51494505
:1000D0003E0004027F0042615149462241494936AF
:1000E0001814127F1027454545393E4949493201C8
:1000F000017109073649494936264949493E0036C2
:100100003600000056360000081422410014141472
:100110001414004122140802015109063E415955A8
:100120005E7E0909097E7F494949363E41414122A7
:100130007F4141413E7F494949417F090909013ECB
:100140004141493A7F0808087F00417F4100304023
:1001500040403F7F081422417F404040407F020CD6
:10016000027F7F0204087F3E4141413E7F09090929
:10017000061E2121215E7F09090976264949493257
:1001800001017F01013F4040403F1F2040201F7F71
:100190002010207F41221C2241070870080761516E
:1001A000494543007F41000002040810200000413F
:1001B0007F0004020102044040404040000102046C
:1001C0000020545454787F444444383844444444D0
:1001D000384444447F385454541804047E050508B8
:1001E0005454543C7F0804047800447D400020406F
:1001F000443D007F1028440000417F40007C04788B
:1002000004787C0804047838444444387C1414147A
:1002100008081414147C007C080404485454542026
:1002200004043F44443C4040207C1C2040201C3CB3
:100230004030403C44281028440C5050503C44640A
:10024000544C44000836414100007F0000414136D3
:10025000080002010204020011241FBECFEFD0E10A
:10026000DEBFCDBF13E0A0E0B1E0E0E9FEE102C0F7
:1002700005900D92A63EB107D9F714E0A6EEB3E0C3
:1002800001C01D92AA3EB107E1F70E94050C0C9433
:10029000460F0C940000129888EE93E02CE231E0B7
:1002A000F9013197F1F70197D9F7129A88EE93E0A7
:1002B0002CE231E0F9013197F1F70197D9F7149A5F
:1002C000139A159A10981198169A149888E288B97A
:1002D0001398139A149A149881E188B91398139A71
:1002E000149A88E592E02CE231E0F9013197F1F7B8
:1002F0000197D9F714988BEC88B91398139A149A2C
:1003000091E098B91398139A149880EC88B91398CF
:10031000139A149A8091330188B91398139A809193
:10032000340188B91398139A149881EC88B91398FA
:10033000139A149A80E188B91398139A149885EC4B
:1003400088B91398139A149A8091360188B9139832
:10035000139A8091370188B91398139A149886E3F9
:1003600088B91398139A149A88E488B91398139A41
:10037000149880EB88B91398139A149A8AE488B970
:100380001398139A149881EB88B91398139A149AB6
:100390008091390188B91398139A80913A0188B9EC
:1003A0001398139AEEE2F1E0149886EB88B913984B
:1003B000139A149A819188B91398139A41E0E23301
:1003C000F407C1F7149887EC88B91398139A149A14
:1003D00085EB88B91398139AEAE2F1E0149886EF56
:1003E00088B91398139A149A819188B91398139A1B
:1003F00081E0ED32F807C1F7149882EF88B91398BD
:10040000139A149A18B81398139A149886E288B914
:100410001398139A149A98B91398139A14988AE314
:1004200088B91398139A149A85E588B91398139A82
:10043000EAE1F1E0149880EE88B91398139A149ABF
:10044000819188B91398139A41E0E932F407C1F712
:10045000EAE0F1E0149881EE88B91398139A149A9F
:10046000819188B91398139A81E0E931F807C1F7AF
:10047000E5E0F1E014988AE288B91398139A149A87
:10048000819188B91398139A41E0E930F407C1F7D4
:10049000E0E0F1E014988BE288B91398139A149A6B
:1004A000819188B91398139A81E0E430F807C1F775
:1004B000149884E388B91398139A149A149884EBC7
:1004C00088B91398139A149A18B81398139A149811
:1004D00087EB88B91398139A149A87E088B9139810
:1004E000139A14988CE288B91398139A149A20E0FE
:1004F00030E010C018B81398139A18B81398139ACC
:10050000019641E080349407A9F72F5F3F4F203FC9
:10051000310519F080E090E0EDCF149889E288B9B8
:100520001398139A149A84EF91E02CE231E0F901C8
:100530003197F1F70197D9F7119A089585B7806837
:1005400085BF85B7806885BF8FE781B98FEF87B991
:100550000E944B0108959C019093C9038093C803A6
:10056000149886E388B91398139A149A21153105C3
:1005700071F480EF90E09093C5038093C40380E40E
:1005800091E09093C7038093C60388E432C0213082
:10059000310571F480E491E09093C5038093C40326
:1005A00080EF90E09093C7038093C60388EE21C04C
:1005B0002230310571F480EF90E09093C503809371
:1005C000C40380E491E09093C7038093C60388E856
:1005D00010C02330310581F480E491E09093C5038D
:1005E0008093C40380EF90E09093C7038093C60389
:1005F00088E288B91398139A14988AE288B91398F4
:10060000139A149A18B81398139A18B81398139A3F
:100610008091C4039091C503019798B901961398EE
:10062000139A815088B91398139A14988BE288B959
:100630001398139A149A18B81398139A18B8139811
:10064000139A8091C6039091C703019798B90196B8
:100650001398139A815088B91398139A0895EF92BA
:10066000FF920F931F93DF93CF93CDB7DEB72897F9
:100670000FB6F894DEBF0FBECDBFF22F2983E32F54
:100680003A834B835C83362F6D83272F7E838F8342
:1006900098877801AB81BC81062F172F6F817885F1
:1006A00014988AE288B91398139A149AE8B913989F
:1006B000139AF8B91398139AB8B91398139AA8B95A
:1006C0001398139A14988BE288B91398139A149A72
:1006D00028B91398139A38B91398139A78B91398BC
:1006E000139A68B91398139A14988CE288B91398DE
:1006F000139A149A2F2F3E2FC901AC010DC0F8B8E0
:100700001398139AE8B81398139A2F5F3F4F621704
:100710007307A8F74F5F5F4FA417B50710F0980154
:10072000F6CF28960FB6F894DEBF0FBECDBFCF919F
:10073000DF911F910F91FF90EF900895EF92FF923C
:100740000F931F93DF93CF93CDB7DEB728970FB6E4
:10075000F894DEBF0FBECDBFF22F2983E32F3A837B
:100760004B835C83362F6D83272F7E838F839887FF
:10077000D8010B811C81E62EF72E6F8178851498A5
:100780008AE288B91398139A149AE8B91398139ABD
:10079000F8B91398139A18B91398139A08B91398BB
:1007A000139A14988BE288B91398139A149A28B95B
:1007B0001398139A38B91398139A78B91398139A0F
:1007C00068B91398139A14988CE288B91398139AFD
:1007D000149A2F2F3E2FC901AC0114C011968C9191
:1007E000119788B91398139A12968C91129788B919
:1007F00014961398139A2F5F3F4F6217730770F781
:100800004F5F5F4F0417150710F09701F6CF28963A
:100810000FB6F894DEBF0FBECDBFCF91DF911F9111
:100820000F91FF90EF9008950F931F93DF93CF9355
:10083000CDB7DEB728970FB6F894DEBF0FBECDBF99
:100840001092CB031092CA031092CD031092CC03E6
:10085000FE01319688E0DF011D928A95E9F78091CB
:10086000C6039091C70301970091D0031091D10363
:100870002091C4033091C50321503040422F3C8366
:100880002B8398878F8329813A815C816D817E815A
:1008900098850E942F0328960FB6F894DEBF0FBEEE
:1008A000CDBFCF91DF911F910F9108954F925F922D
:1008B0007F928F929F92AF92BF92CF92DF92EF92F0
:1008C000FF920F931F93CF93DF93982F2091CA032A
:1008D0003091CB0344E0C42ED12CC20ED31E4090E5
:1008E000CC035090CD038A3081F41092CB03109248
:1008F000CA0348E050E0440E551E5092CD0340928A
:10090000CC03E8EFFFEF4E0E5F1E892F80528F352C
:1009100008F0B9C08201095F1F4F85E09802E0012D
:100920001124C452D04014988BE288B91398139ABA
:10093000149A58B81398139A48B81398139A18B978
:100940001398139A08B91398139AB090CE03B091E4
:10095000CF039090D003A090D103A9019AE2792E01
:100960008CE2882E3BC0149878B81398139A149A86
:1009700058B91398139A48B91398139A58B91398F9
:10098000139A48B91398139A149888B81398139A1D
:10099000149AFE018491B201A1E0E82EFF2418C050
:1009A0002A2F30E02E213F212115310511F49A2DF7
:1009B00001C09B2F98B91398139A232B11F4992DEA
:1009C00001C09B2D98B91398139A6F5F7F4FAA0FA0
:1009D0000617170728F721964F5F5F4FC416D506F5
:1009E00008F0C1CF14988AE288B91398139A149A20
:1009F00058B91398139A48B91398139A58B9139879
:100A0000139A48B91398139A14988CE288B91398DA
:100A1000139A149AC20107C0A8B81398139A98B8E9
:100A20001398139A019608171907B0F72091CA0373
:100A30003091CB032A5F3F4F3093CB032093CA03FF
:100A40008091C4039091C50306978217930768F4B9
:100A50001092CB031092CA038091CC039091CD03E6
:100A600008969093CD038093CC038091C603909118
:100A7000C70308972091CC033091CD0382179307C9
:100A800010F40E941404DF91CF911F910F91FF90F9
:100A9000EF90DF90CF90BF90AF909F908F907F901E
:100AA0005F904F9008951F93CF93DF93EC0110E078
:100AB00003C00E9456041F5FFE01E10FF11D8081FB
:100AC0008823B9F7DF91CF911F910895EF92FF929C
:100AD0001F93CF93DF937C01162FC62FD0E0C40F56
:100AE000D11D06C0EE0DFF1D80810E9456041F5FC0
:100AF000E12FF0E0EC17FD07ACF3DF91CF911F91F0
:100B0000FF90EF900895DF93CF93CDB7DEB728978E
:100B10000FB6F894DEBF0FBECDBFFE01319627E0C1
:100B200030E0482F50E070E361E3CA01022E02C0BA
:100B3000959587950A94E2F780FF02C0608301C013
:100B400070832150304031968FEF2F3F380769F77F
:100B50008CE391E00E945305CE01019660E048E0ED
:100B60000E94660528960FB6F894DEBF0FBECDBF73
:100B7000CF91DF9108951092C5008DE48093C40059
:100B800088E18093C10086E08093C200089580913F
:100B9000C00087FFFCCF8091C6000895982F8091F8
:100BA000C00085FFFCCF9093C6000895FC0107C0EC
:100BB0008091C00085FFFCCF9093C6003196908154
:100BC0009923B1F70895DC01262F30E0240F311D61
:100BD0000AC0EA0FFB1F40818091C00085FFFCCF57
:100BE0004093C6006F5FE62FF0E0E217F3078CF347
:100BF0000895DF93CF93CDB7DEB728970FB6F8945B
:100C0000DEBF0FBECDBFFE01319627E030E0482F9A
:100C100050E070E361E3CA01022E02C0959587950A
:100C20000A94E2F780FF02C0608301C07083215004
:100C3000304031968FEF2F3F380769F78CE391E012
:100C40000E94D605CE01019660E048E00E94E305CF
:100C500028960FB6F894DEBF0FBECDBFCF91DF91BF
:100C60000895EF92FF920F931F937C018B018FE306
:100C700091E00E945305F8018281F70180831F9162
:100C80000F91FF90EF900895FC0120E030E0A1E289
:100C9000B0E116C08081992787FD9095982F88270D
:100CA0002827392748E0C901880F991F37FF04C05A
:100CB0009C012A273B2701C09C014150A1F7319696
:100CC0006150704077FFE6CFC9010895CF93DF935D
:100CD000AC01E6EEF3E0EF0109900020E9F721977F
:100CE000CE1BDF0B20E030E00AC0FA01E20FF31F59
:100CF000D901AA51BC4F8C9180832F5F3F4F2C1795
:100D00003D079CF380E090E0DF91CF9108950F9331
:100D10001F93CF93DF938B01EB0109900020E9F73C
:100D20002197C61BD70B8AE591E00E94530520E06E
:100D300030E00AC0F901EA51FC4FD801A20FB31FFD
:100D40008C9180832F5F3F4F2C173D079CF380E0F1
:100D500090E0DF91CF911F910F910895EF92FF9254
:100D60000F931F93DF93CF93CDB7DEB7BC010DB7C1
:100D70001EB7DC010D900020E9F71197A81BB90BF5
:100D800017978DB79EB78A1B9B0B0FB6F8949EBF23
:100D90000FBE8DBF0196F82EE92EAC0125E030E0A4
:100DA000159609C0FB01E20FF31F8081FA018193C0
:100DB000AF012F5F3F4F2A173B07A4F38F2D9E2DC6
:100DC0000E9453050FB6F8941EBF0FBE0DBFCF9102
:100DD000DF911F910F91FF90EF900895EF92FF9296
:100DE0000F931F93DF93CF93CDB7DEB7EDB6FEB66B
:100DF00087E791E00E9453058DB79EB741970FB6E4
:100E0000F8949EBF0FBE8DBF0DB71EB70F5F1F4F6B
:100E10009EE4EDB7FEB7918380E3F801818392836E
:100E200083838AE0848325E030E0F801E20FF31F3A
:100E3000D901AD59BB4F8C9180832F5F3F4F2F302D
:100E4000310599F7C8016FE070E00E944406F8018F
:100E50009787808BC8010E9453058BE891E00E9420
:100E600053058DE891E00E9453050FB6F894FEBE3D
:100E70000FBEEDBECF91DF911F910F91FF90EF90CC
:100E800008958F929F92AF92BF92CF92DF92EF928E
:100E9000FF920F931F93DF93CF93CDB7DEB76B0114
:100EA0007C018DB69EB6042F10E0000F111F8DB788
:100EB0009EB7801B910B0FB6F8949EBF0FBE8DBFDF
:100EC000ADB6BEB60894A11CB11CEDB7FEB7E00FDD
:100ED000F11F40E050E020E030E016C0D701C6012D
:100EE000022E04C0B695A795979587950A94D2F7D8
:100EF0008F708A3010F0895A01C0805D80834F5F07
:100F00005F4F31972C5F3F4F401751073CF383E908
:100F100091E00E94D605C50160E0402F0E94E305E4
:100F20000FB6F8949EBE0FBE8DBECF91DF911F917C
:100F30000F91FF90EF90DF90CF90BF90AF909F9078
:100F40008F9008958F929F92AF92BF92CF92DF922F
:100F5000EF92FF920F931F93DF93CF93CDB7DEB73E
:100F60006B017C018DB69EB6042F10E0000F111F9F
:100F70008DB79EB7801B910B0FB6F8949EBF0FBE26
:100F80008DBFADB6BEB60894A11CB11CEDB7FEB7BF
:100F9000E00FF11F40E050E020E030E016C0D70144
:100FA000C601022E04C0B695A795979587950A9419
:100FB000D2F78F708A3010F0895A01C0805D80832B
:100FC0004F5F5F4F31972C5F3F4F401751073CF306
:100FD00083E991E00E945305C50160E0402F0E9423
:100FE00066050FB6F8949EBE0FBE8DBECF91DF9101
:100FF0001F910F91FF90EF90DF90CF90BF90AF9037
:101000009F908F900895EF92FF920F931F93CF932D
:10101000DF938C0186E991E00E945305F80101906D
:101020000020E9F73197E01BF10BE00FF11F329739
:10103000E190F08086EA91E00E9453056E2D7727BB
:1010400067FD7095872F972F41E00E94A20781EBE3
:1010500091E00E9453056F2D772767FD7095872FCC
:10106000972F41E00E94A2078BE891E00E94530570
:10107000C6EDD4E000E010E088818E1549F4898146
:101080008F1531F483EB91E00E94530501E010E0ED
:10109000229684E0CA3ED80779F70115110581F43C
:1010A000FE01319780818183319784E0E73DF80725
:1010B000C9F7E092D604F08288EC91E00E945305D3
:1010C00088ED91E00E945305C801DF91CF911F91F7
:1010D0000F91FF90EF900895EF92FF920F931F935F
:1010E000DF93CF93CDB7DEB72B970FB6F894DEBF63
:1010F0000FBECDBFBC01CE0101960E9431068EED20
:1011000091E00E94530580EF91E00E945305898190
:101110000E9456048BE891E00E94530508E614E013
:1011200021E030E0D8019C918981981731F482E068
:1011300092E00E94530520E030E00F5F1F4FB4E0C3
:1011400002371B0779F72130310509F047C087E2E4
:1011500092E00E945305EE24FF24870108591B4F9B
:10116000F8018081882391F585E492E00E9453057F
:101170008981D8018C938AE592E00E94530500D0C2
:1011800000D000D0EDB7FEB731968E010E5F1F4F35
:10119000ADB7BEB712961C930E9311978FE692E0EF
:1011A00093838283F582E4820E946E0CEDB7FEB7D2
:1011B00036960FB6F894FEBF0FBEEDBFC8010E9471
:1011C00053058BE891E00E94530508C00894E11C88
:1011D000F11CFAE0EF16F10409F0BFCF82E792E0CC
:1011E0000E9453052B960FB6F894DEBF0FBECDBFFD
:1011F000CF91DF911F910F91FF90EF9008950F9382
:101200001F93DF93CF93CDB7DEB728970FB6F8942F
:10121000DEBF0FBECDBF2DB73EB7285030400FB652
:10122000F8943EBF0FBE2DBFEDB7FEB731968E01CD
:101230000F5F1F4FADB7BEB712961C930E93119759
:1012400028E030E0338322832FE632E035832483A5
:10125000978386830E943D0C2DB73EB7285F3F4F92
:101260000FB6F8943EBF0FBE2DBFC8010E94D60531
:1012700028960FB6F894DEBF0FBECDBFCF91DF9199
:101280001F910F9108950F931F93DF93CF93CDB7C5
:10129000DEB728970FB6F894DEBF0FBECDBF2DB7CF
:1012A0003EB7285030400FB6F8943EBF0FBE2DBF5A
:1012B000EDB7FEB731968E010F5F1F4FADB7BEB7CA
:1012C00012961C930E93119728E030E0338322830B
:1012D0002FE632E035832483978386830E943D0C7A
:1012E0002DB73EB7285F3F4F0FB6F8943EBF0FBEF5
:1012F0002DBFC8010E94530528960FB6F894DEBF93
:101300000FBECDBFCF91DF911F910F9108958F92A6
:101310009F92BF92CF92DF92EF92FF920F931F9313
:10132000DF93CF93CDB7DEB7B82E8B018DB69EB6C7
:10133000DB010D900020E9F76D010894C108D10888
:10134000C61AD70A87E892E00E945305C6010E9498
:1013500043098BE891E00E9453059601295F3F4FB6
:10136000C6010896EDB7FEB7E81BF90B0FB6F89467
:10137000FEBF0FBEEDBFEDB6FEB60894E11CF11C3A
:1013800080E090E005C0F701E80FF91F1082019698
:1013900028173907C4F7E8E6F4E08081B81619F495
:1013A00021E030E007C0319644E0E237F407A9F7C6
:1013B00020E030E08DE4D7018C932130310521F419
:1013C00083E511968C9303C088E5F70181838EE451
:1013D000D70112968C9312971396BC92139714967A
:1013E000CC92D80125E030E0A6014C5F5F4F07C0EA
:1013F000F701E20FF31F8D9180832F5F3F4F42175C
:101400005307B4F786010B5F1F4FC701B8010E9455
:1014100044060E0D1F1DF8019083CE0CDF1CD60173
:1014200016968C938B2DB7010E94870680E090E082
:101430000FB6F8949EBE0FBE8DBECF91DF911F9167
:101440000F91FF90EF90DF90CF90BF909F908F9083
:101450000895AF92BF92CF92DF92EF92FF920F93D7
:101460001F93CF93DF935C0188E992E00E945305BC
:10147000C5010E946606D5010D900020E9F78D0197
:10148000015010400A191B098AEA92E00E94530594
:101490008CEB92E00E945305C8010E9443098BE83F
:1014A00091E00E9453058CEC92E00E9453057EEF80
:1014B000E72E7FEFF72EE00EF11E6501CE0CDF1C4C
:1014C000F6016081772767FD7095872F972F41E0A0
:1014D0000E94A20781EB91E00E945305E801219749
:1014E000CA0DDB1D6881772767FD7095872F972FC1
:1014F00041E00E94A2078BE891E00E945305C501DC
:10150000B7010E944406E82E092FD6018C91891755
:1015100031F488818E1519F4C1E0D0E006C08EED5B
:1015200092E00E945305C0E0D0E08EEE92E00E946F
:101530005305602F772767FD7095872F972F41E020
:101540000E94A20781EB91E00E9453056E2D772740
:1015500067FD7095872F972F41E00E94A2078EEFBD
:1015600092E00E9453052097E1F0F501918180817E
:101570008D3441F08E3419F4C2E0D0E012C0C1E0E5
:10158000D0E00FC0D50113968C918E3419F4C3E0CE
:10159000D0E007C0933519F4C5E0D0E002C0C4E044
:1015A000D0E082E093E00E945305CE01DF91CF911D
:1015B0001F910F91FF90EF90DF90CF90BF90AF9071
:1015C0000895EF92FF920F931F93DF93CF93CDB7C0
:1015D000DEB7C158D0400FB6F894DEBF0FBECDBF06
:1015E000E2E0EE2EF12CEC0EFD1EC7010E94290A4E
:1015F0008C01CE010196B7010E9431060130110520
:1016000021F4C7010E946C0804C089E093E00E94A5
:101610005305CF57DF4F0FB6F894DEBF0FBECDBFD7
:10162000CF91DF911F910F91FF90EF900895EF926E
:10163000FF920F931F93DF93CF93CDB7DEB76097E1
:101640000FB6F894DEBF0FBECDBF8AE193E00E94D3
:101650005305FE01319680E1DF011D928A95E9F77D
:1016600088E489838A838EE48B838FEF8C8388E080
:101670008D83FE01369629E6CE010E962193E8175A
:10168000F907E1F78DEC8E872F877E010894E11C26
:10169000F11CF70101900020E9F78F010150104083
:1016A0000E191F096889772767FD7095872F972F77
:1016B00041E00E94A2078BE293E00E945305C8011B
:1016C0000E9443098BE891E00E94530580E0B70136
:1016D0000E9487068DE393E00E94530560960FB643
:1016E000F894DEBF0FBECDBFCF91DF911F910F9158
:1016F000FF90EF900895CF92DF92EF92FF920F93B9
:101700001F93DF93CF93CDB7DEB7C058D0400FB64D
:10171000F894DEBF0FBECDBF6B017E010894E11CC3
:10172000F11C80E8F70111928A95E9F7C7010E9440
:10173000290AF70101900020E9F78F0101501040BC
:101740000E191F0983309105C9F08430910534F4D6
:10175000009759F0019709F045C00AC084309105FF
:1017600059F1059709F03EC039C089E493E038C0CB
:101770000E94170BC7010E946C0834C084E693E0F6
:101780000E945305C7010E94AE06980123503040C5
:10179000D701A20FB31FF8013797EC0DFD1D06C04E
:1017A0008C9180832150304011973197253031053D
:1017B000BCF721E030E018C085E793E00E945305B4
:1017C000C7010E940308019769F08AE893E00E942C
:1017D00053058C81B7010E94870604C08AE993E013
:1017E0000E94530520E030E0C901C058DF4F0FB61A
:1017F000F894DEBF0FBECDBFCF91DF911F910F9147
:10180000FF90EF90DF90CF900895EF92FF920F93AB
:101810001F93DF93CF93CDB7DEB765970FB6F894DC
:10182000DEBF0FBECDBF0E949E0283E090E00E940B
:10183000AB021982DE011296E2EDF3E084E1019041
:101840000D928150E1F70E94170B8E010E5F1F4F22
:101850007E010894E11CF11CC701B8010E947B0BBA
:101860008EE4B8010E948709C701B8010E947B0B72
:101870008BE891E00E945305FFCFAEE0B0E0E3E4D7
:10188000FCE00C941D0F0D891E898F89988D97FFA0
:1018900002C080E090E801979E838D831A830983BC
:1018A00086E08C839E01255E3F4FCE010196698DB7
:1018B0007A8DA9010E94920C4D815E8157FD0AC06C
:1018C0002F813885421753070CF49A01020F131F1A
:1018D000F80110822E96E4E00C94390FAEE0B0E0EF
:1018E000E4E7FCE00C941D0F0D891E8986E08C83D3
:1018F0001A8309838FEF9FE79E838D839E01275E66
:101900003F4FCE0101966F89788DA9010E94920CFC
:101910002F813885020F131FF80110822E96E4E004
:101920000C94390FABE0B0E0E8E9FCE00C940F0F49
:101930003C012B015A01FC0117821682838181FD33
:1019400003C06FEF7FEFC6C19AE0892E1E01089495
:10195000211C311CF3012381F20123FD859123FF1A
:1019600081912F01882309F4B2C1853239F423FD16
:10197000859123FF81912F01853229F490E0B301F5
:101980000E94850EE7CF982FFF24EE249924FFE1D3
:10199000FF15D0F09B3269F09C3228F4903259F058
:1019A000933291F40EC09D3249F0903369F441E0D6
:1019B00024C052E0F52A84E0F82A28C098E0F92AE9
:1019C00025C0E0E1FE2A22C0F7FC29C0892F805300
:1019D0008A3070F4F6FE05C0989C902C1124980E65
:1019E00015C0E89CE02C1124E80EF0E2FF2A0EC09E
:1019F0009E3229F4F6FC6BC140E4F42A07C09C3601
:101A000019F450E8F52A02C0983649F4F20123FD92
:101A1000959123FF91912F01992309F0B8CF892F38
:101A20008554833018F08052833038F444E050E01D
:101A3000A40EB51E5FE359830FC0933631F0933780
:101A400079F0933509F056C020C0F5018081898373
:101A500042E050E0A40EB51E610101E010E012C0AA
:101A6000F501C080D180F6FC03C06FEF7FEF02C0AC
:101A7000692D70E042E050E0A40EB51EC6010E9440
:101A80007A0E8C015FE7F52214C0F501C080D18089
:101A9000F6FC03C06FEF7FEF02C0692D70E042E0FB
:101AA00050E0A40EB51EC6010E946F0E8C0150E8D6
:101AB000F52AF3FE07C01AC080E290E0B3010E944D
:101AC000850EEA948E2D90E008171907A8F30EC032
:101AD000F601F7FC8591F7FE81916F0190E0B3016B
:101AE0000E94850EE110EA94015010400115110585
:101AF00079F7EAC0943611F0993669F5F7FE08C017
:101B0000F501208131814281538184E090E00AC057
:101B1000F501808191819C01442737FD4095542F28
:101B200082E090E0A80EB91E9FE6F92257FF09C097
:101B300050954095309521953F4F4F4F5F4FE0E8CE
:101B4000FE2ACA01B901A1012AE030E00E94B10ECB
:101B5000D82ED21840C0953729F41F2D1F7E2AE0B9
:101B600030E01DC01F2D197F9F3661F0903720F4A3
:101B7000983509F0ACC00FC0903739F0983709F0AC
:101B8000A6C004C028E030E00AC0106114FD146053
:101B900020E130E004C014FD166020E132E017FFC0
:101BA00008C0F501608171818281938144E050E039
:101BB00008C0F50180819181BC0180E090E042E0A5
:101BC00050E0A40EB51EA1010E94B10ED82ED2186D
:101BD0008FE7F82EF122F6FE0BC05EEFF522D91446
:101BE00038F4F4FE07C0F2FC05C08FEEF82202C004
:101BF0001D2D01C0192DF4FE0DC0FE01ED0DF11DCE
:101C00008081803319F499EEF92208C01F5FF2FE3B
:101C100005C003C08F2D867809F01F5F0F2DF3FCE0
:101C200014C0F0FE0FC01E1510F09D2C0BC09D2C93
:101C30009E0C911A1E2D06C080E290E0B3010E9416
:101C4000850E1F5F1E15C0F304C01E1510F4E11AA7
:101C500001C0EE2404FF0FC080E390E0B3010E94B6
:101C6000850E02FF1DC001FD03C088E790E00EC095
:101C700088E590E00BC0802F867891F001FF02C0CC
:101C80008BE201C080E2F7FC8DE290E0B3010E949C
:101C9000850E06C080E390E0B3010E94850E9A9401
:101CA000D914C0F3DA94F101ED0DF11D808190E0BB
:101CB000B3010E94850EDD20A9F706C080E290E006
:101CC000B3010E94850EEA94EE20C1F743CEF301E2
:101CD00066817781CB012B96E2E10C942B0FFC01FE
:101CE0000590615070400110D8F7809590958E0F47
:101CF0009F1F0895FC016150704001900110D8F7BA
:101D0000809590958E0F9F1F08950F931F93CF93EB
:101D1000DF938C01EB018B8181FF1BC082FF0DC023
:101D20002E813F818C819D812817390764F4E881D9
:101D3000F9810193F983E88306C0E885F985802F4E
:101D40000995892B31F48E819F8101969F838E8323
:101D500002C00FEF1FEFC801DF91CF911F910F91CC
:101D60000895FA01AA27283051F1203181F1E89431
:101D70006F936E7F6E5F7F4F8F4F9F4FAF4FB1E07E
:101D80003ED0B4E03CD0670F781F891F9A1FA11D79
:101D9000680F791F8A1F911DA11D6A0F711D811D7A
:101DA000911DA11D20D009F468943F912AE0269F3F
:101DB00011243019305D3193DEF6CF010895462F9E
:101DC0004770405D4193B3E00FD0C9F7F6CF462F7F
:101DD0004F70405D4A3318F0495D31FD40524193E8
:101DE00002D0A9F7EACFB4E0A695979587957795A5
:101DF0006795BA95C9F700976105710508959B012C
:101E0000AC010A2E06945795479537952795BA95B4
:101E1000C9F7620F731F841F951FA01D08952F928D
:101E20003F924F925F926F927F928F929F92AF926A
:101E3000BF92CF92DF92EF92FF920F931F93CF93B7
:101E4000DF93CDB7DEB7CA1BDB0B0FB6F894DEBF4E
:101E50000FBECDBF09942A88398848885F846E8474
:101E60007D848C849B84AA84B984C884DF80EE80BE
:101E7000FD800C811B81AA81B981CE0FD11D0FB6C7
:101E8000F894DEBF0FBECDBFED010895F894FFCFEB
:101E90000000013F00000000EF00002527051009A9
:101EA0003A784D05180D383A1F001F1A180A0F0608
:101EB0004587320A070207050000010000000A8278
:101EC000270000260800353E00001B003062006736
:101ED000657474696E67206E65696768626F757294
:101EE00020616464726573730A007061636B65746A
:101EF0002070617373656420746F206C696E6B2051
:101F00006C617965720A0073656E64696E67206E34
:101F100065696768626F7572730A000A00646F6EA4
:101F2000650A00307800636865636B2063686563E9
:101F30006B73756D2C00436865636B73756D3A2028
:101F4000002000616C7265616479207472616E7347
:101F50006D69747465642C006368656B73756D20BE
:101F600073746F7265642C00454E442E0A007072C3
:101F70006F63657373696E672048454C4C4F0A0068
:101F80006E65696768626F757220666F756E643A18
:101F900020006475706C6963617465206E656967A3
:101FA00068626F757220666F756E642C206D6F7637
:101FB00065206F6E2E0A006E6F206475706C696309
:101FC000617465206E65696768626F757220666FFF
:101FD000756E640A00737061636520666F72206EAF
:101FE00065696768626F75720A006E656967686225
:101FF0006F75722073746F72656420696E2000259E
:1020000064006E65696768626F75722070726F63D5
:1020100065737365640A007365676D656E74206C23
:10202000656E6774683A200067657474696E67202E
:102030007061636B65742E2E2E007061636B657426
:102040002072656369657665643A20007061636B30
:102050006574206C656E6774683A20005061636B2C
:10206000657420436865636B73756D3A200063681F
:10207000656B73756D206661696C65640A00436108
:102080006C6320436865636B73756D3A20002E2E78
:102090002E00646F6E652E0A006E6F2068656C6C92
:1020A0006F207061636B65740A0073656E64696E9E
:1020B000672068656C6C6F2E2E2E0068207061633F
:1020C0006B6574206C656E6774683A200068656C97
:1020D0006C6F2073656E740A007061636B657420A9
:1020E000636F727275707465642C2064726F7065B2
:1020F000642E0A006D65737361676520666F7220D8
:102100006D652E0A006D657373616765206E6F746F
:1021100020666F72206D652E0A0072657472616EA2
:10212000736D6974696E673A200053696E676C65F8
:1021300020686F70206D657373616765206E6F74C2
:1021400020666F72206D652E2E2E64726F70706522
:10215000642E0A00F0004001000000000000FFFFB4
:1021600000003169696969696969696969696969E9
:062170006969696939008C
:00000001FF
