:100000000C942C010C9441010C9441010C9441017D
:100010000C9441010C9441010C9441010C94410158
:100020000C9441010C9441010C9441010C94410148
:100030000C9441010C9441010C9441010C94410138
:100040000C9441010C9441010C9441010C94410128
:100050000C9441010C9441010C9441010C94410118
:100060000C9441010C9441010C9441010C94410108
:100070000C9441010C9441010C94410100000000DA
:100080000000005F00000003000300143E143E1453
:10009000242A7F2A124333086661364955225000CC
:1000A00005030000001C2241000041221C0014082E
:1000B0003E081408083E08080050300000080808F0
:1000C0000808006060000020100804023E51494505
:1000D0003E0004027F0042615149462241494936AF
:1000E0001814127F1027454545393E4949493201C8
:1000F000017109073649494936264949493E0036C2
:100100003600000056360000081422410014141472
:100110001414004122140802015109063E415955A8
:100120005E7E0909097E7F494949363E41414122A7
:100130007F4141413E7F494949417F090909013ECB
:100140004141493A7F0808087F00417F4100304023
:1001500040403F7F081422417F404040407F020CD6
:10016000027F7F0204087F3E4141413E7F09090929
:10017000061E2121215E7F09090976264949493257
:1001800001017F01013F4040403F1F2040201F7F71
:100190002010207F41221C2241070870080761516E
:1001A000494543007F41000002040810200000413F
:1001B0007F0004020102044040404040000102046C
:1001C0000020545454787F444444383844444444D0
:1001D000384444447F385454541804047E050508B8
:1001E0005454543C7F0804047800447D400020406F
:1001F000443D007F1028440000417F40007C04788B
:1002000004787C0804047838444444387C1414147A
:1002100008081414147C007C080404485454542026
:1002200004043F44443C4040207C1C2040201C3CB3
:100230004030403C44281028440C5050503C44640A
:10024000544C44000836414100007F0000414136D3
:10025000080002010204020011241FBECFEFD0E10A
:10026000DEBFCDBF11E0A0E0B1E0EAE1FCE002C0FA
:1002700005900D92A637B107D9F70E94EC050C94B2
:100280000B060C940000129888EE93E02CE231E00B
:10029000F9013197F1F70197D9F7129A88EE93E0B7
:1002A0002CE231E0F9013197F1F70197D9F7149A6F
:1002B000139A159A10981198169A149888E288B98A
:1002C0001398139A149A149881E188B91398139A81
:1002D000149A88E592E02CE231E0F9013197F1F7C8
:1002E0000197D9F714988BEC88B91398139A149A3C
:1002F00091E098B91398139A149880EC88B91398E0
:10030000139A149A8091330188B91398139A8091A3
:10031000340188B91398139A149881EC88B913980A
:10032000139A149A80E188B91398139A149885EC5B
:1003300088B91398139A149A8091360188B9139842
:10034000139A8091370188B91398139A149886E309
:1003500088B91398139A149A88E488B91398139A51
:10036000149880EB88B91398139A149A8AE488B980
:100370001398139A149881EB88B91398139A149AC6
:100380008091390188B91398139A80913A0188B9FC
:100390001398139AEEE2F1E0149886EB88B913985B
:1003A000139A149A819188B91398139A41E0E23311
:1003B000F407C1F7149887EC88B91398139A149A24
:1003C00085EB88B91398139AEAE2F1E0149886EF66
:1003D00088B91398139A149A819188B91398139A2B
:1003E00081E0ED32F807C1F7149882EF88B91398CD
:1003F000139A149A18B81398139A149886E288B925
:100400001398139A149A98B91398139A14988AE324
:1004100088B91398139A149A85E588B91398139A92
:10042000EAE1F1E0149880EE88B91398139A149ACF
:10043000819188B91398139A41E0E932F407C1F722
:10044000EAE0F1E0149881EE88B91398139A149AAF
:10045000819188B91398139A81E0E931F807C1F7BF
:10046000E5E0F1E014988AE288B91398139A149A97
:10047000819188B91398139A41E0E930F407C1F7E4
:10048000E0E0F1E014988BE288B91398139A149A7B
:10049000819188B91398139A81E0E430F807C1F785
:1004A000149884E388B91398139A149A149884EBD7
:1004B00088B91398139A149A18B81398139A149821
:1004C00087EB88B91398139A149A87E088B9139820
:1004D000139A14988CE288B91398139A149A20E00E
:1004E00030E010C018B81398139A18B81398139ADC
:1004F000019641E080349407A9F72F5F3F4F203FDA
:10050000310519F080E090E0EDCF149889E288B9C8
:100510001398139A149A84EF91E02CE231E0F901D8
:100520003197F1F70197D9F7119A089585B7806847
:1005300085BF85B7806885BF8FE781B98FEF87B9A1
:100540000E94430108959C0190936D0180936C017A
:10055000149886E388B91398139A149A21153105D3
:1005600071F480EF90E0909369018093680180E4DA
:1005700091E090936B0180936A0188E432C021304E
:10058000310571F480E491E09093690180936801F2
:1005900080EF90E090936B0180936A0188EE21C018
:1005A0002230310571F480EF90E0909369018093DF
:1005B000680180E491E090936B0180936A0188E880
:1005C00010C02330310581F480E491E090936901FB
:1005D0008093680180EF90E090936B0180936A01B3
:1005E00088E288B91398139A14988AE288B9139804
:1005F000139A149A18B81398139A18B81398139A50
:100600008091680190916901019798B901961398BA
:10061000139A815088B91398139A14988BE288B969
:100620001398139A149A18B81398139A18B8139821
:10063000139A80916A0190916B01019798B9019684
:100640001398139A815088B91398139A0895EF92CA
:10065000FF920F931F93DF93CF93CDB7DEB7289709
:100660000FB6F894DEBF0FBECDBFF22F2983E32F64
:100670003A834B835C83362F6D83272F7E838F8352
:1006800098877801AB81BC81062F172F6F81788501
:1006900014988AE288B91398139A149AE8B91398AF
:1006A000139AF8B91398139AB8B91398139AA8B96A
:1006B0001398139A14988BE288B91398139A149A82
:1006C00028B91398139A38B91398139A78B91398CC
:1006D000139A68B91398139A14988CE288B91398EE
:1006E000139A149A2F2F3E2FC901AC010DC0F8B8F0
:1006F0001398139AE8B81398139A2F5F3F4F621715
:100700007307A8F74F5F5F4FA417B50710F0980164
:10071000F6CF28960FB6F894DEBF0FBECDBFCF91AF
:10072000DF911F910F91FF90EF900895EF92FF924C
:100730000F931F93DF93CF93CDB7DEB728970FB6F4
:10074000F894DEBF0FBECDBFF22F2983E32F3A838B
:100750004B835C83362F6D83272F7E838F8398870F
:10076000D8010B811C81E62EF72E6F8178851498B5
:100770008AE288B91398139A149AE8B91398139ACD
:10078000F8B91398139A18B91398139A08B91398CB
:10079000139A14988BE288B91398139A149A28B96B
:1007A0001398139A38B91398139A78B91398139A1F
:1007B00068B91398139A14988CE288B91398139A0D
:1007C000149A2F2F3E2FC901AC0114C011968C91A1
:1007D000119788B91398139A12968C91129788B929
:1007E00014961398139A2F5F3F4F6217730770F791
:1007F0004F5F5F4F0417150710F09701F6CF28964B
:100800000FB6F894DEBF0FBECDBFCF91DF911F9121
:100810000F91FF90EF9008950F931F93DF93CF9365
:10082000CDB7DEB728970FB6F894DEBF0FBECDBFA9
:1008300010926F0110926E0110927101109270016E
:10084000FE01319688E0DF011D928A95E9F78091DB
:100850006A0190916B0101970091740110917501EB
:10086000209168013091690121503040422F3C8332
:100870002B8398878F8329813A815C816D817E816A
:1008800098850E94270328960FB6F894DEBF0FBE06
:10089000CDBFCF91DF911F910F9108954F925F923D
:1008A0007F928F929F92AF92BF92CF92DF92EF9200
:1008B000FF920F931F93CF93DF93982F20916E0198
:1008C00030916F0144E0C42ED12CC20ED31E409053
:1008D0007001509071018A3081F410926F01109272
:1008E0006E0148E050E0440E551E50927101409256
:1008F0007001E8EFFFEF4E0E5F1E892F80528F359B
:1009000008F0A9C08201095F1F4F85E09802E0014D
:100910001124C452D04014988BE288B91398139ACA
:10092000149A58B81398139A48B81398139A18B988
:100930001398139A08B91398139AB0907201B09152
:10094000730190907401A0907501A9019AE2792E2B
:100950008CE2882E3BC0149878B81398139A149A96
:1009600058B91398139A48B91398139A58B9139809
:10097000139A48B91398139A149888B81398139A2D
:10098000149AFE018491B201A1E0E82EFF2418C060
:100990002A2F30E02E213F212115310511F49A2D07
:1009A00001C09B2F98B91398139A232B11F4992DFA
:1009B00001C09B2D98B91398139A6F5F7F4FAA0FB0
:1009C0000617170728F721964F5F5F4FC416D50605
:1009D00008F0C1CF14988AE288B91398139A149A30
:1009E00058B91398139A48B91398139A58B9139889
:1009F000139A48B91398139A14988CE288B91398EB
:100A0000139A149AC20107C0A8B81398139A98B8F9
:100A10001398139A019608171907B0F780916E0181
:100A200090916F01069690936F0180936E012091D3
:100A30006801309169018217930768F010926F0185
:100A400010926E01809170019091710108969093BF
:100A5000710180937001DF91CF911F910F91FF90F1
:100A6000EF90DF90CF90BF90AF909F908F907F904E
:100A70005F904F9008951F93CF93DF93EC0110E0A8
:100A800003C00E944E041F5FFE01E10FF11D808133
:100A90008823B9F7DF91CF911F910895FB018085DD
:100AA0000E944E0480E090E00895DC018FEF8C936B
:100AB00011968C93119787E612968C93129781E08A
:100AC00013968C93139789E714968C93149785E06B
:100AD00090E029E6FD01E80FF91F208301968D378C
:100AE0009105C1F7A258BF4F8FEF8D93FD01808311
:100AF00080E090E00895DF93CF93CDB7DEB7C05884
:100B0000D0400FB6F894DEBF0FBECDBF8CE391E0AE
:100B10000E943B0588E489838A8381E08B831C8261
:100B200089E78D83FE01369629E6CE0182589F4FD4
:100B30002193E817F907E1F7FE01E158FF4F108212
:100B4000FE01E058FF4F108289850E944E048BE41D
:100B500091E00E943B05C058DF4F0FB6F894DEBF0E
:100B60000FBECDBFCF91DF9108950F931F93DF93F9
:100B7000CF93CDB7DEB7C058D0400FB6F894DEBFE4
:100B80000FBECDBF8C01CE0101960E9455058B8111
:100B9000F801808381E090E0C058DF4F0FB6F894F1
:100BA000DEBF0FBECDBFCF91DF911F910F91089592
:100BB000DF93CF930F92CDB7DEB70E947B05CE01B6
:100BC00001960E94B505892B19F089810E944E0477
:100BD0000F90CF91DF910895DF93CF93CDB7DEB71C
:100BE0002A970FB6F894DEBF0FBECDBF0E949602C3
:100BF00083E090E00E94A30287E591E00E943B051C
:100C0000FE0131968AE0DF011D928A95E9F7CF0156
:0A0C10000E94D805FFCFF894FFCF33
:100C1A000000013F00000000EF0000252705100931
:100C2A003A784D05180D383A1F001F1A180A0F0690
:100C3A004587320A070207050000010000000A8200
:100C4A00270000260800353E00001B0073656E640D
:100C5A00696E672068656C6C6F0A0068656C6C6FFA
:100C6A002073656E740A00496E697469616C6973F0
:100C7A00696E672E2E2E0A00F00040010000000067
:060C8A000000FFFF000066
:00000001FF
