:100000000C942C010C9449010C9449010C94490165
:100010000C9449010C9449010C9449010C94490138
:100020000C9449010C9449010C9449010C94490128
:100030000C9449010C9449010C9449010C94490118
:100040000C9449010C9449010C9449010C94490108
:100050000C9449010C9449010C9449010C944901F8
:100060000C9449010C9449010C9449010C944901E8
:100070000C9449010C9449010C94490100000000C2
:100080000000005F00000003000300143E143E1453
:10009000242A7F2A124333086661364955225000CC
:1000A00005030000001C2241000041221C0014082E
:1000B0003E081408083E08080050300000080808F0
:1000C0000808006060000020100804023E51494505
:1000D0003E0004027F0042615149462241494936AF
:1000E0001814127F1027454545393E4949493201C8
:1000F000017109073649494936264949493E0036C2
:100100003600000056360000081422410014141472
:100110001414004122140802015109063E415955A8
:100120005E7E0909097E7F494949363E41414122A7
:100130007F4141413E7F494949417F090909013ECB
:100140004141493A7F0808087F00417F4100304023
:1001500040403F7F081422417F404040407F020CD6
:10016000027F7F0204087F3E4141413E7F09090929
:10017000061E2121215E7F09090976264949493257
:1001800001017F01013F4040403F1F2040201F7F71
:100190002010207F41221C2241070870080761516E
:1001A000494543007F41000002040810200000413F
:1001B0007F0004020102044040404040000102046C
:1001C0000020545454787F444444383844444444D0
:1001D000384444447F385454541804047E050508B8
:1001E0005454543C7F0804047800447D400020406F
:1001F000443D007F1028440000417F40007C04788B
:1002000004787C0804047838444444387C1414147A
:1002100008081414147C007C080404485454542026
:1002200004043F44443C4040207C1C2040201C3CB3
:100230004030403C44281028440C5050503C44640A
:10024000544C44000836414100007F0000414136D3
:10025000080002010204020011241FBECFEFD0E10A
:10026000DEBFCDBF13E0A0E0B1E0E4EDFCE102C0F1
:1002700005900D92A03AB107D9F714E0A0EAB3E0D7
:1002800001C01D92A432B107E1F70E94F40A0C9458
:10029000680E0C940000129888EE93E02CE231E096
:1002A000F9013197F1F70197D9F7129A88EE93E0A7
:1002B0002CE231E0F9013197F1F70197D9F7149A5F
:1002C000139A159A10981198169A149888E288B97A
:1002D0001398139A149A149881E188B91398139A71
:1002E000149A88E592E02CE231E0F9013197F1F7B8
:1002F0000197D9F714988BEC88B91398139A149A2C
:1003000091E098B91398139A149880EC88B91398CF
:10031000139A149A8091330188B91398139A809193
:10032000340188B91398139A149881EC88B91398FA
:10033000139A149A80E188B91398139A149885EC4B
:1003400088B91398139A149A8091360188B9139832
:10035000139A8091370188B91398139A149886E3F9
:1003600088B91398139A149A88E488B91398139A41
:10037000149880EB88B91398139A149A8AE488B970
:100380001398139A149881EB88B91398139A149AB6
:100390008091390188B91398139A80913A0188B9EC
:1003A0001398139AEEE2F1E0149886EB88B913984B
:1003B000139A149A819188B91398139A41E0E23301
:1003C000F407C1F7149887EC88B91398139A149A14
:1003D00085EB88B91398139AEAE2F1E0149886EF56
:1003E00088B91398139A149A819188B91398139A1B
:1003F00081E0ED32F807C1F7149882EF88B91398BD
:10040000139A149A18B81398139A149886E288B914
:100410001398139A149A98B91398139A14988AE314
:1004200088B91398139A149A85E588B91398139A82
:10043000EAE1F1E0149880EE88B91398139A149ABF
:10044000819188B91398139A41E0E932F407C1F712
:10045000EAE0F1E0149881EE88B91398139A149A9F
:10046000819188B91398139A81E0E931F807C1F7AF
:10047000E5E0F1E014988AE288B91398139A149A87
:10048000819188B91398139A41E0E930F407C1F7D4
:10049000E0E0F1E014988BE288B91398139A149A6B
:1004A000819188B91398139A81E0E430F807C1F775
:1004B000149884E388B91398139A149A149884EBC7
:1004C00088B91398139A149A18B81398139A149811
:1004D00087EB88B91398139A149A87E088B9139810
:1004E000139A14988CE288B91398139A149A20E0FE
:1004F00030E010C018B81398139A18B81398139ACC
:10050000019641E080349407A9F72F5F3F4F203FC9
:10051000310519F080E090E0EDCF149889E288B9B8
:100520001398139A149A84EF91E02CE231E0F901C8
:100530003197F1F70197D9F7119A089585B7806837
:1005400085BF85B7806885BF8FE781B98FEF87B991
:100550000E944B0108959C0190939603809395030C
:10056000149886E388B91398139A149A21153105C3
:1005700071F480EF90E0909392038093910380E474
:1005800091E0909394038093930388E432C02130E8
:10059000310571F480E491E090939203809391038C
:1005A00080EF90E0909394038093930388EE21C0B2
:1005B0002230310571F480EF90E0909392038093A4
:1005C000910380E491E0909394038093930388E8EF
:1005D00010C02330310581F480E491E090939203C0
:1005E0008093910380EF90E0909394038093930322
:1005F00088E288B91398139A14988AE288B91398F4
:10060000139A149A18B81398139A18B81398139A3F
:100610008091910390919203019798B90196139854
:10062000139A815088B91398139A14988BE288B959
:100630001398139A149A18B81398139A18B8139811
:10064000139A8091930390919403019798B901961E
:100650001398139A815088B91398139A0895EF92BA
:10066000FF920F931F93DF93CF93CDB7DEB72897F9
:100670000FB6F894DEBF0FBECDBFF22F2983E32F54
:100680003A834B835C83362F6D83272F7E838F8342
:1006900098877801AB81BC81062F172F6F817885F1
:1006A00014988AE288B91398139A149AE8B913989F
:1006B000139AF8B91398139AB8B91398139AA8B95A
:1006C0001398139A14988BE288B91398139A149A72
:1006D00028B91398139A38B91398139A78B91398BC
:1006E000139A68B91398139A14988CE288B91398DE
:1006F000139A149A2F2F3E2FC901AC010DC0F8B8E0
:100700001398139AE8B81398139A2F5F3F4F621704
:100710007307A8F74F5F5F4FA417B50710F0980154
:10072000F6CF28960FB6F894DEBF0FBECDBFCF919F
:10073000DF911F910F91FF90EF900895EF92FF923C
:100740000F931F93DF93CF93CDB7DEB728970FB6E4
:10075000F894DEBF0FBECDBFF22F2983E32F3A837B
:100760004B835C83362F6D83272F7E838F839887FF
:10077000D8010B811C81E62EF72E6F8178851498A5
:100780008AE288B91398139A149AE8B91398139ABD
:10079000F8B91398139A18B91398139A08B91398BB
:1007A000139A14988BE288B91398139A149A28B95B
:1007B0001398139A38B91398139A78B91398139A0F
:1007C00068B91398139A14988CE288B91398139AFD
:1007D000149A2F2F3E2FC901AC0114C011968C9191
:1007E000119788B91398139A12968C91129788B919
:1007F00014961398139A2F5F3F4F6217730770F781
:100800004F5F5F4F0417150710F09701F6CF28963A
:100810000FB6F894DEBF0FBECDBFCF91DF911F9111
:100820000F91FF90EF9008950F931F93DF93CF9355
:10083000CDB7DEB728970FB6F894DEBF0FBECDBF99
:10084000109298031092970310929A0310929903B2
:10085000FE01319688E0DF011D928A95E9F78091CB
:10086000930390919403019700919D0310919E032F
:10087000209191033091920321503040422F3C83CC
:100880002B8398878F8329813A815C816D817E815A
:1008900098850E942F0328960FB6F894DEBF0FBEEE
:1008A000CDBFCF91DF911F910F9108954F925F922D
:1008B0007F928F929F92AF92BF92CF92DF92EF92F0
:1008C000FF920F931F93CF93DF93982F209197035D
:1008D0003091980344E0C42ED12CC20ED31E409018
:1008E000990350909A038A3081F4109298031092E1
:1008F000970348E050E0440E551E50929A034092F0
:100900009903E8EFFFEF4E0E5F1E892F80528F355F
:1009100008F0B9C08201095F1F4F85E09802E0012D
:100920001124C452D04014988BE288B91398139ABA
:10093000149A58B81398139A48B81398139A18B978
:100940001398139A08B91398139AB0909B03B09117
:100950009C0390909D03A0909E03A9019AE2792E9A
:100960008CE2882E3BC0149878B81398139A149A86
:1009700058B91398139A48B91398139A58B91398F9
:10098000139A48B91398139A149888B81398139A1D
:10099000149AFE018491B201A1E0E82EFF2418C050
:1009A0002A2F30E02E213F212115310511F49A2DF7
:1009B00001C09B2F98B91398139A232B11F4992DEA
:1009C00001C09B2D98B91398139A6F5F7F4FAA0FA0
:1009D0000617170728F721964F5F5F4FC416D506F5
:1009E00008F0C1CF14988AE288B91398139A149A20
:1009F00058B91398139A48B91398139A58B9139879
:100A0000139A48B91398139A14988CE288B91398DA
:100A1000139A149AC20107C0A8B81398139A98B8E9
:100A20001398139A019608171907B0F720919703A6
:100A3000309198032A5F3F4F309398032093970398
:100A4000809191039091920306978217930768F41F
:100A500010929803109297038091990390919A03B2
:100A6000089690939A0380939903809193039091B1
:100A7000940308972091990330919A038217930762
:100A800010F40E941404DF91CF911F910F91FF90F9
:100A9000EF90DF90CF90BF90AF909F908F907F901E
:100AA0005F904F9008951F93CF93DF93EC0110E078
:100AB00003C00E9456041F5FFE01E10FF11D8081FB
:100AC0008823B9F7DF91CF911F910895EF92FF929C
:100AD0001F93CF93DF937C01162FC62FD0E0C40F56
:100AE000D11D06C0EE0DFF1D80810E9456041F5FC0
:100AF000E12FF0E0EC17FD07ACF3DF91CF911F91F0
:100B0000FF90EF900895DF93CF93CDB7DEB728978E
:100B10000FB6F894DEBF0FBECDBFFE01319627E0C1
:100B200030E0482F50E070E361E3CA01022E02C0BA
:100B3000959587950A94E2F780FF02C0608301C013
:100B400070832150304031968FEF2F3F380769F77F
:100B50008CE391E00E945305CE01019660E048E0ED
:100B60000E94660528960FB6F894DEBF0FBECDBF73
:100B7000CF91DF9108951092C5008DE48093C40059
:100B800088E18093C10086E08093C200089580913F
:100B9000C00087FFFCCF8091C6000895982F8091F8
:100BA000C00085FFFCCF9093C6000895FC0107C0EC
:100BB0008091C00085FFFCCF9093C6003196908154
:100BC0009923B1F70895DC01262F30E0240F311D61
:100BD0000AC0EA0FFB1F40818091C00085FFFCCF57
:100BE0004093C6006F5FE62FF0E0E217F3078CF347
:100BF0000895DF93CF93CDB7DEB728970FB6F8945B
:100C0000DEBF0FBECDBFFE01319627E030E0482F9A
:100C100050E070E361E3CA01022E02C0959587950A
:100C20000A94E2F780FF02C0608301C07083215004
:100C3000304031968FEF2F3F380769F78CE391E012
:100C40000E94D605CE01019660E048E00E94E305CF
:100C500028960FB6F894DEBF0FBECDBFCF91DF91BF
:100C600008958FE391E00E94530580E090E008959D
:100C7000DC018091A0039091A103892B29F58DE4DB
:100C80008C9388E511968C9311978BE612968C9332
:100C900012978CE413968C9313978AE014968C9396
:100CA000149785E090E02DE6FD01E80FF91F208301
:100CB00001968F309105C1F783EF1F968C931F9794
:100CC0008FE750968C9350978091A0039091A10349
:100CD000019721F58DE48C9388E511968C931197FB
:100CE0008BE612968C9312978CE413968C93139741
:100CF0008AE014968C93149785E090E02DE6FD0130
:100D0000E80FF91F208301968F309105C1F783EF1B
:100D10001F968C931F978FE750968C938091A0031A
:100D20009091A10301969093A1038093A00380E08A
:100D300090E008958CE591E00E9453058FE391E0E7
:100D40000E9453058DE691E00E9453050895EF92AD
:100D5000FF920F931F937C018B0189E791E00E9422
:100D60005305F8018281F70180831F910F91FF9055
:100D7000EF900895FC0120E030E0A1E2B0E116C060
:100D80008081992787FD9095982F882728273927D4
:100D900048E0C901880F991F37FF04C09C012A272A
:100DA0003B2701C09C014150A1F731966150704032
:100DB00077FFE6CFC9010895EF92FF920F931F933B
:100DC000DF93CF93CDB7DEB7982FDB01EDB6FEB63C
:100DD0002DB73EB7295030400FB6F8943EBF0FBE36
:100DE0002DBF0DB71EB70F5F1F4FE2EAF3E0808102
:100DF000981719F421E030E007C0319633E0EC3A5F
:100E0000F307A9F720E030E08DE4F801808321307A
:100E1000310511F483E502C088E5F80181838EE491
:100E2000F8018283938382E084838C918583119679
:100E30008C918683C80167E070E00E94BA06F801D1
:100E4000978380878FE391E00E94530580E090E0D4
:100E50000FB6F894FEBE0FBEEDBECF91DF911F918D
:100E60000F91FF90EF900895EF92FF920F931F93D1
:100E7000DF93CF93CDB7DEB7EDB6FEB684E991E050
:100E80000E9453058DB79EB741970FB6F8949EBF49
:100E90000FBE8DBF0DB71EB70F5F1F4F9EE4EDB79E
:100EA000FEB7918380E3F8018183928383838AE094
:100EB000848325E030E0F801E20FF31FD901A35647
:100EC000BC4F8C9180832F5F3F4F2F30310599F7B6
:100ED000C8016FE070E00E94BA06F8019787808B26
:100EE000C8010E94530588EA91E00E9453058AEAEE
:100EF00091E00E9453050FB6F894FEBE0FBEEDBE02
:100F0000CF91DF911F910F91FF90EF9008958F92F5
:100F10009F92AF92BF92CF92DF92EF92FF920F9388
:100F20001F93DF93CF93CDB7DEB76B017C018DB6F6
:100F30009EB6042F10E0000F111F8DB79EB7801BC7
:100F4000910B0FB6F8949EBF0FBE8DBFADB6BEB667
:100F50000894A11CB11CEDB7FEB7E00FF11F40E0F3
:100F600050E020E030E016C0D701C601022E04C0D8
:100F7000B695A795979587950A94D2F78F708A3082
:100F800010F0895A01C0805D80834F5F5F4F3197B9
:100F90002C5F3F4F401751073CF380EB91E00E94DC
:100FA000D605C50160E0402F0E94E3050FB6F89416
:100FB0009EBE0FBE8DBECF91DF911F910F91FF900E
:100FC000EF90DF90CF90BF90AF909F908F9008955B
:100FD0008F929F92AF92BF92CF92DF92EF92FF9249
:100FE0000F931F93DF93CF93CDB7DEB76B017C01D7
:100FF0008DB69EB6042F10E0000F111F8DB79EB75F
:10100000801B910B0FB6F8949EBF0FBE8DBFADB67F
:10101000BEB60894A11CB11CEDB7FEB7E00FF11FDE
:1010200040E050E020E030E016C0D701C601022EBB
:1010300004C0B695A795979587950A94D2F78F70B7
:101040008A3010F0895A01C0805D80834F5F5F4F06
:1010500031972C5F3F4F401751073CF380EB91E0F5
:101060000E945305C50160E0402F0E9466050FB63F
:10107000F8949EBE0FBE8DBECF91DF911F910F9150
:10108000FF90EF90DF90CF90BF90AF909F908F90A8
:101090000895EF92FF920F931F93CF93DF93FC017C
:1010A00001900020E9F73197E81BF90BE80FF91FD1
:1010B0003297E190F08083EB91E00E9453056E2D12
:1010C000772767FD7095872F972F41E00E94E807EB
:1010D0006F2D772767FD7095872F972F41E00E942E
:1010E000E80788EA91E00E9453058EEB91E00E94A8
:1010F0005305C0E1D4E000E010E088818E1549F48A
:1011000089818F1531F480ED91E00E94530501E053
:1011100010E0229684E0C432D80779F70115110552
:1011200081F4FE01319780818183319784E0E13140
:10113000F807C9F7E0921004F08285EE91E00E9472
:10114000530585EF91E00E945305C801DF91CF91CF
:101150001F910F91FF90EF900895EF92FF920F93E0
:101160001F93DF93CF93CDB7DEB72B970FB6F894CD
:10117000DEBF0FBECDBFBC01CE0101960E94A70607
:1011800089E092E00E9453058BE192E00E945305B2
:1011900089810E94560488EA91E00E94530502EA80
:1011A00013E021E030E0D8019C918981981731F457
:1011B0008DE292E00E94530520E030E00F5F1F4F68
:1011C000B3E00C3A1B0779F72130310509F047C02D
:1011D00082E592E00E945305EE24FF2487010E551C
:1011E0001C4FF8018081882391F580E792E00E94EE
:1011F00053058981D8018C9385E892E00E945305BC
:1012000000D000D000D0EDB7FEB731968E010E5F52
:101210001F4FADB7BEB712961C930E9311978AE974
:1012200092E093838283F582E4820E94900BEDB773
:10123000FEB736960FB6F894FEBF0FBEEDBFC801DD
:101240000E94530588EA91E00E94530508C0089463
:10125000E11CF11CFAE0EF16F10409F0BFCF8DE9B3
:1012600092E00E9453052B960FB6F894DEBF0FBE96
:10127000CDBFCF91DF911F910F91FF90EF90089517
:101280000F931F93DF93CF93CDB7DEB728970FB699
:10129000F894DEBF0FBECDBF2DB73EB7285030400B
:1012A0000FB6F8943EBF0FBE2DBFEDB7FEB7319617
:1012B0008E010F5F1F4FADB7BEB712961C930E93F2
:1012C000119728E030E0338322832AE932E0358326
:1012D0002483978386830E945F0B2DB73EB7285FD8
:1012E0003F4F0FB6F8943EBF0FBE2DBFC8010E94FE
:1012F000D60528960FB6F894DEBF0FBECDBFCF91AE
:10130000DF911F910F9108950F931F93DF93CF9358
:10131000CDB7DEB728970FB6F894DEBF0FBECDBFAE
:101320002DB73EB7285030400FB6F8943EBF0FBEE1
:101330002DBFEDB7FEB731968E010F5F1F4FADB7D2
:10134000BEB712961C930E93119728E030E03383BA
:1013500022832AE932E035832483978386830E949F
:101360005F0B2DB73EB7285F3F4F0FB6F8943EBFD7
:101370000FBE2DBFC8010E94530528960FB6F894E2
:10138000DEBF0FBECDBFCF91DF911F910F910895AA
:10139000AF92BF92CF92DF92EF92FF920F931F9383
:1013A000CF93DF935C0182EB92E00E945305C5016D
:1013B0000E943806D5010D900020E9F78D010150FB
:1013C00010400A191B0984EC92E00E94530586ED37
:1013D00092E00E945305C8010E94840988EA91E0C6
:1013E0000E94530586EE92E00E9453057EEFE72EA1
:1013F0007FEFF72EE00EF11E6501CE0CDF1CF6012B
:101400006081772767FD7095872F972F41E00E94B5
:10141000E807E8012197CA0DDB1D6881772767FD82
:101420007095872F972F41E00E94E80788EA91E0A6
:101430000E945305C501B7010E94BA06E82E092F84
:10144000D6018C91891719F488818E1521F088EFC7
:1014500092E00E94530588E093E00E945305602FBC
:10146000772767FD7095872F972F41E00E94E80747
:101470006E2D772767FD7095872F972F41E00E948B
:10148000E80788E193E00E945305F501918180818E
:101490008D3469F08E3441F0883419F4C1E0D0E025
:1014A00015C0C0E0D0E012C0C2E0D0E00FC0D5014E
:1014B00013968C918E3419F4C3E0D0E007C09335B5
:1014C00019F4C5E0D0E002C0C4E0D0E08CE193E0C4
:1014D0000E945305CE01DF91CF911F910F91FF9094
:1014E000EF90DF90CF90BF90AF900895CF92DF92B2
:1014F000EF92FF920F931F93DF93CF93CDB7DEB799
:10150000C058D0400FB6F894DEBF0FBECDBF6B0100
:101510007E010894E11CF11C80E8F70111928A9584
:10152000E9F7C7010E94C809F70101900020E9F717
:101530008F01015010400E191F098330910591F061
:10154000843091051CF40197E1F506C084309105C3
:1015500021F10597B1F531C00E949A06C7010E949A
:10156000AD082FC083E293E00E94530598012350F9
:101570003040D701A20FB31FF8013797EC0DFD1DC6
:1015800006C08C91808321503040119731972530CF
:101590003105BCF721E030E016C086E393E00E94FD
:1015A0005305C7010E944908019759F08FE391E064
:1015B0000E9453058CE493E002C088E593E00E940A
:1015C000530520E030E0C901C058DF4F0FB6F89452
:1015D000DEBF0FBECDBFCF91DF911F910F91FF9066
:1015E000EF90DF90CF900895EF92FF920F931F93AB
:1015F000DF93CF93CDB7DEB72B970FB6F894DEBF4E
:101600000FBECDBF0E949E0283E090E00E94AB021D
:1016100019828E010E5F1F4F8AE0F80111928A95A0
:10162000E9F70E949A067E010894E11CF11CC701AB
:10163000B8010E94760A0E949A06C701B8010E946A
:10164000760AC8010E94530588EA91E00E9453057A
:10165000FFCFEF92FF920F931F93DF93CF93CDB7FE
:10166000DEB7C158D0400FB6F894DEBF0FBECDBF75
:10167000E2E0EE2EF12CEC0EFD1EC7010E94C8091F
:101680008C01CE010196B7010E94A7060130110519
:1016900021F4C7010E94AD0804C080E893E00E94D5
:1016A0005305CF57DF4F0FB6F894DEBF0FBECDBF47
:1016B000CF91DF911F910F91FF90EF900895AEE0D1
:1016C000B0E0E5E6FBE00C943F0E0D891E898F89A2
:1016D000988D97FF02C080E090E801979E838D83EC
:1016E0001A83098386E08C839E01255E3F4FCE01DD
:1016F0000196698D7A8DA9010E94B40B4D815E819E
:1017000057FD0AC02F813885421753070CF49A0100
:10171000020F131FF80110822E96E4E00C945B0E6A
:10172000AEE0B0E0E6E9FBE00C943F0E0D891E89C7
:1017300086E08C831A8309838FEF9FE79E838D83D6
:101740009E01275E3F4FCE0101966F89788DA901DA
:101750000E94B40B2F813885020F131FF8011082ED
:101760002E96E4E00C945B0EABE0B0E0EAEBFBE01D
:101770000C94310E3C012B015A01FC011782168298
:10178000838181FD03C06FEF7FEFC6C19AE0892E90
:101790001E010894211C311CF3012381F20123FD59
:1017A000859123FF81912F01882309F4B2C18532ED
:1017B00039F423FD859123FF81912F01853229F48E
:1017C00090E0B3010E94A70DE7CF982FFF24EE24ED
:1017D0009924FFE1FF15D0F09B3269F09C3228F488
:1017E000903259F0933291F40EC09D3249F090330B
:1017F00069F441E024C052E0F52A84E0F82A28C0C8
:1018000098E0F92A25C0E0E1FE2A22C0F7FC29C0B1
:10181000892F80538A3070F4F6FE05C0989C902C76
:101820001124980E15C0E89CE02C1124E80EF0E27B
:10183000FF2A0EC09E3229F4F6FC6BC140E4F42A64
:1018400007C09C3619F450E8F52A02C0983649F4CE
:10185000F20123FD959123FF91912F01992309F026
:10186000B8CF892F8554833018F08052833038F4F4
:1018700044E050E0A40EB51E5FE359830FC09336D9
:1018800031F0933779F0933509F056C020C0F50157
:101890008081898342E050E0A40EB51E610101E021
:1018A00010E012C0F501C080D180F6FC03C06FEFDC
:1018B0007FEF02C0692D70E042E050E0A40EB51E3B
:1018C000C6010E949C0D8C015FE7F52214C0F50152
:1018D000C080D180F6FC03C06FEF7FEF02C0692D9E
:1018E00070E042E050E0A40EB51EC6010E94910DCA
:1018F0008C0150E8F52AF3FE07C01AC080E290E0A0
:10190000B3010E94A70DEA948E2D90E008171907E5
:10191000A8F30EC0F601F7FC8591F7FE81916F01E7
:1019200090E0B3010E94A70DE110EA94015010402D
:101930000115110579F7EAC0943611F0993669F569
:10194000F7FE08C0F501208131814281538184E096
:1019500090E00AC0F501808191819C01442737FD08
:101960004095542F82E090E0A80EB91E9FE6F92220
:1019700057FF09C050954095309521953F4F4F4FE7
:101980005F4FE0E8FE2ACA01B901A1012AE030E078
:101990000E94D30DD82ED21840C0953729F41F2DA0
:1019A0001F7E2AE030E01DC01F2D197F9F3661F099
:1019B000903720F4983509F0ACC00FC0903739F05B
:1019C000983709F0A6C004C028E030E00AC01061D2
:1019D00014FD146020E130E004C014FD166020E125
:1019E00032E017FF08C0F501608171818281938127
:1019F00044E050E008C0F50180819181BC0180E0A5
:101A000090E042E050E0A40EB51EA1010E94D30D6B
:101A1000D82ED2188FE7F82EF122F6FE0BC05EEF1B
:101A2000F522D91438F4F4FE07C0F2FC05C08FEE9D
:101A3000F82202C01D2D01C0192DF4FE0DC0FE01BB
:101A4000ED0DF11D8081803319F499EEF92208C063
:101A50001F5FF2FE05C003C08F2D867809F01F5F5F
:101A60000F2DF3FC14C0F0FE0FC01E1510F09D2CBE
:101A70000BC09D2C9E0C911A1E2D06C080E290E09A
:101A8000B3010E94A70D1F5F1E15C0F304C01E15F1
:101A900010F4E11A01C0EE2404FF0FC080E390E0CF
:101AA000B3010E94A70D02FF1DC001FD03C088E71E
:101AB00090E00EC088E590E00BC0802F867891F012
:101AC00001FF02C08BE201C080E2F7FC8DE290E0F2
:101AD000B3010E94A70D06C080E390E0B3010E940D
:101AE000A70D9A94D914C0F3DA94F101ED0DF11D0C
:101AF000808190E0B3010E94A70DDD20A9F706C008
:101B000080E290E0B3010E94A70DEA94EE20C1F7B5
:101B100043CEF30166817781CB012B96E2E10C94F1
:101B20004D0EFC010590615070400110D8F7809572
:101B300090958E0F9F1F0895FC0161507040019099
:101B40000110D8F7809590958E0F9F1F08950F93E1
:101B50001F93CF93DF938C01EB018B8181FF1BC01F
:101B600082FF0DC02E813F818C819D81281739070E
:101B700064F4E881F9810193F983E88306C0E8857C
:101B8000F985802F0995892B31F48E819F810196EB
:101B90009F838E8302C00FEF1FEFC801DF91CF91AB
:101BA0001F910F910895FA01AA27283051F1203191
:101BB00081F1E8946F936E7F6E5F7F4F8F4F9F4FE1
:101BC000AF4FB1E03ED0B4E03CD0670F781F891F23
:101BD0009A1FA11D680F791F8A1F911DA11D6A0FF1
:101BE000711D811D911DA11D20D009F468943F91A4
:101BF0002AE0269F11243019305D3193DEF6CF01A3
:101C00000895462F4770405D4193B3E00FD0C9F768
:101C1000F6CF462F4F70405D4A3318F0495D31FDD5
:101C20004052419302D0A9F7EACFB4E0A695979528
:101C3000879577956795BA95C9F7009761057105FE
:101C400008959B01AC010A2E069457954795379548
:101C50002795BA95C9F7620F731F841F951FA01DA2
:101C600008952F923F924F925F926F927F928F9240
:101C70009F92AF92BF92CF92DF92EF92FF920F931B
:101C80001F93CF93DF93CDB7DEB7CA1BDB0B0FB625
:101C9000F894DEBF0FBECDBF09942A8839884888E2
:101CA0005F846E847D848C849B84AA84B984C88478
:101CB000DF80EE80FD800C811B81AA81B981CE0F6F
:101CC000D11D0FB6F894DEBF0FBECDBFED01089554
:041CD000F894FFCFB6
:101CD4000000013F00000000EF0000252705100967
:101CE4003A784D05180D383A1F001F1A180A0F06C6
:101CF4004587320A070207050000010000000A8236
:101D0400270000260800353E00001B0030620070EA
:101D140061636B65742070617373656420746F20F4
:101D24006C696E6B206C617965720A0073656E6410
:101D3400696E672068656C6C6F2E2E2E0068656C6A
:101D44006C6F2073656E740A0067657474696E67DE
:101D5400206E65696768626F75722061646472657C
:101D640073730A0073656E64696E67206E656967D4
:101D740068626F7572730A000A00646F6E650A0008
:101D8400307800436865636B73756D3A200063684F
:101D940065636B20636865636B73756D2E2E2E000F
:101DA400616C7265616479207472616E736D6974BB
:101DB4007465640A006368656B73756D2073746F72
:101DC4007265640A00656E6420636865636B2063F2
:101DD4006865636B73756D0A0070726F6365737306
:101DE400696E672048454C4C4F0A006E6569676808
:101DF400626F757220666F756E643A200064757048
:101E04006C6963617465206E65696768626F757279
:101E140020666F756E642C206D6F7665206F6E2E54
:101E24000A006E6F206475706C6963617465206E5E
:101E340065696768626F757220666F756E640A0003
:101E4400737061636520666F72206E65696768628E
:101E54006F75720A006E65696768626F75722073C8
:101E6400746F72656420696E20002564006E656974
:101E74006768626F75722070726F636573736564EF
:101E84000A0067657474696E67207061636B6574BA
:101E94002E2E2E007061636B657420726563696514
:101EA4007665643A20007061636B6574206C656EBE
:101EB4006774683A20005061636B657420436865F9
:101EC400636B73756D3A20006368656B73756D2081
:101ED4006661696C65640A0043616C6320436865EC
:101EE400636B73756D3A20002E2E2E00646F6E6541
:101EF4002E0A006D65737361676520666F72206DCD
:101F0400652E2E2E0A006D657373616765206E6FF2
:101F14007420666F72206D652E2E2E0072657472A9
:101F2400616E736D69740A0053696E6720686F701F
:101F3400206D657373616765206E6F7420666F72C0
:101F4400206D652E2E2E64726F707065642E0A00EB
:101F54006E6F2068656C6C6F207061636B65740ACA
:101F640000F0004001000000000000FFFF0000003E
:00000001FF
