:100000000C943E000C945B000C945B000C945B0021
:100010000C945B000C945B000C945B000C945B00F4
:100020000C945B000C945B000C945B000C945B00E4
:100030000C945B000C947B000C945B000C945B00B4
:100040000C945B000C945B000C945B000C945B00C4
:100050000C945B000C945B000C945B000C945B00B4
:100060000C945B000C945B000C945B000C945B00A4
:100070000C945B000C945B000C945B0011241FBE7D
:10008000CFEFD0E1DEBFCDBF15E0A0E0B1E0EAE701
:10009000FBE102C005900D92AC3DB107D9F716E027
:1000A000ACEDB5E001C01D92A23EB107E1F70E94A0
:1000B000110A0C94BB0D0C9400008FB7F89420919A
:1000C000DC053091DD054091DE055091DF058FBFE5
:1000D000B901CA0108958AE0809381008BED95E013
:1000E0009093890080938800EFE6F0E08081826041
:1000F0008083789408951F920F920FB60F92112467
:100100008F939F93AF93BF93F8948091DC05909168
:10011000DD05A091DE05B091DF050196A11DB11DA1
:100120008093DC059093DD05A093DE05B093DF0599
:100130007894BF91AF919F918F910F900FBE0F90C8
:100140001F9018951092C5008DE48093C40088E13B
:100150008093C10086E08093C20008958091C00022
:1001600087FFFCCF8091C6000895982F8091C00032
:1001700085FFFCCF9093C6000895FC0107C08091D5
:10018000C00085FFFCCF9093C600319690819923E3
:10019000B1F70895DC01262F30E0240F311D0AC08D
:1001A000EA0FFB1F40818091C00085FFFCCF409388
:1001B000C6006F5FE62FF0E0E217F3078CF30895B7
:1001C000DF93CF93CDB7DEB728970FB6F894DEBF95
:1001D0000FBECDBFFE01319627E030E0482F50E042
:1001E00070E361E3CA01022E02C0959587950A94D7
:1001F000E2F780FF02C0608301C07083215030406D
:1002000031968FEF2F3F380769F780E091E00E9429
:10021000BD00CE01019660E048E00E94CA00289629
:100220000FB6F894DEBF0FBECDBFCF91DF9108951A
:10023000EF92FF920F931F937C018B0183E091E07B
:100240000E94BD00F8018281F70180831F910F9108
:10025000FF90EF900895FC0120E030E0A1E2B0E1D2
:1002600016C08081992787FD9095982F8827282789
:10027000392748E0C901880F991F37FF04C09C0146
:100280002A273B2701C09C014150A1F731966150BC
:10029000704077FFE6CFC9010895EF92FF920F9368
:1002A0001F93CF93DF93DC01E901F701808186FF83
:1002B00003C081E08C9301C01C92808185FF04C043
:1002C00081E0DB018C9302C0DB011C92808184FF02
:1002D00004C081E0DA018C9302C0DA011C9218821A
:1002E00043E050E061E070E09B01042E02C0220F69
:1002F000331F0A94E2F78081992787FD9095282380
:100300003923220F331F220F331F3881322B3883BA
:1003100041505040BFEF4F3F5B0731F78181992734
:1003200087FD90958078907066E0959587956A95A1
:10033000E1F7232F282B28838181992787FD90952A
:100340008074907056E0959587955A95E1F7282B23
:10035000288381818F73F8018083DF91CF911F9172
:100360000F91FF90EF900895EF92FF920F93F70196
:1003700030E08295880F880F807C80686295660FD8
:10038000607E682B4295407F462B80E0482BC90158
:100390009595879595958795482B40830F73B6E083
:1003A000220F331FBA95E1F7022B80E0802B818367
:1003B0000F91FF90EF9008950F931F93FB01E00FB3
:1003C000F11FDC01A40FB11D40E050E030E004C09B
:1003D00081918D934F5F5F4F42175307CCF31F916D
:1003E0000F910895CF93DF93AC01E0EEF5E0EF01BC
:1003F00009900020E9F72197CE1BDF0B20E030E0C9
:100400000AC0FA01E20FF31FD901A052BA4F8C9132
:1004100080832F5F3F4F2C173D079CF380E090E0D7
:10042000DF91CF9108950F931F93CF93DF938B01AB
:10043000EB0109900020E9F72197C61BD70BE0EEEE
:10044000F5E0119286E0E036F807D9F78FE191E008
:100450000E94BD0020E030E00AC0F901E052FA4FEE
:10046000D801A20FB31F8C9180832F5F3F4F2C17B1
:100470003D079CF380E090E0DF91CF911F910F91B9
:100480000895EF92FF920F931F93DF93CF93CDB711
:10049000DEB7BC010DB71EB7DC010D900020E9F7F7
:1004A0001197A81BB90B17978DB79EB78A1B9B0B8B
:1004B0000FB6F8949EBF0FBE8DBF0196F82EE92EA1
:1004C000AC0125E030E0159609C0FB01E20FF31FF7
:1004D0008081FA018193AF012F5F3F4F2A173B07BD
:1004E000A4F38F2D9E2D0E94BD000FB6F8941EBF61
:1004F0000FBE0DBFCF91DF911F910F91FF90EF9035
:100500000895EF92FF920F931F93DF93CF93CDB790
:10051000DEB7EDB6FEB68DE391E00E94BD008DB76B
:100520009EB741970FB6F8949EBF0FBE8DBF0DB713
:100530001EB70F5F1F4F9EE4EDB7FEB7918380E3B8
:10054000F8018183928383838AE0848325E030E00D
:10055000F801E20FF31FD901A55AB94F8C9180839E
:100560002F5F3F4F2F30310599F7C8016FE070E0E2
:100570000E942B01F8019787808BC8010E94BD0063
:1005800082E591E00E94BD0085E591E00E94BD00FA
:100590000FB6F894FEBE0FBEEDBECF91DF911F9156
:1005A0000F91FF90EF9008958F929F92AF92BF921C
:1005B000CF92DF92EF92FF920F931F93DF93CF932F
:1005C000CDB7DEB76B017C018DB69EB6042F10E06F
:1005D000000F111F8DB79EB7801B910B0FB6F894BB
:1005E0009EBF0FBE8DBFADB6BEB60894A11CB11C98
:1005F000EDB7FEB7E00FF11F40E050E020E030E043
:1006000016C0D701C601022E04C0B695A7959795CE
:1006100087950A94D2F78F708A3010F0895A01C0FA
:10062000805D80834F5F5F4F31972C5F3F4F401756
:1006300051073CF38CE591E00E94BD00C50160E0EC
:10064000402F0E94CA000FB6F8949EBE0FBE8DBE0A
:10065000CF91DF911F910F91FF90EF90DF90CF909E
:10066000BF90AF909F908F900895EF92FF920F935D
:100670001F93CF93DF938C018FE591E00E94BD0023
:10068000F80101900020E9F73197E01BF10BE00F32
:10069000F11F3297E190F0808FE691E00E94BD005B
:1006A0006E2D772767FD7095872F972F41E00E9469
:1006B000D4028AE791E00E94BD006F2D772767FD85
:1006C0007095872F972F41E00E94D40282E591E038
:1006D0000E94BD00CEECD6E000E010E088818E15CF
:1006E00049F489818F1531F48CE791E00E94BD00B7
:1006F00001E010E0229686E0C23ED80779F70115A6
:10070000110581F4FE01319780818183319786E064
:10071000EF3CF807C9F7E092CE06F08281E991E05C
:100720000E94BD0081EA91E00E94BD00C801DF91F6
:10073000CF911F910F91FF90EF900895EF92FF924C
:100740000F931F93DF93CF93CDB7DEB72B970FB6E1
:10075000F894DEBF0FBECDBFBC01CE0101960E9452
:10076000180188EA91E00E94BD008BEB91E00E94A5
:10077000BD0099818091C00085FFFCCF9093C60099
:1007800082E591E00E94BD0000E616E021E030E045
:10079000D8019C918981981731F48DEC91E00E94E9
:1007A000BD0020E030E00F5F1F4FB6E00A361B07A8
:1007B00079F72130310509F047C083EF91E00E94BD
:1007C000BD00EE24FF248701005A194FF8018081F3
:1007D000882391F582E192E00E94BD008981D801D1
:1007E0008C9388E292E00E94BD0000D000D000D03F
:1007F000EDB7FEB731968E010E5F1F4FADB7BEB796
:1008000012961C930E9311978DE392E0938382834B
:10081000F582E4820E94E30AEDB7FEB736960FB682
:10082000F894FEBF0FBEEDBFC8010E94BD0082E577
:1008300091E00E94BD0008C00894E11CF11CFAE0A0
:10084000EF16F10409F0BFCF80E492E00E94BD00F2
:100850002B960FB6F894DEBF0FBECDBFCF91DF91C0
:100860001F910F91FF90EF9008950F931F93DF93C7
:10087000CF93CDB7DEB728970FB6F894DEBF0FBE83
:10088000CDBF2DB73EB7285030400FB6F8943EBFCD
:100890000FBE2DBFEDB7FEB731968E010F5F1F4F14
:1008A000ADB7BEB712961C930E93119728E030E0B7
:1008B000338322832DE332E0358324839783868339
:1008C0000E94B20A2DB73EB7285F3F4F0FB6F8948B
:1008D0003EBF0FBE2DBFC8010E94BD0028960FB6B7
:1008E000F894DEBF0FBECDBFCF91DF911F910F9166
:1008F0000895CF92DF92EF92FF920F931F93DF93B1
:10090000CF9300D000D00F92CDB7DEB76C01CE01EF
:100910000196BE016E5F7F4FAE014D5F5F4F9E013E
:100920002C5F3F4F8E010B5F1F4F76010E944D01E0
:1009300086E592E00E94BD00F60101900020E9F7F3
:100940003197CF018C199D090E94350484E792E00C
:100950000E94BD0081E892E00E94BD00F601808106
:100960000E94E00086E992E00E94BD00F6018181CC
:100970000E94E00089EA92E00E94BD008C8190E034
:100980000E94350485EB92E00E94BD008D8190E0CD
:100990000E9435048AEB92E00E94BD00F60162815C
:1009A000772767FD7095872F972F41E00E94D4022B
:1009B0008AEC92E00E94BD00F6016381772767FD13
:1009C0007095872F972F41E00E94D40288ED92E026
:1009D0000E94BD00F6018481992787FD90950E94B1
:1009E00035048BEE92E00E94BD00D6010D900020F0
:1009F000E9F7AC19BD09189790E00AC0EC0DFD1D90
:100A000025818091C00085FFFCCF2093C6009F5FA9
:100A1000E92FF0E0EA17FB0788F387EF92E00E94E6
:100A2000BD00F60101900020E9F73197EC19FD09AE
:100A3000EC0DFD1D32970191112707FD1095102F28
:100A40000027808190E0082B192BB80180E090E00E
:100A500042E00E94D4028FEF92E00E94BD00D601D6
:100A60000D900020E9F7AC19BD091397C601BD012F
:100A70000E942B010817190719F481E193E002C0C5
:100A800085E193E00E94BD000F900F900F900F90B2
:100A90000F90CF91DF911F910F91FF90EF90DF901A
:100AA000CF9008954F925F927F928F929F92AF92D4
:100AB000BF92CF92DF92EF92FF920F931F93DF933B
:100AC000CF93CDB7DEB7782E5B014DB65EB6DB01B6
:100AD0000D900020E9F77D010894E108F108E61A7D
:100AE000F70A88E193E00E94BD008FE293E00E9444
:100AF000BD00C7010E94350482E591E00E94BD005F
:100B0000C7010996EDB7FEB7E81BF90B0FB6F894CD
:100B1000FEBF0FBEEDBFCDB6DEB60894C11CD11C22
:100B20009C2C8D2CD6010D900020E9F78D010150F1
:100B300010400C191D0982E493E00E94BD00C80119
:100B40000E94350482E591E00E94BD0080E090E0C3
:100B5000D701179620E305C0F601E80FF91F20839F
:100B60000196A817B907C4F7AC0DBD1D1C92E92D5D
:100B7000F82DDF010D900020E9F78D0101501040A4
:100B80000E1B1F0B85E593E00E94BD00C8010E946B
:100B9000350482E591E00E94BD00E0E6F6E0808148
:100BA000781619F421E030E007C03196B6E0EA3655
:100BB000FB07A9F720E030E08DE4F60180832130C7
:100BC000310519F483E5818304C088E5D6011196C7
:100BD0008C938EE4F60182837382E482D60120E056
:100BE00030E009C0F501E20FF31F808114968C9369
:100BF00014972F5F3F4F11962E153F059CF3E92D5B
:100C0000F82DDF010D900020E9F77D010894E1083F
:100C1000F108EE1AFF0A88E693E00E94BD00C701C2
:100C20000E94350482E591E00E94BD0087010250D8
:100C30001040892D982DB8010E942B010C0D1D1D0F
:100C4000F8019083F601EE0DFF1D8293319610821C
:100C5000E92DF82DDF010D900020E9F78D010150FD
:100C600010400E1B1F0B8BE793E00E94BD00C801D4
:100C70000E94350482E591E00E94BD00872D692D18
:100C8000782D0E94130280E090E00FB6F8945EBECB
:100C90000FBE4DBECF91DF911F910F91FF90EF904E
:100CA000DF90CF90BF90AF909F908F907F905F909C
:100CB0004F900895AF92BF92CF92DF92EF92FF9242
:100CC0000F931F93CF93DF935C018EE893E00E9414
:100CD000BD00C5010E94F201D5010D900020E9F789
:100CE0008D01015010400A191B0980EA93E00E940F
:100CF000BD0082EB93E00E94BD00C8010E94350454
:100D000082E591E00E94BD0082EC93E00E94BD006C
:100D1000EEEFEE2EEFEFFE2EE00EF11E6501CE0C93
:100D2000DF1CF6016081772767FD7095872F972F6D
:100D300041E00E94D4028AE791E00E94BD00E801F0
:100D40002197CA0DDB1D6881772767FD7095872F76
:100D5000972F41E00E94D40282E591E00E94BD00FD
:100D6000C501B7010E942B01E82E092FD6018C91F5
:100D7000891731F488818E1519F4C1E0D0E006C0DE
:100D800084ED93E00E94BD00C0E0D0E085EE93E0EA
:100D90000E94BD00602F772767FD7095872F972FE2
:100DA00041E00E94D4028AE791E00E94BD006E2DCE
:100DB000772767FD7095872F972F41E00E94D40217
:100DC00085EF93E00E94BD002097E1F0F50191814D
:100DD00080818D3441F08E3419F4C2E0D0E012C02D
:100DE000C1E0D0E00FC0D50113968C918E3419F478
:100DF000C3E0D0E007C0933519F4C5E0D0E002C0ED
:100E0000C4E0D0E089EF93E00E94BD00CE01DF9105
:100E1000CF911F910F91FF90EF90DF90CF90BF90F7
:100E2000AF900895EF92FF920F931F93DF93CF93AC
:100E3000CDB7DEB7C158D0400FB6F894DEBF0FBEB5
:100E4000CDBFF2E0EF2EF12CEC0EFD1EC7010E948B
:100E50005A068C01CE010196B7010E94180101309B
:100E6000110521F4C7010E949E0304C081E094E0B3
:100E70000E94BD00CF57DF4F0FB6F894DEBF0FBE04
:100E8000CDBFCF91DF911F910F91FF90EF9008950B
:100E9000EF92FF920F931F93DF93CF93CDB7DEB7FF
:100EA00060970FB6F894DEBF0FBECDBF83E194E02C
:100EB0000E94BD00FE01319680E1DF011D928A95FE
:100EC000E9F788E489838A838EE48B838FEF8C83B0
:100ED00088E08D83FE01369629E6CE010E96219399
:100EE000E817F907E1F78DEC8E872F877E010894CC
:100EF000E11CF11CF70101900020E9F78F0101507E
:100F000010400E191F096889772767FD7095872F94
:100F1000972F41E00E94D40284E294E00E94BD0039
:100F2000C8010E94350482E591E00E94BD0080E086
:100F3000B7010E94130286E394E00E94BD00609610
:100F40000FB6F894DEBF0FBECDBFCF91DF911F91DA
:100F50000F91FF90EF900895CF92DF92EF92FF9262
:100F60000F931F93DF93CF93CDB7DEB7C058D04018
:100F70000FB6F894DEBF0FBECDBF7B016E010894A3
:100F8000C11CD11C80E8F60111928A95E9F7C601CF
:100F90000E945A06F60101900020E9F78F010150E6
:100FA00010400C191D0983309105C9F0843091055A
:100FB00034F4009759F0019709F04FC00AC084300B
:100FC0009105A9F1059709F048C043C083E494E076
:100FD00042C00E944807C6010E949E033EC080E6B0
:100FE00094E00E94BD00C8010E94350482E591E0B2
:100FF0000E94BD00DE01169620E030E0A8014750B7
:10100000504007C0F701E20FF31F8D9180832F5FDF
:101010003F4F24173507B4F3E00EF11E89EF9FEF21
:10102000E80EF91EF701108221E030E018C080E8D8
:1010300094E00E94BD00C6010E943503019769F04B
:1010400086E994E00E94BD008C81B6010E941302E3
:1010500004C086EA94E00E94BD0020E030E0C901AF
:10106000C058DF4F0FB6F894DEBF0FBECDBFCF9193
:10107000DF911F910F91FF90EF90DF90CF90089537
:101080000E94AC0780E090E008952F923F924F922B
:101090005F926F927F928F929F92AF92BF92CF9208
:1010A000DF92EF92FF920F931F93DF93CF93CDB711
:1010B000DEB765970FB6F894DEBF0FBECDBF6B01EC
:1010C0008FB7F8946090DC057090DD058090DE05A8
:1010D0009090DF058FBF81ED94E00E94BD0080E01D
:1010E00090E00E94350485EE94E00E94BD00B2E0DD
:1010F000AB2EB12CAC0EBD1EA6E12A2E312C2C0E2F
:101100003D1E2E010894411C511C8FB7F894E090AD
:10111000DC05F090DD050091DE051091DF058FBF45
:10112000E618F70808091909F5011192E215F30507
:10113000E1F7C201B5010E94AC078A81882331F131
:1011400087EE94E00E94BD00C5010E947904D6019B
:101150000D900020E9F79D01215030402C193D09E8
:1011600050E040E00AC0F601EA0FFB1FAA0DBB1DCC
:1011700090818C91981351E04F5FA42FB0E0A2179B
:10118000B30788F3552349F480E016C0C7010E94D5
:10119000350485EE94E00E94BD00B9EEEB16B3E095
:1011A000FB06B0E00B07B0E01B0708F4AECF82E50A
:1011B00091E00E94BD0081E065960FB6F894DEBF15
:1011C0000FBECDBFCF91DF911F910F91FF90EF9098
:1011D000DF90CF90BF90AF909F908F907F906F9057
:1011E0005F904F903F902F9008952F923F924F9293
:1011F0005F926F927F928F929F92AF92BF92CF92A7
:10120000DF92EF92FF920F931F93DF93CF93CDB7AF
:10121000DEB7CA51D1400FB6F894DEBF0FBECDBFC6
:10122000C75EDE4F8883C951D140462F272FFE016C
:10123000319688E191E0DF01BC011D926150704060
:10124000E1F7E42FF22FDF010D900020E9F77D0197
:101250000894E108F108EE1AFF0AC70164E170E0A2
:101260000E949E0A362E84E1689FC00111248E15CB
:101270009F0508F43394842F922F9C01390113E0C9
:10128000812E912C8C0E9D1E22242394AA24BB24F3
:10129000432C55240894410851084E0DC65EDE4F7C
:1012A0004883CA51D1409DC0ECE1F0E0AE9E6001A0
:1012B000AF9ED00CBE9ED00C112461E070E06C0F8C
:1012C0007D1FC60ED71E2F5F80E060E040E0032D3B
:1012D00076010E94B401A414B50411F004E106C023
:1012E000C65EDE4F0881CA51D1400619EFEFD40126
:1012F000EC93FFEF1196FC93119712960C932CE14F
:1013000030E0A29EF001A39EF00DB29EF00D1124DC
:10131000359661E070E06C0F7D1FE60FF71FD3017B
:1013200020E030E0E02EFF2404C08D9181932F5FF8
:101330003F4F2E153F05CCF387010B5F1F4FC601B2
:10134000B8010E942B01ACE1B0E0AA9EF001AB9E77
:10135000F00DBA9EF00D11240E0F1F1F21E030E09A
:101360002C0F3D1F020F131FD8019C93E20FF31F98
:10137000EE0DFF1D8683C6010E94790482E591E08F
:101380001DC080E095E00E94BD00C75EDE4F8881F1
:10139000C951D140B6010E94520584E195E00E94F6
:1013A000BD00C75EDE4F8881C951D140B6010E94A1
:1013B0004508282E882321F080E495E00E94BD0096
:1013C0002220F9F687E695E00E94BD000894A11C52
:1013D000B11CE4E1F0E06E0E7F1E2CE130E0820EE5
:1013E000931E2A2DA31408F45FCF80E090E0C65E20
:1013F000DE4F0FB6F894DEBF0FBECDBFCF91DF91A9
:101400001F910F91FF90EF90DF90CF90BF90AF9022
:101410009F908F907F906F905F904F903F902F9014
:1014200008956F927F928F929F92AF92BF92CF92C8
:10143000DF92EF92FF920F931F93DF93CF93CDB77D
:10144000DEB7C85ED3400FB6F894DEBF0FBECDBF87
:101450006DE4662E58E1752E46E0842E3AE0932E18
:101460002BEDA22E25E0B22E98EEC92E93E0D92EB8
:101470008E010F5F1F4F88EBE82E8BE0F82E109245
:10148000C5006092C4007092C1008092C200909228
:101490008100B0928900A092880080916F008260E4
:1014A00080936F00789489E795E00E94BD00F80171
:1014B000C60111920197E9F785E995E00E94BD0008
:1014C00020E030E08091C00087FFFCCF4091C60053
:1014D000842F80528F3560F48091C00085FFFCCF4F
:1014E0004093C600F801E20FF31F40832F5F3F4F88
:1014F000C7010197F1F74D3029F782E591E00E948D
:10150000BD00F80101900020E9F73197CF01801B61
:10151000910B0E94350485EA95E00E94BD00C80148
:101520000E94BD008EE4B8010E94F508892B09F4E1
:10153000A6CF86EC95E00E94BD00A1CFAA1BBB1BE5
:1015400051E107C0AA1FBB1FA617B70710F0A61BC3
:10155000B70B881F991F5A95A9F780959095BC01E4
:10156000CD010895AEE0B0E0E8EBFAE00C94920D06
:101570000D891E898F89988D97FF02C080E090E8C1
:1015800001979E838D831A83098386E08C839E0155
:10159000255E3F4FCE010196698D7A8DA9010E948B
:1015A000070B4D815E8157FD0AC02F813885421798
:1015B00053070CF49A01020F131FF80110822E96A4
:1015C000E4E00C94AE0DAEE0B0E0E9EEFAE00C948D
:1015D000920D0D891E8986E08C831A8309838FEF13
:1015E0009FE79E838D839E01275E3F4FCE0101962C
:1015F0006F89788DA9010E94070B2F813885020F12
:10160000131FF80110822E96E4E00C94AE0DABE0AF
:10161000B0E0EDE0FBE00C94840D3C012B015A019D
:10162000FC0117821682838181FD03C06FEF7FEF7B
:10163000C6C19AE0892E1E010894211C311CF301B9
:101640002381F20123FD859123FF81912F018823BE
:1016500009F4B2C1853239F423FD859123FF8191CC
:101660002F01853229F490E0B3010E94FA0CE7CFF4
:10167000982FFF24EE249924FFE1FF15D0F09B3230
:1016800069F09C3228F4903259F0933291F40EC0F4
:101690009D3249F0903369F441E024C052E0F52ACC
:1016A00084E0F82A28C098E0F92A25C0E0E1FE2A63
:1016B00022C0F7FC29C0892F80538A3070F4F6FECF
:1016C00005C0989C902C1124980E15C0E89CE02C25
:1016D0001124E80EF0E2FF2A0EC09E3229F4F6FC37
:1016E0006BC140E4F42A07C09C3619F450E8F52A8F
:1016F00002C0983649F4F20123FD959123FF9191A0
:101700002F01992309F0B8CF892F8554833018F021
:101710008052833038F444E050E0A40EB51E5FE3FD
:1017200059830FC0933631F0933779F0933509F030
:1017300056C020C0F5018081898342E050E0A40EAC
:10174000B51E610101E010E012C0F501C080D1803A
:10175000F6FC03C06FEF7FEF02C0692D70E042E03E
:1017600050E0A40EB51EC6010E94EF0C8C015FE78D
:10177000F52214C0F501C080D180F6FC03C06FEFE4
:101780007FEF02C0692D70E042E050E0A40EB51E6C
:10179000C6010E94E40C8C0150E8F52AF3FE07C054
:1017A0001AC080E290E0B3010E94FA0CEA948E2DF8
:1017B00090E008171907A8F30EC0F601F7FC859111
:1017C000F7FE81916F0190E0B3010E94FA0CE110E5
:1017D000EA94015010400115110579F7EAC09436DA
:1017E00011F0993669F5F7FE08C0F50120813181C5
:1017F0004281538184E090E00AC0F50180819181AB
:101800009C01442737FD4095542F82E090E0A80EBC
:10181000B91E9FE6F92257FF09C0509540953095B3
:1018200021953F4F4F4F5F4FE0E8FE2ACA01B901B3
:10183000A1012AE030E00E94260DD82ED21840C027
:10184000953729F41F2D1F7E2AE030E01DC01F2D83
:10185000197F9F3661F0903720F4983509F0ACC0BD
:101860000FC0903739F0983709F0A6C004C028E0BF
:1018700030E00AC0106114FD146020E130E004C0C3
:1018800014FD166020E132E017FF08C0F501608109
:1018900071818281938144E050E008C0F50180812C
:1018A0009181BC0180E090E042E050E0A40EB51EC2
:1018B000A1010E94260DD82ED2188FE7F82EF12212
:1018C000F6FE0BC05EEFF522D91438F4F4FE07C023
:1018D000F2FC05C08FEEF82202C01D2D01C0192DAB
:1018E000F4FE0DC0FE01ED0DF11D8081803319F471
:1018F00099EEF92208C01F5FF2FE05C003C08F2DCC
:10190000867809F01F5F0F2DF3FC14C0F0FE0FC0A6
:101910001E1510F09D2C0BC09D2C9E0C911A1E2D97
:1019200006C080E290E0B3010E94FA0C1F5F1E1512
:10193000C0F304C01E1510F4E11A01C0EE2404FF28
:101940000FC080E390E0B3010E94FA0C02FF1DC0BB
:1019500001FD03C088E790E00EC088E590E00BC071
:10196000802F867891F001FF02C08BE201C080E2F7
:10197000F7FC8DE290E0B3010E94FA0C06C080E310
:1019800090E0B3010E94FA0C9A94D914C0F3DA944F
:10199000F101ED0DF11D808190E0B3010E94FA0C80
:1019A000DD20A9F706C080E290E0B3010E94FA0CA6
:1019B000EA94EE20C1F743CEF30166817781CB0133
:1019C0002B96E2E10C94A00DFC0105906150704053
:1019D0000110D8F7809590958E0F9F1F0895FC01F8
:1019E0006150704001900110D8F7809590958E0F4E
:1019F0009F1F08950F931F93CF93DF938C01EB01EB
:101A00008B8181FF1BC082FF0DC02E813F818C81A5
:101A10009D812817390764F4E881F9810193F983DE
:101A2000E88306C0E885F985802F0995892B31F474
:101A30008E819F8101969F838E8302C00FEF1FEFDF
:101A4000C801DF91CF911F910F910895FA01AA2744
:101A5000283051F1203181F1E8946F936E7F6E5FF1
:101A60007F4F8F4F9F4FAF4FB1E03ED0B4E03CD09F
:101A7000670F781F891F9A1FA11D680F791F8A1F82
:101A8000911DA11D6A0F711D811D911DA11D20D0E9
:101A900009F468943F912AE0269F11243019305DA3
:101AA0003193DEF6CF010895462F4770405D419394
:101AB000B3E00FD0C9F7F6CF462F4F70405D4A33E1
:101AC00018F0495D31FD4052419302D0A9F7EACFA9
:101AD000B4E0A6959795879577956795BA95C9F7D8
:101AE00000976105710508959B01AC010A2E0694CB
:101AF0005795479537952795BA95C9F7620F731F84
:101B0000841F951FA01D08952F923F924F925F92C0
:101B10006F927F928F929F92AF92BF92CF92DF92FD
:101B2000EF92FF920F931F93CF93DF93CDB7DEB762
:101B3000CA1BDB0B0FB6F894DEBF0FBECDBF0994F6
:101B40002A88398848885F846E847D848C849B844D
:101B5000AA84B984C884DF80EE80FD800C811B815B
:101B6000AA81B981CE0FD11D0FB6F894DEBF0FBE8A
:0A1B7000CDBFED010895F894FFCFFA
:101B7A0030620067657474696E67206E65696768AC
:101B8A00626F757220616464726573730D0A007006
:101B9A0061636B65742070617373656420746F2070
:101BAA006C696E6B206C617965720D0A0073656EE3
:101BBA0064696E67206E65696768626F7572730D16
:101BCA000A000D0A00646F6E650D0A003078006322
:101BDA006865636B20636865636B73756D2C00437E
:101BEA006865636B73756D3A20002000616C7265DD
:101BFA00616479207472616E736D69747465642CA2
:101C0A00006368656B73756D2073746F7265642CFD
:101C1A0000454E442E0D0A0070726F636573736936
:101C2A006E672048454C4C4F0D0A006E656967681F
:101C3A00626F757220666F756E643A200064757003
:101C4A006C6963617465206E65696768626F757235
:101C5A0020666F756E642C206D6F7665206F6E2E10
:101C6A000D0A006E6F206475706C6963617465207B
:101C7A006E65696768626F757220666F756E640D4E
:101C8A000A00737061636520666F72206E6569670A
:101C9A0068626F75720D0A006E65696768626F75B2
:101CAA00722073746F72656420696E200025640067
:101CBA006E65696768626F75722070726F636573AB
:101CCA007365640D0A000D0A0D0A4465636F646941
:101CDA006E67207365676D656E7420746861742021
:101CEA0069732000206279746573206C6F6E672EA9
:101CFA00000D0A0D0A436F6E74726F6C204279747C
:101D0A006520313A20000D0A436F6E74726F6C20A1
:101D1A004279746520323A20000D0A5365676D6571
:101D2A006E743A2000206F6620000D0A536F757298
:101D3A00636520506F72743A20000D0A446573740B
:101D4A0020506F72743A20000D0A4D6573736167F3
:101D5A0065204C656E6774683A20000D0A4D6573FC
:101D6A00736167653A20000D0A4352433A20000D19
:101D7A000A5365676D656E742056616C69643A2012
:101D8A0000596573004E6F000D0A424547494E20BF
:101D9A0053454E44205345474D454E540D0A000DB8
:101DAA000A7365676D656E74206C656E6774683A50
:101DBA002000312E207061636B6574206C656E673C
:101DCA0074683A2000322E207061636B6574206C4F
:101DDA00656E6774683A2000332E207061636B6504
:101DEA0074206C656E6774683A2000342E20706126
:101DFA00636B6574206C656E6774683A200067656A
:101E0A007474696E67207061636B65742E2E2E0080
:101E1A007061636B65742072656369657665643A9F
:101E2A0020007061636B6574206C656E6774683A34
:101E3A0020005061636B657420436865636B73753A
:101E4A006D3A20006368656B73756D206661696C15
:101E5A0065640D0A0043616C6320436865636B73B4
:101E6A00756D3A20002E2E2E00646F6E652E0D0AB7
:101E7A00006E6F2068656C6C6F207061636B6574AF
:101E8A000D0A0073656E64696E672068656C6C6F15
:101E9A002E2E2E0068207061636B6574206C656E4F
:101EAA006774683A200068656C6C6F2073656E749D
:101EBA000D0A007061636B657420636F72727570CE
:101ECA007465642C2064726F707065642E0D0A004C
:101EDA006D65737361676520666F72206D652E206C
:101EEA007061636B6574206C656E6774683A200074
:101EFA006D657373616765206E6F7420666F7220FB
:101F0A006D652E0D0A0072657472616E736D697467
:101F1A00696E673A200053696E676C6520686F7056
:101F2A00206D657373616765206E6F7420666F72CA
:101F3A00206D652E2E2E64726F707065642E0D0AE8
:101F4A000054696D652077616974656420286D7332
:101F5A00293A0D0A000D000D0A0D0A5265636569DA
:101F6A0076696E67207365676D656E742E2E2E0016
:101F7A000D0A0D0A53656E64696E67207365676D95
:101F8A00656E74000D0A5365676D656E742073651E
:101F9A006E742C2077616974696E67206F6E206198
:101FAA00636B6E6F776C6564676D656E740D0A009E
:101FBA000D0A4E6F2061636B6E6F776C6564676D97
:101FCA00656E742C20726573656E64696E67207322
:101FDA0065676D656E74000D0A0D0A41636B6E6F5D
:101FEA00776C65646765642E000D0A0D0A0D0A0D8B
:101FFA000A496E697469616C6973696E672E2E2E5F
:10200A000D0A0D0A00456E746572206D6573736161
:10201A0067653A20002063686172616374657220A3
:10202A006C6F6E67206D6573736167652072656199
:10203A0064733A0D0A004572726F722073656E649A
:0C204A00696E67206D6573736167650047
:00000001FF
