:100000000C943E000C945B000C945B000C945B0021
:100010000C945B000C945B000C945B000C945B00F4
:100020000C945B000C945B000C945B000C945B00E4
:100030000C945B000C947B000C945B000C945B00B4
:100040000C945B000C945B000C945B000C945B00C4
:100050000C945B000C945B000C945B000C945B00B4
:100060000C945B000C945B000C945B000C945B00A4
:100070000C945B000C945B000C945B0011241FBE7D
:10008000CFEFD0E1DEBFCDBF16E0A0E0B1E0E2E807
:10009000FCE102C005900D92A63BB107D9F717E02D
:1000A000A6EBB6E001C01D92AD33B107E1F70E94A7
:1000B000900A0C943F0E0C9400008FB7F894209196
:1000C000B6063091B7064091B8065091B9068FBF79
:1000D000B901CA0108958AE0809381008BED95E013
:1000E0009093890080938800EFE6F0E08081826041
:1000F0008083789408951F920F920FB60F92112467
:100100008F939F93AF93BF93F8948091B60690918D
:10011000B706A091B806B091B9060196A11DB11D10
:100120008093B6069093B706A093B806B093B9062D
:100130007894BF91AF919F918F910F900FBE0F90C8
:100140001F9018951092C5008DE48093C40088E13B
:100150008093C10086E08093C20008958091C00022
:1001600087FFFCCF8091C6000895982F8091C00032
:1001700085FFFCCF9093C6000895FC0107C08091D5
:10018000C00085FFFCCF9093C600319690819923E3
:10019000B1F70895DC01262F30E0240F311D0AC08D
:1001A000EA0FFB1F40818091C00085FFFCCF409388
:1001B000C6006F5FE62FF0E0E217F3078CF30895B7
:1001C000DF93CF93CDB7DEB728970FB6F894DEBF95
:1001D0000FBECDBFFE01319627E030E0482F50E042
:1001E00070E361E3CA01022E02C0959587950A94D7
:1001F000E2F780FF02C0608301C07083215030406D
:1002000031968FEF2F3F380769F780E091E00E9429
:10021000BD00CE01019660E048E00E94CA00289629
:100220000FB6F894DEBF0FBECDBFCF91DF9108951A
:10023000EF92FF920F931F937C018B0183E091E07B
:100240000E94BD00F8018281F70180831F910F9108
:10025000FF90EF900895FC0120E030E0A1E2B0E1D2
:1002600016C08081992787FD9095982F8827282789
:10027000392748E0C901880F991F37FF04C09C0146
:100280002A273B2701C09C014150A1F731966150BC
:10029000704077FFE6CF832F992787FD9A95892BAA
:1002A00009F43F6F222309F42F6FC9010895EF92DB
:1002B000FF920F931F93CF93DF93DC01E901F701C6
:1002C000808186FF03C081E08C9301C01C928081F5
:1002D00085FF04C081E0DB018C9302C0DB011C922E
:1002E000808184FF04C081E0DA018C9302C0DA01CE
:1002F0001C92188243E050E061E070E09B01042E04
:1003000002C0220F331F0A94E2F78081992787FDEC
:10031000909528233923220F331F220F331F388152
:10032000322B388341505040BFEF4F3F5B0731F7CE
:100330008181992787FD90958078907066E09595EA
:1003400087956A95E1F7232F282B288381819927A8
:1003500087FD90958074907056E0959587955A9595
:10036000E1F7282B288381818F73F8018083DF9147
:10037000CF911F910F91FF90EF900895EF92FF9210
:100380000F93F70130E08295880F880F807C80689A
:100390006295660F607E682B4295407F462B80E019
:1003A000482BC9019595879595958795482B40834E
:1003B0000F73B6E0220F331FBA95E1F7022B80E0EE
:1003C000802B81830F91FF90EF9008950F931F93DF
:1003D000FB01E00FF11FDC01A40FB11D40E050E074
:1003E00030E004C081918D934F5F5F4F42175307F8
:1003F000CCF31F910F910895EF92FF920F931F93EB
:10040000DF93CF93CDB7DEB7BC010DB71EB7DC01CC
:100410000D900020E9F71197A81BB90B17978DB71E
:100420009EB78A1B9B0B0FB6F8949EBF0FBE8DBF65
:100430000196F82EE92EAC0125E030E0159609C0B2
:10044000FB01E20FF31F8081FA018193AF012F5F5F
:100450003F4F2A173B07A4F38F2D9E2D0E94BD000E
:100460000FB6F8941EBF0FBE0DBFCF91DF911F9145
:100470000F91FF90EF900895EF92FF920F931F93CB
:10048000DF93CF93CDB7DEB7EDB6FEB68FE191E047
:100490000E94BD008DB79EB741970FB6F8949EBFDE
:1004A0000FBE8DBF0DB71EB70F5F1F4F9EE4EDB798
:1004B000FEB7918380E3F8018183928383838AE08E
:1004C000848325E030E0F801E20FF31FD901AA543C
:1004D000B94F8C9180832F5F3F4F2F30310599F7B3
:1004E000C8016FE070E00E942B01F8019787808BB4
:1004F000C8010E94BD0084E391E00E94BD0087E333
:1005000091E00E94BD000FB6F894FEBE0FBEEDBE96
:10051000CF91DF911F910F91FF90EF9008958F92EF
:100520009F92AF92BF92CF92DF92EF92FF920F9382
:100530001F93DF93CF93CDB7DEB76B017C018DB6F0
:100540009EB6042F10E0000F111F8DB79EB7801BC1
:10055000910B0FB6F8949EBF0FBE8DBFADB6BEB661
:100560000894A11CB11CEDB7FEB7E00FF11F40E0ED
:1005700050E020E030E016C0D701C601022E04C0D2
:10058000B695A795979587950A94D2F78F708A307C
:1005900010F0895A01C0805D80834F5F5F4F3197B3
:1005A0002C5F3F4F401751073CF38EE391E00E94D0
:1005B000BD00C50160E0402F0E94CA000FB6F8944C
:1005C0009EBE0FBE8DBECF91DF911F910F91FF9008
:1005D000EF90DF90CF90BF90AF909F908F90089555
:1005E000EF92FF920F931F93CF93DF938C0181E4DF
:1005F00091E00E94BD00F80101900020E9F73197D9
:10060000E01BF10BE00FF11F3297E190F08081E5E4
:1006100091E00E94BD006E2D772767FD7095872FB2
:10062000972F41E00E948F028CE591E00E94BD006F
:100630006F2D772767FD7095872F972F41E00E94D8
:100640008F0284E391E00E94BD00C9E2D7E000E0A0
:1006500010E088818E1549F489818F1531F48EE57B
:1006600091E00E94BD0001E010E0229687E0CD33CA
:10067000D80779F70115110581F4FE0131978081C2
:100680008183319787E0EA32F807C9F7E0922907BA
:10069000F08283E791E00E94BD0083E891E00E9430
:1006A000BD00C801DF91CF911F910F91FF90EF9096
:1006B0000895EF92FF920F931F93DF93CF93CDB7DF
:1006C000DEB72B970FB6F894DEBF0FBECDBFBC01CF
:1006D000CE0101960E9418018AE891E00E94BD00B7
:1006E0008DE991E00E94BD0099818091C00085FF55
:1006F000FCCF9093C60084E391E00E94BD000BEB19
:1007000016E021E030E0D8019C918981981731F4FE
:100710008FEA91E00E94BD0020E030E00F5F1F4FA4
:10072000B6E0053C1B0779F72130310509F047C0D9
:1007300085ED91E00E94BD00EE24FF248701055461
:10074000194FF8018081882391F584EF91E00E9490
:10075000BD008981D8018C938AE092E00E94BD009F
:1007600000D000D000D0EDB7FEB731968E010E5FFD
:100770001F4FADB7BEB712961C930E9311978FE122
:1007800092E093838283F582E4820E94670BEDB747
:10079000FEB736960FB6F894FEBF0FBEEDBFC80188
:1007A0000E94BD0084E391E00E94BD0008C008944F
:1007B000E11CF11CFAE0EF16F10409F0BFCF82E270
:1007C00092E00E94BD002B960FB6F894DEBF0FBEDC
:1007D000CDBFCF91DF911F910F91FF90EF900895C2
:1007E0000F931F93DF93CF93CDB7DEB728970FB644
:1007F000F894DEBF0FBECDBF2DB73EB728503040B6
:100800000FB6F8943EBF0FBE2DBFEDB7FEB73196C1
:100810008E010F5F1F4FADB7BEB712961C930E939C
:10082000119728E030E0338322832FE132E03583D3
:100830002483978386830E94360B2DB73EB7285FAB
:100840003F4F0FB6F8943EBF0FBE2DBFC8010E94A8
:10085000BD0028960FB6F894DEBF0FBECDBFCF9176
:10086000DF911F910F910895CF92DF92EF92FF9247
:100870000F931F93DF93CF9300D000D00F92CDB78B
:10088000DEB76C01CE010196BE016E5F7F4FAE01F7
:100890004D5F5F4F9E012C5F3F4F8E010B5F1F4FDF
:1008A00076010E94570188E392E00E94BD00F601A4
:1008B00001900020E9F73197CF018C199D090E9422
:1008C000F00386E592E00E94BD0083E692E00E947C
:1008D000BD00F60180810E94E00088E792E00E945E
:1008E000BD00F60181810E94E0008BE892E00E9449
:1008F000BD008C8190E00E94F00387E992E00E94A5
:10090000BD008D8190E00E94F0038CE992E00E948E
:10091000BD00F6016281772767FD7095872F972FBD
:1009200041E00E948F028CEA92E00E94BD00F60135
:100930006381772767FD7095872F972F41E00E948D
:100940008F028AEB92E00E94BD00F601848190E064
:100950000E94F0038DEC92E00E94BD00D6010D9044
:100960000020E9F7AC19BD09189790E00AC0EC0D1A
:10097000FD1D25818091C00085FFFCCF2093C6001E
:100980009F5FE92FF0E0EA17FB0788F389ED92E01B
:100990000E94BD00F60101900020E9F73197EC19A3
:1009A000FD09EC0DFD1D32970191112707FD1095F2
:1009B000102F0027808190E0082B192BB80180E0D0
:1009C00090E042E00E948F0281EE92E00E94BD0022
:1009D000D6010D900020E9F7AC19BD091397C601A7
:1009E000BD010E942B010817190719F483EF92E04B
:1009F00002C087EF92E00E94BD000F900F900F9011
:100A00000F900F90CF91DF911F910F91FF90EF907A
:100A1000DF90CF9008950F931F93CF93DF938C01B6
:100A20008AEF92E00E94BD00EAEBF6E0EF01099048
:100A30000020E9F72197CE1BDF0B8DE093E00E94A9
:100A4000BD00CE010E94F00384E391E00E94BD004E
:100A500020E030E00AC0F801E20FF31FD901A654EC
:100A6000B94F8C9180832F5F3F4F2C173D079CF32C
:100A70001092BA06F801D8010D900020E9F78D0117
:100A8000015010400E1B1F0B83E293E00E94BD003B
:100A9000C8010E94F00384E391E00E94BD0088E356
:100AA00093E00E94BD0080E090E0DF91CF911F9124
:100AB0000F910895AF92BF92CF92DF92EF92FF9283
:100AC0000F931F93CF93DF935C0189E493E00E941F
:100AD000BD00C5010E940B05D5010D900020E9F76E
:100AE0008D01015010400A191B098EE593E00E9408
:100AF000BD0080E793E00E94BD00C8010E94F003A2
:100B000084E391E00E94BD0080E893E00E94BD0074
:100B1000EEEFEE2EEFEFFE2EE00EF11E6501CE0C95
:100B2000DF1CF6016081772767FD7095872F972F6F
:100B300041E00E948F028CE591E00E94BD00E80137
:100B40002197CA0DDB1D6881772767FD7095872F78
:100B5000972F41E00E948F0284E391E00E94BD0044
:100B6000C501B7010E942B01E82E092FD6018C91F7
:100B7000891731F488818E1519F4C1E0D0E006C0E0
:100B800082E993E00E94BD00C0E0D0E083EA93E0F8
:100B90000E94BD00602F772767FD7095872F972FE4
:100BA00041E00E948F028CE591E00E94BD006E2D15
:100BB000772767FD7095872F972F41E00E948F025E
:100BC00083EB93E00E94BD002097E1F0F501918155
:100BD00080818D3441F08E3419F4C2E0D0E012C02F
:100BE000C1E0D0E00FC0D50113968C918E3419F47A
:100BF000C3E0D0E007C0933519F4C5E0D0E002C0EF
:100C0000C4E0D0E087EB93E00E94BD008FEB93E05F
:100C10000E94BD00CE01DF91CF911F910F91FF90F7
:100C2000EF90DF90CF90BF90AF900895EF92FF923A
:100C30000F931F93DF93CF93CDB7DEB7C158D0404A
:100C40000FB6F894DEBF0FBECDBFF2E0EF2EF12C51
:100C5000EC0EFD1EC7010E945A058C01CE010196C3
:100C6000B7010E9418010130110521F4C7010E944B
:100C7000590304C082ED93E00E94BD00CF57DF4FBF
:100C80000FB6F894DEBF0FBECDBFCF91DF911F919D
:100C90000F91FF90EF9008950F931F93CF93DF93E1
:100CA000EB0184EE93E00E94BD00DE010D90002078
:100CB000E9F78D01015010400C1B1D0B1092BA0674
:100CC00020E030E00AC0F901E654F94FDE01A20F3E
:100CD000B31F8C9180832F5F3F4F201731079CF308
:100CE00088EF93E00E94BD0082E094E00E94BD0086
:100CF000EAEBF6E001900020E9F73197CF018A5B3B
:100D000096400E94F00382E094E00E94BD00C0E0A3
:100D1000D0E00EC0FE01E654F94F8081992787FD8F
:100D200090950E94F00382E094E00E94BD0021961D
:100D3000C017D1077CF384E094E00E94BD0080E0FE
:100D400090E0DF91CF911F910F9108954F925F92A4
:100D50007F928F929F92AF92BF92CF92DF92EF924B
:100D6000FF920F931F93DF93CF93CDB7DEB7782E0B
:100D70005B014DB65EB686E194E00E94BD00D501F0
:100D80000D900020E9F77D010894E108F108EA18C8
:100D9000FB088DE294E00E94BD00C7010E94F003B1
:100DA00084E391E00E94BD00C7010996EDB7FEB74C
:100DB000E81BF90B0FB6F894FEBF0FBEEDBFCDB622
:100DC000DEB60894C11CD11C9C2C8D2CD6010D9034
:100DD0000020E9F78D01015010400C191D0980E435
:100DE00094E00E94BD00C8010E94F00384E391E0FA
:100DF0000E94BD0080E090E0D701179620E305C077
:100E0000F601E80FF91F20830196A817B907C4F768
:100E1000AC0DBD1D1C92E92DF82DDF010D900020B9
:100E2000E9F78D01015010400E1B1F0B83E594E084
:100E30000E94BD00C8010E94F00384E391E00E947B
:100E4000BD00EBEBF6E08081781619F421E030E08C
:100E500007C03196B6E0E53CFB07A9F720E030E09B
:100E60008DE4F60180832130310519F483E5818317
:100E700004C088E5D60111968C938EE4F601828336
:100E80007382E482D60120E030E009C0F501E20F70
:100E9000F31F808114968C9314972F5F3F4F119608
:100EA0002E153F059CF3E92DF82DDF010D90002054
:100EB000E9F77D010894E108F108EE1AFF0A86E6D9
:100EC00094E00E94BD00C7010E94F00384E391E01A
:100ED0000E94BD00870102501040892D982DB80155
:100EE0000E942B010C0D1D1DF8019083F601EE0DE3
:100EF000FF1D829331961082E92DF82DDF010D90B0
:100F00000020E9F78D01015010400E1B1F0B89E7EF
:100F100094E00E94BD00C8010E94F00384E391E0C8
:100F20000E94BD00872D692D782D0E944C068CE80B
:100F300094E00E94BD0080E090E00FB6F8945EBEA1
:100F40000FBE4DBECF91DF911F910F91FF90EF909B
:100F5000DF90CF90BF90AF909F908F907F905F90E9
:100F60004F900895EF92FF920F931F93DF93CF93CB
:100F7000CDB7DEB760970FB6F894DEBF0FBECDBF1A
:100F800081EA94E00E94BD00FE01319680E1DF011C
:100F90001D928A95E9F788E489838A838EE48B839E
:100FA0008FEF8C8388E08D83FE01369629E6CE0193
:100FB0000E962193E817F907E1F78DEC8E872F87BE
:100FC0007E010894E11CF11CF70101900020E9F773
:100FD0008F01015010400E191F096889772767FD9E
:100FE0007095872F972F41E00E948F0282EB94E04B
:100FF0000E94BD00C8010E94F00384E391E00E94BA
:10100000BD0080E0B7010E944C0684EC94E00E9491
:10101000BD0060960FB6F894DEBF0FBECDBFCF9176
:10102000DF911F910F91FF90EF900895CF92DF9283
:10103000EF92FF920F931F93DF93CF93CDB7DEB75D
:10104000C058D0400FB6F894DEBF0FBECDBF7B01B5
:1010500081ED94E00E94BD006E010894C11CD11C7A
:1010600080E8F60111928A95E9F7C6010E945A05B7
:10107000F60101900020E9F78F01015010400C1992
:101080001D0983309105C9F08430910534F400972F
:1010900059F0019709F052C00AC084309105A9F1B6
:1010A000059709F04BC046C08BEE94E045C00E9406
:1010B000B207C6010E94590341C088E095E00E9432
:1010C000BD00C8010E94F00384E391E00E94BD00CE
:1010D000DE01169620E030E0A8014750504007C0DE
:1010E000F701E20FF31F8D9180832F5F3F4F24178D
:1010F0003507B4F3E00EF11E89EF9FEFE80EF91EFD
:10110000F701108201E010E01BC088E295E00E9428
:10111000BD00C6010E94F002019749F08EE395E000
:101120000E94BD008C81B6010E944C0607C08FE46E
:1011300095E002C087E695E00E94BD0000E010E067
:1011400082E995E00E94BD00C801C058DF4F0FB68C
:10115000F894DEBF0FBECDBFCF91DF911F910F91ED
:10116000FF90EF90DF90CF9008950E94160880E0E6
:1011700090E008952F923F924F925F926F927F92EC
:101180008F929F92AF92BF92CF92DF92EF92FF9297
:101190000F931F93DF93CF93CDB7DEB765970FB64D
:1011A000F894DEBF0FBECDBF6B018FB7F89460908F
:1011B000B6067090B7068090B8069090B9068FBFBB
:1011C0008AEA95E00E94BD0080E090E00E94F00372
:1011D0008EEB95E00E94BD00B2E0AB2EB12CAC0EC0
:1011E000BD1EA6E12A2E312C2C0E3D1E2E01089488
:1011F000411C511C8FB7F894E090B606F090B706EA
:101200000091B8061091B9068FBFE618F7080809D3
:101210001909F5011192E215F305E1F7C201B501D3
:101220000E9416088A81882331F180EC95E00E94A3
:10123000BD00C5010E943404D6010D900020E9F7DD
:101240009D01215030402C193D0950E040E00AC07A
:10125000F601EA0FFB1FAA0DBB1D90818C9198131C
:1012600051E04F5FA42FB0E0A217B30788F35523D6
:1012700049F480E016C0C7010E94F0038EEB95E0B0
:101280000E94BD00B9EEEB16B3E0FB06B0E00B0721
:10129000B0E01B0708F4AECF84E391E00E94BD00EC
:1012A00081E065960FB6F894DEBF0FBECDBFCF913B
:1012B000DF911F910F91FF90EF90DF90CF90BF9043
:1012C000AF909F908F907F906F905F904F903F90E6
:1012D0002F9008952F923F924F925F926F927F923C
:1012E0008F929F92AF92BF92CF92DF92EF92FF9236
:1012F0000F931F93DF93CF93CDB7DEB7CD51D1407E
:101300000FB6F894DEBF0FBECDBF282E462F272F75
:10131000FE01319688E191E0DF01BC011D92615030
:101320007040E1F7E42FF22FDF010D900020E9F784
:101330007D010894E108F108EE1AFF0AC70164E193
:1013400070E00E94220B362E84E1689FC0011124B8
:101350008E159F0508F43394842F922F9C01390138
:1013600013E0812E912C8C0E9D1EAA24BB24E32D0C
:10137000F0E0C75EDE4FF983E883C951D1402E010A
:101380000894411C511C3197C55EDE4FF983E883F8
:10139000CB51D1404E0DC35EDE4F4883CD51D1407D
:1013A0008BC0119201968C319105D9F72A2D2F5FB0
:1013B00080E060E040E0032D76010E94BE01C55E42
:1013C000DE4F28813981CB51D140A216B30611F0EE
:1013D00004E106C0C35EDE4F0881CD51D14006193D
:1013E000EFEFD401EC93FFEF1196FC931197129657
:1013F0000C932CE130E0A29EF001A39EF00DB29E72
:10140000F00D11243596E40DF51DD30120E030E0F8
:10141000E02EFF2404C08D9181932F5F3F4F2E1546
:101420003F05CCF387010B5F1F4FC601B8010E9437
:101430002B016CE170E0A69EF001A79EF00DB69E18
:10144000F00D11240E0F1F1F040D151DD8019C93C4
:10145000E40DF51DEE0DFF1D8683C6010E943404C8
:1014600084E391E00E94BD0089ED95E00E94BD00FB
:10147000822DB6010E94A6068DEE95E00E94BD0069
:10148000822DB6010E94BA08882319F089E196E0FE
:10149000E9CF80E496E00E94BD0088EB9BE00197D5
:1014A000F1F70894A11CB11CE4E1F0E06E0E7F1E80
:1014B0002CE130E0820E931EC75EDE4F6881798199
:1014C000C951D140A616B70678F48CE190E0A89EE9
:1014D0006001A99ED00CB89ED00C1124C40CD51C60
:1014E000F60180E090E05DCF80E090E0C35EDE4FEB
:1014F0000FB6F894DEBF0FBECDBFCF91DF911F9125
:101500000F91FF90EF90DF90CF90BF90AF909F90A2
:101510008F907F906F905F904F903F902F900895A5
:10152000CF92DF92EF92FF920F931F93DF93CF93AF
:10153000CDB7DEB7C85ED3400FB6F894DEBF0FBE9E
:10154000CDBF1092C5008DE48093C40088E18093E4
:10155000C10086E08093C2008AE0809381008BED19
:1015600095E0909389008093880080916F0082605D
:1015700080936F00789482E596E00E94BD0098EE1B
:10158000C92E93E0D92E8E010F5F1F4F88EBE82EF6
:101590008BE0F82EF801C60111920197E9F78AE66F
:1015A00096E00E94BD0040E050E08091C00087FFBF
:1015B000FCCF2091C600822F80528F3568F4809135
:1015C000C00085FFFCCF2093C600F801E40FF51F93
:1015D00020834F5F5F4F10C0283011F02F3761F428
:1015E0008091C00085FFFCCF2093C6004150504041
:1015F000F801E40FF51F1082C7010197F1F72D30B4
:10160000A1F684E391E00E94BD00F8010190002062
:10161000E9F73197CF01801B910B0E94F0038EE711
:1016200096E00E94BD00C8010E94BD008EE4B80192
:101630000E946A09892B09F4ADCF80EA96E00E94E6
:10164000BD00A8CFAA1BBB1B51E107C0AA1FBB1F2F
:10165000A617B70710F0A61BB70B881F991F5A953E
:10166000A9F780959095BC01CD010895AEE0B0E05A
:10167000ECE3FBE00C94160E0D891E898F89988D82
:1016800097FF02C080E090E801979E838D831A83C4
:10169000098386E08C839E01255E3F4FCE01019633
:1016A000698D7A8DA9010E948B0B4D815E8157FD5A
:1016B0000AC02F813885421753070CF49A01020F94
:1016C000131FF80110822E96E4E00C94320EAEE067
:1016D000B0E0EDE6FBE00C94160E0D891E8986E065
:1016E0008C831A8309838FEF9FE79E838D839E01EE
:1016F000275E3F4FCE0101966F89788DA9010E9428
:101700008B0B2F813885020F131FF80110822E9644
:10171000E4E00C94320EABE0B0E0E1E9FBE00C94C5
:10172000080E3C012B015A01FC01178216828381AD
:1017300081FD03C06FEF7FEFC6C19AE0892E1E01C5
:101740000894211C311CF3012381F20123FD8591B2
:1017500023FF81912F01882309F4B2C1853239F426
:1017600023FD859123FF81912F01853229F490E09B
:10177000B3010E947E0DE7CF982FFF24EE24992419
:10178000FFE1FF15D0F09B3269F09C3228F49032D3
:1017900059F0933291F40EC09D3249F0903369F4C0
:1017A00041E024C052E0F52A84E0F82A28C098E0FD
:1017B000F92A25C0E0E1FE2A22C0F7FC29C0892FC2
:1017C00080538A3070F4F6FE05C0989C902C11244A
:1017D000980E15C0E89CE02C1124E80EF0E2FF2AD8
:1017E0000EC09E3229F4F6FC6BC140E4F42A07C017
:1017F0009C3619F450E8F52A02C0983649F4F201F3
:1018000023FD959123FF91912F01992309F0B8CFE2
:10181000892F8554833018F08052833038F444E0A7
:1018200050E0A40EB51E5FE359830FC0933631F02C
:10183000933779F0933509F056C020C0F5018081C7
:10184000898342E050E0A40EB51E610101E010E082
:1018500012C0F501C080D180F6FC03C06FEF7FEFAE
:1018600002C0692D70E042E050E0A40EB51EC60132
:101870000E94730D8C015FE7F52214C0F501C08052
:10188000D180F6FC03C06FEF7FEF02C0692D70E0DE
:1018900042E050E0A40EB51EC6010E94680D8C0106
:1018A00050E8F52AF3FE07C01AC080E290E0B301C9
:1018B0000E947E0DEA948E2D90E008171907A8F378
:1018C0000EC0F601F7FC8591F7FE81916F0190E063
:1018D000B3010E947E0DE110EA9401501040011501
:1018E000110579F7EAC0943611F0993669F5F7FEDB
:1018F00008C0F501208131814281538184E090E06C
:101900000AC0F501808191819C01442737FD4095F3
:10191000542F82E090E0A80EB91E9FE6F92257FFEF
:1019200009C050954095309521953F4F4F4F5F4FDF
:10193000E0E8FE2ACA01B901A1012AE030E00E94D4
:10194000AA0DD82ED21840C0953729F41F2D1F7E1E
:101950002AE030E01DC01F2D197F9F3661F09037BF
:1019600020F4983509F0ACC00FC0903739F09837A3
:1019700009F0A6C004C028E030E00AC0106114FDE0
:10198000146020E130E004C014FD166020E132E074
:1019900017FF08C0F501608171818281938144E065
:1019A00050E008C0F50180819181BC0180E090E0A9
:1019B00042E050E0A40EB51EA1010E94AA0DD82E4F
:1019C000D2188FE7F82EF122F6FE0BC05EEFF5225B
:1019D000D91438F4F4FE07C0F2FC05C08FEEF822EB
:1019E00002C01D2D01C0192DF4FE0DC0FE01ED0D2C
:1019F000F11D8081803319F499EEF92208C01F5F30
:101A0000F2FE05C003C08F2D867809F01F5F0F2DF1
:101A1000F3FC14C0F0FE0FC01E1510F09D2C0BC07F
:101A20009D2C9E0C911A1E2D06C080E290E0B30101
:101A30000E947E0D1F5F1E15C0F304C01E1510F41A
:101A4000E11A01C0EE2404FF0FC080E390E0B3016F
:101A50000E947E0D02FF1DC001FD03C088E790E0DB
:101A60000EC088E590E00BC0802F867891F001FFD2
:101A700002C08BE201C080E2F7FC8DE290E0B3018E
:101A80000E947E0D06C080E390E0B3010E947E0DAF
:101A90009A94D914C0F3DA94F101ED0DF11D80810F
:101AA00090E0B3010E947E0DDD20A9F706C080E220
:101AB00090E0B3010E947E0DEA94EE20C1F743CE80
:101AC000F30166817781CB012B96E2E10C94240E21
:101AD000FC010590615070400110D8F780959095F9
:101AE0008E0F9F1F0895FC016150704001900110FE
:101AF000D8F7809590958E0F9F1F08950F931F9391
:101B0000CF93DF938C01EB018B8181FF1BC082FFA0
:101B10000DC02E813F818C819D812817390764F487
:101B2000E881F9810193F983E88306C0E885F985A6
:101B3000802F0995892B31F48E819F8101969F8397
:101B40008E8302C00FEF1FEFC801DF91CF911F916D
:101B50000F910895FA01AA27283051F1203181F11F
:101B6000E8946F936E7F6E5F7F4F8F4F9F4FAF4FA5
:101B7000B1E03ED0B4E03CD0670F781F891F9A1FB8
:101B8000A11D680F791F8A1F911DA11D6A0F711D6C
:101B9000811D911DA11D20D009F468943F912AE078
:101BA000269F11243019305D3193DEF6CF01089560
:101BB000462F4770405D4193B3E00FD0C9F7F6CF91
:101BC000462F4F70405D4A3318F0495D31FD405259
:101BD000419302D0A9F7EACFB4E0A69597958795EF
:101BE00077956795BA95C9F70097610571050895CE
:101BF0009B01AC010A2E069457954795379527957A
:101C0000BA95C9F7620F731F841F951FA01D089511
:101C10002F923F924F925F926F927F928F929F92FC
:101C2000AF92BF92CF92DF92EF92FF920F931F93EA
:101C3000CF93DF93CDB7DEB7CA1BDB0B0FB6F8949B
:101C4000DEBF0FBECDBF09942A88398848885F84DB
:101C50006E847D848C849B84AA84B984C884DF804C
:101C6000EE80FD800C811B81AA81B981CE0FD11D30
:101C70000FB6F894DEBF0FBECDBFED010895F89406
:021C8000FFCF94
:101C820030620067657474696E67206E65696768A3
:101C9200626F757220616464726573730D0A0073FA
:101CA200656E64696E67206E65696768626F7572DA
:101CB200730D0A000D0A00646F6E650D0A0030781C
:101CC20000636865636B20636865636B73756D2C75
:101CD20000436865636B73756D3A20002000616C88
:101CE2007265616479207472616E736D6974746572
:101CF200642C006368656B73756D2073746F726515
:101D0200642C00454E442E0D0A0070726F63657399
:101D120073696E672048454C4C4F0D0A006E656929
:101D22006768626F757220666F756E643A20006430
:101D320075706C6963617465206E65696768626F4E
:101D4200757220666F756E642C206D6F7665206FDC
:101D52006E2E0D0A006E6F206475706C696361747B
:101D620065206E65696768626F757220666F756E51
:101D7200640D0A00737061636520666F72206E6580
:101D8200696768626F75720D0A006E6569676862DD
:101D92006F75722073746F72656420696E200025FE
:101DA20064006E65696768626F75722070726F6336
:101DB20065737365640D0A000D0A0D0A4465636F4D
:101DC20064696E67207365676D656E7420746861FF
:101DD200742069732000206279746573206C6F6EC1
:101DE200672E000D0A0D0A436F6E74726F6C2042EB
:101DF20079746520313A20000D0A436F6E74726F58
:101E02006C204279746520323A20000D0A536567CE
:101E12006D656E743A2000206F6620000D0A536FC4
:101E22007572636520506F72743A20000D0A446522
:101E3200737420506F72743A20000D0A4D657373EB
:101E4200616765204C656E6774683A20000D0A4D23
:101E52006573736167653A20000D0A4352433A2065
:101E6200000D0A5365676D656E742056616C696476
:101E72003A2000596573004E6F00424547494E2093
:101E8200524543205041434B45540D0A0044756D61
:101E92006D79207061636B6574206C656E67746820
:101EA2003A20005265616C207061636B6574206C2E
:101EB200656E6774683A2000454E442052454320BF
:101EC2005041434B45540D0A000D0A424547494EC5
:101ED20020474554205041434B45540D0A00706140
:101EE200636B65742072656369657665643A200088
:101EF2007061636B6574206C656E6774683A20006C
:101F02005061636B657420436865636B73756D3AEA
:101F120020006368656B73756D206661696C65642A
:101F22000D0A0043616C6320436865636B73756DD2
:101F32003A20002E2E2E00646F6E652E0D0A000DC3
:101F42000A454E4420474554205041434B45540DC9
:101F52000A006E6F2068656C6C6F207061636B6540
:101F6200740D0A00424547494E2053454E442050C5
:101F720041434B45540D0A00446F6D206465627500
:101F820067002E00454E442053454E4420504143A5
:101F92004B45540D0A000D0A424547494E20534510
:101FA2004E44205345474D454E540D0A000D0A73C9
:101FB20065676D656E74206C656E6774683A2000A3
:101FC200312E207061636B6574206C656E67746876
:101FD2003A2000322E207061636B6574206C656E4E
:101FE2006774683A2000332E207061636B65742039
:101FF2006C656E6774683A2000342E207061636BE2
:102002006574206C656E6774683A20000D0A454E4F
:10201200442053454E44205345474D454E540D0AE6
:102022000073656E64696E672068656C6C6F2E2E36
:102032002E0068207061636B6574206C656E677436
:10204200683A200068656C6C6F2073656E740D0AC7
:10205200000D0A424547494E2052454345495645DF
:10206200205345474D454E540D0A007061636B6520
:102072007420636F727275707465642C2064726F61
:10208200707065642E0D0A006D657373616765205B
:10209200666F72206D652E207061636B6574206CB3
:1020A200656E6774683A20006D65737361676520B9
:1020B2006E6F7420666F72206D652E0D0A00726558
:1020C2007472616E736D6974696E672E0D0A0061B8
:1020D2006C72656164792072657472616E736D6988
:1020E200747465640D0A0053696E676C6520686FCD
:1020F20070206D657373616765206E6F7420666F03
:1021020072206D652E2E2E64726F707065642E0DB6
:102112000A000D0A454E4420524543454956452082
:102122005345474D454E540D0A0054696D6520775D
:10213200616974656420286D73293A0D0A000D00E7
:102142000D0A0D0A526563656976696E67207365CB
:10215200676D656E742E2E2E000D0A0D0A53656E84
:1021620064696E67207365676D656E74000D0A534E
:1021720065676D656E742073656E742C2077616976
:1021820074696E67206F6E2061636B6E6F776C652A
:1021920064676D656E740D0A000D0A4E6F206163EF
:1021A2006B6E6F776C6564676D656E742C207265FB
:1021B20073656E64696E67207365676D656E740022
:1021C2000D0A0D0A41636B6E6F776C656467656417
:1021D2002E000D0A0D0A0D0A0D0A496E6974696115
:1021E2006C6973696E672E2E2E000D0A0D0A456EFC
:1021F200746572206D6573736167653A20002063B0
:102202006861726163746572206C6F6E67206D65C0
:1022120073736167652072656164733A200D0A0009
:102222004572726F722073656E64696E67206D65A8
:0622320073736167650093
:00000001FF
