:100000000C943E000C945B000C945B000C945B0021
:100010000C945B000C945B000C945B000C945B00F4
:100020000C945B000C945B000C945B000C945B00E4
:100030000C945B000C947B000C945B000C945B00B4
:100040000C945B000C945B000C945B000C945B00C4
:100050000C945B000C945B000C945B000C945B00B4
:100060000C945B000C945B000C945B000C945B00A4
:100070000C945B000C945B000C945B0011241FBE7D
:10008000CFEFD0E1DEBFCDBF15E0A0E0B1E0E6E606
:10009000FAE102C005900D92AA36B107D9F716E031
:1000A000AAE6B5E001C01D92A237B107E1F70E94B0
:1000B00097090C94310D0C9400008FB7F89420919F
:1000C0006A0530916B0540916C0550916D058FBFAD
:1000D000B901CA0108958AE0809381008BED95E013
:1000E0009093890080938800EFE6F0E08081826041
:1000F0008083789408951F920F920FB60F92112467
:100100008F939F93AF93BF93F89480916A059091DA
:100110006B05A0916C05B0916D050196A11DB11DF7
:1001200080936A0590936B05A0936C05B0936D0561
:100130007894BF91AF919F918F910F900FBE0F90C8
:100140001F9018951092C5008DE48093C40088E13B
:100150008093C10086E08093C20008958091C00022
:1001600087FFFCCF8091C6000895982F8091C00032
:1001700085FFFCCF9093C6000895FC0107C08091D5
:10018000C00085FFFCCF9093C600319690819923E3
:10019000B1F70895DC01262F30E0240F311D0AC08D
:1001A000EA0FFB1F40818091C00085FFFCCF409388
:1001B000C6006F5FE62FF0E0E217F3078CF30895B7
:1001C000DF93CF93CDB7DEB728970FB6F894DEBF95
:1001D0000FBECDBFFE01319627E030E0482F50E042
:1001E00070E361E3CA01022E02C0959587950A94D7
:1001F000E2F780FF02C0608301C07083215030406D
:1002000031968FEF2F3F380769F780E091E00E9429
:10021000BD00CE01019660E048E00E94CA00289629
:100220000FB6F894DEBF0FBECDBFCF91DF9108951A
:10023000EF92FF920F931F937C018B0183E091E07B
:100240000E94BD00F8018281F70180831F910F9108
:10025000FF90EF900895FC0120E030E0A1E2B0E1D2
:1002600016C08081992787FD9095982F8827282789
:10027000392748E0C901880F991F37FF04C09C0146
:100280002A273B2701C09C014150A1F731966150BC
:10029000704077FFE6CFC9010895EF92FF920F9368
:1002A0001F93CF93DF93DC01E901F701808186FF83
:1002B00003C081E08C9301C01C92808185FF04C043
:1002C00081E0DB018C9302C0DB011C92808184FF02
:1002D00004C081E0DA018C9302C0DA011C9218821A
:1002E00043E050E061E070E09B01042E02C0220F69
:1002F000331F0A94E2F78081992787FD9095282380
:100300003923220F331F220F331F3881322B3883BA
:1003100041505040BFEF4F3F5B0731F78181992734
:1003200087FD90958078907066E0959587956A95A1
:10033000E1F7232F282B28838181992787FD90952A
:100340008074907056E0959587955A95E1F7282B23
:10035000288381818F73F8018083DF91CF911F9172
:100360000F91FF90EF900895EF92FF920F93F70196
:1003700030E08295880F880F807C80686295660FD8
:10038000607E682B4295407F462B80E0482BC90158
:100390009595879595958795482B40830F73B6E083
:1003A000220F331FBA95E1F7022B80E0802B818367
:1003B0000F91FF90EF9008950F931F93FB01E00FB3
:1003C000F11FDC01A40FB11D40E050E030E004C09B
:1003D00081918D934F5F5F4F42175307CCF31F916D
:1003E0000F910895CF93DF93AC01EEE6F5E0EF01B6
:1003F00009900020E9F72197CE1BDF0B20E030E0C9
:100400000AC0FA01E20FF31FD901A259BA4F8C9129
:1004100080832F5F3F4F2C173D079CF380E090E0D7
:10042000DF91CF9108950F931F93CF93DF938B01AB
:10043000EB0109900020E9F72197C61BD70B8FE14C
:1004400091E00E94BD0020E030E00AC0F901E259CD
:10045000FA4FD801A20FB31F8C9180832F5F3F4FBB
:100460002C173D079CF380E090E0DF91CF911F9126
:100470000F910895EF92FF920F931F93DF93CF9305
:10048000CDB7DEB7BC010DB71EB7DC010D90002063
:10049000E9F71197A81BB90B17978DB79EB78A1B61
:1004A0009B0B0FB6F8949EBF0FBE8DBF0196F82E22
:1004B000E92EAC0125E030E0159609C0FB01E20F02
:1004C000F31F8081FA018193AF012F5F3F4F2A17FD
:1004D0003B07A4F38F2D9E2D0E94BD000FB6F8940C
:1004E0001EBF0FBE0DBFCF91DF911F910F91FF90E7
:1004F000EF900895EF92FF920F931F93DF93CF93A6
:10050000CDB7DEB7EDB6FEB68DE391E00E94BD003B
:100510008DB79EB741970FB6F8949EBF0FBE8DBFA3
:100520000DB71EB70F5F1F4F9EE4EDB7FEB7918367
:1005300080E3F8018183928383838AE0848325E0CA
:1005400030E0F801E20FF31FD901A551BA4F8C91A9
:1005500080832F5F3F4F2F30310599F7C8016FE03F
:1005600070E00E942B01F8019787808BC8010E94E0
:10057000BD0082E591E00E94BD0085E591E00E940A
:10058000BD000FB6F894FEBE0FBEEDBECF91DF9159
:100590001F910F91FF90EF9008958F929F92AF92CD
:1005A000BF92CF92DF92EF92FF920F931F93DF9350
:1005B000CF93CDB7DEB76B017C018DB69EB6042F0D
:1005C00010E0000F111F8DB79EB7801B910B0FB667
:1005D000F8949EBF0FBE8DBFADB6BEB60894A11CE9
:1005E000B11CEDB7FEB7E00FF11F40E050E020E096
:1005F00030E016C0D701C601022E04C0B695A795FB
:10060000979587950A94D2F78F708A3010F0895A9F
:1006100001C0805D80834F5F5F4F31972C5F3F4FFC
:10062000401751073CF38CE591E00E94BD00C501E5
:1006300060E0402F0E94CA000FB6F8949EBE0FBE25
:100640008DBECF91DF911F910F91FF90EF90DF90C2
:10065000CF90BF90AF909F908F900895EF92FF92B0
:100660000F931F93CF93DF938C018FE591E00E944E
:10067000BD00F80101900020E9F73197E01BF10B74
:10068000E00FF11F3297E190F0808FE691E00E9439
:10069000BD006E2D772767FD7095872F972F41E05E
:1006A0000E94CD028AE791E00E94BD006F2D77275E
:1006B00067FD7095872F972F41E00E94CD0282E55C
:1006C00091E00E94BD00CEE5D6E000E010E0888118
:1006D0008E1549F489818F1531F48CE791E00E94E1
:1006E000BD0001E010E0229686E0C237D80779F716
:1006F0000115110581F4FE013197808181833197C5
:1007000086E0EF35F807C9F7E0925E06F08281E9EE
:1007100091E00E94BD0081EA91E00E94BD00C80105
:10072000DF91CF911F910F91FF90EF900895EF927D
:10073000FF920F931F93DF93CF93CDB7DEB72B9725
:100740000FB6F894DEBF0FBECDBFBC01CE0101963F
:100750000E94180188EA91E00E94BD008BEB91E0B5
:100760000E94BD0099818091C00085FFFCCF9093CD
:10077000C60082E591E00E94BD0000EF15E021E097
:1007800030E0D8019C918981981731F48DEC91E08B
:100790000E94BD0020E030E00F5F1F4FB5E00A3F30
:1007A0001B0779F72130310509F047C083EF91E04D
:1007B0000E94BD00EE24FF24870100511A4FF8016A
:1007C0008081882391F582E192E00E94BD008981B9
:1007D000D8018C9388E292E00E94BD0000D000D046
:1007E00000D0EDB7FEB731968E010E5F1F4FADB74B
:1007F000BEB712961C930E9311978DE392E09383EC
:100800008283F582E4820E94590AEDB7FEB73696DC
:100810000FB6F894FEBF0FBEEDBFC8010E94BD0029
:1008200082E591E00E94BD0008C00894E11CF11C23
:10083000FAE0EF16F10409F0BFCF80E492E00E94E5
:10084000BD002B960FB6F894DEBF0FBECDBFCF9183
:10085000DF911F910F91FF90EF9008950F931F93D9
:10086000DF93CF93CDB7DEB728970FB6F894DEBFEE
:100870000FBECDBF2DB73EB7285030400FB6F8940D
:100880003EBF0FBE2DBFEDB7FEB731968E010F5F95
:100890001F4FADB7BEB712961C930E93119728E069
:1008A00030E0338322832DE332E035832483978342
:1008B00086830E94280A2DB73EB7285F3F4F0FB6A8
:1008C000F8943EBF0FBE2DBFC8010E94BD00289600
:1008D0000FB6F894DEBF0FBECDBFCF91DF911F9151
:1008E0000F910895CF92DF92EF92FF920F931F9393
:1008F000DF93CF9300D000D00F92CDB7DEB76C015D
:10090000CE010196BE016E5F7F4FAE014D5F5F4F1E
:100910009E012C5F3F4F8E010B5F1F4F76010E949F
:100920004D0186E592E00E94BD00F6010190002095
:10093000E9F73197CF018C199D090E942E0484E7B5
:1009400092E00E94BD0081E892E00E94BD00F601A5
:1009500080810E94E00086E992E00E94BD00F601DD
:1009600081810E94E00089EA92E00E94BD008C81B2
:1009700090E00E942E0485EB92E00E94BD008D81E4
:1009800090E00E942E048AEB92E00E94BD00F601E6
:100990006281772767FD7095872F972F41E00E942E
:1009A000CD028AEC92E00E94BD00F60163817727B8
:1009B00067FD7095872F972F41E00E94CD0288ED4B
:1009C00092E00E94BD00F6018481992787FD9095F1
:1009D0000E942E048BEE92E00E94BD00D6010D9085
:1009E0000020E9F7AC19BD09189790E00AC0EC0D9A
:1009F000FD1D25818091C00085FFFCCF2093C6009E
:100A00009F5FE92FF0E0EA17FB0788F387EF92E09A
:100A10000E94BD00F60101900020E9F73197EC1922
:100A2000FD09EC0DFD1D32970191112707FD109571
:100A3000102F0027808190E0082B192BB80180E04F
:100A400090E042E00E94CD028FEF92E00E94BD0054
:100A5000D6010D900020E9F7AC19BD091397C60126
:100A6000BD010E942B010817190719F481E193E0D9
:100A700002C085E193E00E94BD000F900F900F909F
:100A80000F900F90CF91DF911F910F91FF90EF90FA
:100A9000DF90CF9008958F929F92BF92CF92DF9276
:100AA000EF92FF920F931F93DF93CF93CDB7DEB7F3
:100AB000B82E8B018DB69EB6DB010D900020E9F7B4
:100AC0006D010894C108D108C61AD70A88E193E0DD
:100AD0000E94BD00C6010E942E0482E591E00E94A2
:100AE000BD009601295F3F4FC6010896EDB7FEB7DE
:100AF000E81BF90B0FB6F894FEBF0FBEEDBFEDB6C5
:100B0000FEB60894E11CF11C80E090E005C0F701FE
:100B1000E80FF91F1082019628173907C4F7E0EF94
:100B2000F5E08081B81619F421E030E007C0319675
:100B300045E0EA3FF407A9F720E030E08DE4D70173
:100B40008C932130310521F483E511968C9303C0F9
:100B500088E5F70181838EE4D70112968C93129772
:100B60001396BC9213971496CC92D80125E030E0EE
:100B7000A6014C5F5F4F07C0F701E20FF31F8D9195
:100B800080832F5F3F4F42175307B4F786010B5FF7
:100B90001F4FC701B8010E942B010E0D1F1DF80148
:100BA0009083CE0CDF1CD60116968C938B2DB7014B
:100BB0000E94130280E090E00FB6F8949EBE0FBE34
:100BC0008DBECF91DF911F910F91FF90EF90DF903D
:100BD000CF90BF909F908F900895AF92BF92CF9289
:100BE000DF92EF92FF920F931F93CF93DF935C01FD
:100BF00089E293E00E94BD00C5010E94F201D50187
:100C00000D900020E9F78D01015010400A191B09D1
:100C10008BE393E00E94BD008DE493E00E94BD0051
:100C2000C8010E942E0482E591E00E94BD008DE57E
:100C300093E00E94BD00EEEFEE2EEFEFFE2EE00EF1
:100C4000F11E6501CE0CDF1CF6016081772767FD80
:100C50007095872F972F41E00E94CD028AE791E09F
:100C60000E94BD00E8012197CA0DDB1D688177272E
:100C700067FD7095872F972F41E00E94CD0282E596
:100C800091E00E94BD00C501B7010E942B01E82E32
:100C9000092FD6018C91891731F488818E1519F4AA
:100CA000C1E0D0E006C08FE693E00E94BD00C0E046
:100CB000D0E080E893E00E94BD00602F772767FDB9
:100CC0007095872F972F41E00E94CD028AE791E02F
:100CD0000E94BD006E2D772767FD7095872F972F97
:100CE00041E00E94CD0280E993E00E94BD00209780
:100CF000E1F0F501918180818D3441F08E3419F459
:100D0000C2E0D0E012C0C1E0D0E00FC0D501139620
:100D10008C918E3419F4C3E0D0E007C0933519F4F8
:100D2000C5E0D0E002C0C4E0D0E084E993E00E94D6
:100D3000BD00CE01DF91CF911F910F91FF90EF90F9
:100D4000DF90CF90BF90AF900895EF92FF920F93F6
:100D50001F93DF93CF93CDB7DEB7C158D0400FB606
:100D6000F894DEBF0FBECDBFF2E0EF2EF12CEC0EFB
:100D7000FD1EC7010E94ED058C01CE010196B70151
:100D80000E9418010130110521F4C7010E94970348
:100D900004C08CE993E00E94BD00CF57DF4F0FB62F
:100DA000F894DEBF0FBECDBFCF91DF911F910F91A1
:100DB000FF90EF900895EF92FF920F931F93DF93B0
:100DC000CF93CDB7DEB760970FB6F894DEBF0FBEF6
:100DD000CDBF8EEA93E00E94BD00FE01319680E116
:100DE000DF011D928A95E9F788E489838A838EE47E
:100DF0008B838FEF8C8388E08D83FE01369629E606
:100E0000CE010E962193E817F907E1F78DEC8E8756
:100E10002F877E010894E11CF11CF701019000204E
:100E2000E9F78F01015010400E191F0968897727D3
:100E300067FD7095872F972F41E00E94CD028FEBC1
:100E400093E00E94BD00C8010E942E0482E591E05B
:100E50000E94BD0080E0B7010E94130281ED93E083
:100E60000E94BD0060960FB6F894DEBF0FBECDBFE6
:100E7000CF91DF911F910F91FF90EF900895CF9246
:100E8000DF92EF92FF920F931F93DF93CF93CDB733
:100E9000DEB7C058D0400FB6F894DEBF0FBECDBF4E
:100EA0006B017E010894E11CF11C80E8F7011192AE
:100EB0008A95E9F7C7010E94ED05F701019000202E
:100EC000E9F78F01015010400E191F098330910579
:100ED000C9F08430910534F4009759F0019709F076
:100EE00045C00AC08430910559F1059709F03EC00C
:100EF00039C08EED93E038C00E94DB06C7010E9426
:100F0000970334C08BEF93E00E94BD00C7010E949D
:100F10003A02980123503040D701A20FB31FF801C5
:100F20003797EC0DFD1D06C08C9180832150304019
:100F30001197319725303105BCF721E030E018C01A
:100F40008DE094E00E94BD00C7010E942E0301972E
:100F500069F083E294E00E94BD008C81B7010E9499
:100F6000130204C083E394E00E94BD0020E030E05F
:100F7000C901C058DF4F0FB6F894DEBF0FBECDBF1A
:100F8000CF91DF911F910F91FF90EF90DF90CF9065
:100F900008950E943F0780E090E008952F923F92CD
:100FA0004F925F926F927F928F929F92AF92BF9279
:100FB000CF92DF92EF92FF920F931F93DF93CF9325
:100FC000CDB7DEB765970FB6F894DEBF0FBECDBFC5
:100FD0006B018FB7F89460906A0570906B058090F4
:100FE0006C0590906D058FBF8EE594E00E94BD006A
:100FF00080E090E00E942E0482E794E00E94BD0011
:10100000B2E0AB2EB12CAC0EBD1EA6E12A2E312CC7
:101010002C0E3D1E2E010894411C511C8FB7F894D4
:10102000E0906A05F0906B0500916C0510916D05DC
:101030008FBFF5011192E215F305E1F7C201B50189
:101040000E943F0784E794E00E94BD00C5010E9412
:101050007204D6010D900020E9F79D012150304027
:101060002C193D0950E040E00AC0F601EA0FFB1FD1
:10107000AA0DBB1D90818C91981351E04F5FA42F56
:10108000B0E0A217B30788F3552311F480E01AC02B
:10109000E618F70808091909C7010E942E0482E71B
:1010A00094E00E94BD00B9EEEB16B3E0FB06B0E0A1
:1010B0000B07B0E01B0708F4B1CF82E591E00E9476
:1010C000BD0081E065960FB6F894DEBF0FBECDBFC0
:1010D000CF91DF911F910F91FF90EF90DF90CF9014
:1010E000BF90AF909F908F907F906F905F904F9048
:1010F0003F902F9008952F923F924F925F926F9260
:101100007F928F929F92AF92BF92CF92DF92EF9297
:10111000FF920F931F93DF93CF93CDB7DEB7CA51E2
:10112000D1400FB6F894DEBF0FBECDBFC75EDE4F15
:101130008883C951D140462F272FFE01319688E17F
:1011400091E0DF01BC011D9261507040E1F7E42F96
:10115000F22FDF010D900020E9F77D010894E108EE
:10116000F108EE1AFF0AC70164E170E00E94140A58
:10117000362E84E1689FC00111248E159F0508F466
:101180003394842F922F9C01390113E0812E912CEE
:101190008C0E9D1E22242394AA24BB24432C552468
:1011A0000894410851084E0DC65EDE4F4883CA516F
:1011B000D1409DC0ECE1F0E0AE9E6001AF9ED00C4E
:1011C000BE9ED00C112461E070E06C0F7D1FC60E36
:1011D000D71E2F5F80E060E040E0032D76010E9483
:1011E000B401A414B50411F004E106C0C65EDE4FDC
:1011F0000881CA51D1400619EFEFD401EC93FFEFFB
:101200001196FC93119712960C932CE130E0A29E5C
:10121000F001A39EF00DB29EF00D1124359661E011
:1012200070E06C0F7D1FE60FF71FD30120E030E068
:10123000E02EFF2404C08D9181932F5F3F4F2E1528
:101240003F05CCF387010B5F1F4FC601B8010E9419
:101250002B01ACE1B0E0AA9EF001AB9EF00DBA9E6E
:10126000F00D11240E0F1F1F21E030E02C0F3D1F49
:10127000020F131FD8019C93E20FF31FEE0DFF1D09
:101280008683C6010E94720482E591E01DC08DE84C
:1012900094E00E94BD00C75EDE4F8881C951D140F5
:1012A000B6010E944B0581EA94E00E94BD00C75E32
:1012B000DE4F8881C951D140B6010E94CE07282E49
:1012C000882321F08DEC94E00E94BD002220F9F6E5
:1012D00084EF94E00E94BD000894A11CB11CE4E1DD
:1012E000F0E06E0E7F1E2CE130E0820E931E2A2D60
:1012F000A31408F45FCF80E090E0C65EDE4F0FB627
:10130000F894DEBF0FBECDBFCF91DF911F910F913B
:10131000FF90EF90DF90CF90BF90AF909F908F9015
:101320007F906F905F904F903F902F9008950F9314
:101330001F93DF93CF93CDB7DEB7C85ED3400FB610
:10134000F894DEBF0FBECDBF1092C5008DE4809330
:10135000C40088E18093C10086E08093C2008AE0E7
:10136000809381008BED95E09093890080938800B5
:1013700080916F00826080936F00789486E095E0A2
:101380000E94BD008E010F5F1F4F88EE93E0F801B1
:101390009C01119221503040E1F782E295E00E94D9
:1013A000BD0040E050E0D80168EB7BE08091C000D8
:1013B00087FFFCCF2091C600822F80528F3560F4CA
:1013C0008091C00085FFFCCF2093C600FD01E40F93
:1013D000F51F20834F5F5F4FCB010197F1F72D3051
:1013E00029F782E591E00E94BD008E010F5F1F4F3B
:1013F000F80101900020E9F73197CF01801B910B94
:101400000E942E0482E395E00E94BD00C8010E9464
:10141000BD008EE4B8010E947B08892B21F083E592
:1014200095E00E94BD00FFCFAA1BBB1B51E107C086
:10143000AA1FBB1FA617B70710F0A61BB70B881F64
:10144000991F5A95A9F780959095BC01CD010895F3
:10145000AEE0B0E0EEE2FAE00C94080D0D891E89D2
:101460008F89988D97FF02C080E090E801979E8356
:101470008D831A83098386E08C839E01255E3F4F0E
:10148000CE010196698D7A8DA9010E947D0A4D8158
:101490005E8157FD0AC02F813885421753070CF42F
:1014A0009A01020F131FF80110822E96E4E00C94AB
:1014B000240DAEE0B0E0EFE5FAE00C94080D0D89E4
:1014C0001E8986E08C831A8309838FEF9FE79E83B2
:1014D0008D839E01275E3F4FCE0101966F89788DE7
:1014E000A9010E947D0A2F813885020F131FF80180
:1014F00010822E96E4E00C94240DABE0B0E0E3E81B
:10150000FAE00C94FA0C3C012B015A01FC01178201
:101510001682838181FD03C06FEF7FEFC6C19AE021
:10152000892E1E010894211C311CF3012381F20134
:1015300023FD859123FF81912F01882309F4B2C1F6
:10154000853239F423FD859123FF81912F01853266
:1015500029F490E0B3010E94700CE7CF982FFF248C
:10156000EE249924FFE1FF15D0F09B3269F09C3204
:1015700028F4903259F0933291F40EC09D3249F024
:10158000903369F441E024C052E0F52A84E0F82A5F
:1015900028C098E0F92A25C0E0E1FE2A22C0F7FC25
:1015A00029C0892F80538A3070F4F6FE05C0989CBC
:1015B000902C1124980E15C0E89CE02C1124E80E04
:1015C000F0E2FF2A0EC09E3229F4F6FC6BC140E423
:1015D000F42A07C09C3619F450E8F52A02C0983660
:1015E00049F4F20123FD959123FF91912F01992355
:1015F00009F0B8CF892F8554833018F0805283309A
:1016000038F444E050E0A40EB51E5FE359830FC0E8
:10161000933631F0933779F0933509F056C020C0F6
:10162000F5018081898342E050E0A40EB51E61017E
:1016300001E010E012C0F501C080D180F6FC03C0CB
:101640006FEF7FEF02C0692D70E042E050E0A40E22
:10165000B51EC6010E94650C8C015FE7F52214C01F
:10166000F501C080D180F6FC03C06FEF7FEF02C0B0
:10167000692D70E042E050E0A40EB51EC6010E9444
:101680005A0C8C0150E8F52AF3FE07C01AC080E21C
:1016900090E0B3010E94700CEA948E2D90E0081740
:1016A0001907A8F30EC0F601F7FC8591F7FE8191AA
:1016B0006F0190E0B3010E94700CE110EA940150B8
:1016C00010400115110579F7EAC0943611F09936EA
:1016D00069F5F7FE08C0F50120813181428153810F
:1016E00084E090E00AC0F501808191819C0144274B
:1016F00037FD4095542F82E090E0A80EB91E9FE67A
:10170000F92257FF09C050954095309521953F4FDC
:101710004F4F5F4FE0E8FE2ACA01B901A1012AE05C
:1017200030E00E949C0CD82ED21840C0953729F486
:101730001F2D1F7E2AE030E01DC01F2D197F9F3610
:1017400061F0903720F4983509F0ACC00FC09037A5
:1017500039F0983709F0A6C004C028E030E00AC08C
:10176000106114FD146020E130E004C014FD166027
:1017700020E132E017FF08C0F501608171818281AC
:10178000938144E050E008C0F50180819181BC0163
:1017900080E090E042E050E0A40EB51EA1010E945E
:1017A0009C0CD82ED2188FE7F82EF122F6FE0BC033
:1017B0005EEFF522D91438F4F4FE07C0F2FC05C040
:1017C0008FEEF82202C01D2D01C0192DF4FE0DC0B0
:1017D000FE01ED0DF11D8081803319F499EEF9229F
:1017E00008C01F5FF2FE05C003C08F2D867809F088
:1017F0001F5F0F2DF3FC14C0F0FE0FC01E1510F07C
:101800009D2C0BC09D2C9E0C911A1E2D06C080E2B3
:1018100090E0B3010E94700C1F5F1E15C0F304C05E
:101820001E1510F4E11A01C0EE2404FF0FC080E37E
:1018300090E0B3010E94700C02FF1DC001FD03C0C7
:1018400088E790E00EC088E590E00BC0802F867896
:1018500091F001FF02C08BE201C080E2F7FC8DE253
:1018600090E0B3010E94700C06C080E390E0B301E9
:101870000E94700C9A94D914C0F3DA94F101ED0D22
:10188000F11D808190E0B3010E94700CDD20A9F76A
:1018900006C080E290E0B3010E94700CEA94EE2052
:1018A000C1F743CEF30166817781CB012B96E2E14C
:1018B0000C94160DFC010590615070400110D8F792
:1018C000809590958E0F9F1F0895FC016150704088
:1018D00001900110D8F7809590958E0F9F1F089565
:1018E0000F931F93CF93DF938C01EB018B8181FFCB
:1018F0001BC082FF0DC02E813F818C819D812817E6
:10190000390764F4E881F9810193F983E88306C01B
:10191000E885F985802F0995892B31F48E819F8187
:1019200001969F838E8302C00FEF1FEFC801DF91E6
:10193000CF911F910F910895FA01AA27283051F1F4
:10194000203181F1E8946F936E7F6E5F7F4F8F4FF0
:101950009F4FAF4FB1E03ED0B4E03CD0670F781F4F
:10196000891F9A1FA11D680F791F8A1F911DA11D34
:101970006A0F711D811D911DA11D20D009F468946D
:101980003F912AE0269F11243019305D3193DEF615
:10199000CF010895462F4770405D4193B3E00FD0CB
:1019A000C9F7F6CF462F4F70405D4A3318F0495DB6
:1019B00031FD4052419302D0A9F7EACFB4E0A69599
:1019C0009795879577956795BA95C9F700976105BB
:1019D000710508959B01AC010A2E06945795479511
:1019E00037952795BA95C9F7620F731F841F951F06
:1019F000A01D08952F923F924F925F926F927F9217
:101A00008F929F92AF92BF92CF92DF92EF92FF920E
:101A10000F931F93CF93DF93CDB7DEB7CA1BDB0BBA
:101A20000FB6F894DEBF0FBECDBF09942A8839885F
:101A300048885F846E847D848C849B84AA84B98466
:101A4000C884DF80EE80FD800C811B81AA81B98172
:101A5000CE0FD11D0FB6F894DEBF0FBECDBFED0186
:061A60000895F894FFCF89
:101A660030620067657474696E67206E65696768C1
:101A7600626F757220616464726573730D0A00701B
:101A860061636B65742070617373656420746F2085
:101A96006C696E6B206C617965720D0A0073656EF8
:101AA60064696E67206E65696768626F7572730D2B
:101AB6000A000D0A00646F6E650D0A003078006337
:101AC6006865636B20636865636B73756D2C004393
:101AD6006865636B73756D3A20002000616C7265F2
:101AE600616479207472616E736D69747465642CB7
:101AF600006368656B73756D2073746F7265642C13
:101B060000454E442E0D0A0070726F63657373694B
:101B16006E672048454C4C4F0D0A006E6569676834
:101B2600626F757220666F756E643A200064757018
:101B36006C6963617465206E65696768626F75724A
:101B460020666F756E642C206D6F7665206F6E2E25
:101B56000D0A006E6F206475706C69636174652090
:101B66006E65696768626F757220666F756E640D63
:101B76000A00737061636520666F72206E6569671F
:101B860068626F75720D0A006E65696768626F75C7
:101B9600722073746F72656420696E20002564007C
:101BA6006E65696768626F75722070726F636573C0
:101BB6007365640D0A000D0A0D0A4465636F646956
:101BC6006E67207365676D656E7420746861742036
:101BD60069732000206279746573206C6F6E672EBE
:101BE600000D0A0D0A436F6E74726F6C2042797491
:101BF6006520313A20000D0A436F6E74726F6C20B7
:101C06004279746520323A20000D0A5365676D6586
:101C16006E743A2000206F6620000D0A536F7572AD
:101C2600636520506F72743A20000D0A4465737420
:101C360020506F72743A20000D0A4D657373616708
:101C460065204C656E6774683A20000D0A4D657311
:101C5600736167653A20000D0A4352433A20000D2E
:101C66000A5365676D656E742056616C69643A2027
:101C760000596573004E6F007365676D656E74205D
:101C86006C656E6774683A200067657474696E6780
:101C9600207061636B65742E2E2E007061636B6518
:101CA600742072656369657665643A2000706163C5
:101CB6006B6574206C656E6774683A2000506163CA
:101CC6006B657420436865636B73756D3A200063BA
:101CD60068656B73756D206661696C65640D0A00D5
:101CE60043616C6320436865636B73756D3A2000CE
:101CF6002E2E2E00646F6E652E0D0A006E6F206804
:101D0600656C6C6F207061636B65740D0A0073659A
:101D16006E64696E672068656C6C6F2E2E2E006887
:101D2600207061636B6574206C656E6774683A2019
:101D36000068656C6C6F2073656E740D0A007061C7
:101D4600636B657420636F727275707465642C20A2
:101D560064726F707065642E0D0A006D6573736131
:101D6600676520666F72206D652E0D0A006D6573BE
:101D760073616765206E6F7420666F72206D652EC5
:101D86000D0A0072657472616E736D6974696E67AF
:101D96003A200053696E676C6520686F70206D6528
:101DA6007373616765206E6F7420666F72206D6550
:101DB6002E2E2E64726F707065642E0D0A005469A3
:101DC6006D652077616974656420286D73293A0D05
:101DD6000A000D000D0A0D0A526563656976696E83
:101DE60067207365676D656E742E2E2E000D0A0DC5
:101DF6000A53656E64696E67207365676D656E74F8
:101E0600000D0A5365676D656E742073656E742CDC
:101E16002077616974696E67206F6E2061636B6EEF
:101E26006F776C6564676D656E740D0A000D0A4EFA
:101E36006F2061636B6E6F776C6564676D656E743A
:101E46002C20726573656E64696E67207365676DB5
:101E5600656E74000D0A0D0A41636B6E6F776C65D3
:101E6600646765642E000D0A0D0A0D0A0D0A496E97
:101E7600697469616C6973696E672E2E2E0D0A0D81
:101E86000A00456E746572206D6573736167653A05
:101E9600200020636861726163746572206C6F6EE6
:101EA60067206D6573736167652072656164733A57
:101EB6000D0A004572726F722073656E64696E67F3
:0A1EC600206D65737361676500000D
:00000001FF
